:020000040800F2
:1000000000000120F90B0008A1180008A31800083F
:10001000A5180008A7180008A9180008000000008B
:10002000000000000000000000000000AB18000805
:10003000AD18000800000000AF180008B118000853
:10004000490C0008490C0008490C0008490C00083C
:10005000490C0008490C0008490C0008490C00082C
:10006000490C0008490C0008490C0008490C00081C
:10007000490C0008490C0008490C0008490C00080C
:10008000490C0008490C0008490C0008490C0008FC
:10009000490C0008490C0008490C0008490C0008EC
:1000A000490C0008490C0008490C0008490C0008DC
:1000B000490C00080000000000000000490C000886
:1000C000490C0008490C0008490C0008490C0008BC
:1000D000490C0008490C0008490C0008490C0008AC
:1000E000490C0008490C0008000000000000000056
:1000F0000000000000000000000000000000000000
:1001000000000000490C000800000000490C000835
:100110000000000000000000490C0008490C000825
:10012000490C0008490C0008490C0008490C00085B
:10013000490C000800000000000000000000000062
:10014000490C0008490C0008490C0008BD180008BB
:10015000490C0008490C0008490C0008490C00082B
:10016000490C0008490C0008490C00080000000078
:10017000490C0008490C0008490C00080000000068
:10018000490C0008490C0008490C00080000000058
:1001900081F0004102E000BF83F0004330B54FEA38
:1001A00041044FEA430594EA050F08BF90EA020FA5
:1001B0001FBF54EA000C55EA020C7FEA645C7FEA38
:1001C000655C00F0E2804FEA5454D4EB5555B8BF5B
:1001D0006D420CDD2C4480EA020281EA030382EACC
:1001E000000083EA010180EA020281EA0303362D5E
:1001F00088BF30BD11F0004F4FEA01314FF4801C31
:100200004CEA113102D0404261EB410113F0004F42
:100210004FEA03334CEA133302D0524263EB4303F9
:1002200094EA050F00F0A780A4F10104D5F1200E97
:100230000DDB02FA0EFC22FA05F2801841F10001F2
:1002400003FA0EF2801843FA05F359410EE0A5F1C6
:1002500020050EF1200E012A03FA0EFC28BF4CF0F7
:10026000020C43FA05F3C01851EBE37101F00045AD
:1002700007D54FF0000EDCF1000C7EEB00006EEBBA
:100280000101B1F5801F1BD3B1F5001F0CD3490844
:100290005FEA30004FEA3C0C04F101044FEA44529B
:1002A00012F5800F80F09A80BCF1004F08BF5FEA22
:1002B000500C50F1000041EB045141EA050130BD02
:1002C0005FEA4C0C404141EB010111F4801FA4F1A5
:1002D0000104E9D191F0000F04BF01460020B1FAFA
:1002E00081F308BF2033A3F10B03B3F120020CDA32
:1002F0000C3208DD02F1140CC2F10C0201FA0CF010
:1003000021FA02F10CE002F11402D8BFC2F1200C74
:1003100001FA02F120FA0CFCDCBF41EA0C0190402A
:10032000E41AA2BF01EB0451294330BD6FEA040473
:100330001F3C1CDA0C340EDC04F11404C4F120025E
:1003400020FA04F001FA02F340EA030021FA04F370
:1003500045EA030130BDC4F10C04C4F1200220FAC7
:1003600002F001FA04F340EA0300294630BD21FA05
:1003700004F0294630BD94F0000F83F4801306BFCB
:1003800081F480110134013D4EE77FEA645C18BFBF
:100390007FEA655C29D094EA050F08BF90EA020F56
:1003A00005D054EA000C04BF1946104630BD91EA4E
:1003B000030F1EBF0021002030BD5FEA545C05D151
:1003C0004000494128BF41F0004130BD14F5800490
:1003D0003CBF01F5801130BD01F0004545F0FE4104
:1003E00041F470014FF0000030BD7FEA645C1ABF39
:1003F000194610467FEA655C1CBF0B46024650EA70
:10040000013406BF52EA033591EA030F41F400219B
:1004100030BD00BF90F0000F04BF0021704730B521
:100420004FF4806404F132044FF000054FF00001F6
:1004300050E700BF90F0000F04BF0021704730B5B7
:100440004FF4806404F1320410F0004548BF40428C
:100450004FF000013EE700BF42004FEAE2014FEAE1
:1004600031014FEA02701FBF12F07F4393F07F4FBC
:1004700081F06051704732F07F4208BF704793F0BF
:100480007F4F04BF41F40021704730B54FF46074D2
:1004900001F0004521F000411CE700BF50EA0102D5
:1004A00008BF704730B54FF000050AE050EA01027E
:1004B00008BF704730B511F0004502D5404261EBEE
:1004C00041014FF4806404F132045FEA915C3FF42F
:1004D000D8AE4FF003025FEADC0C18BF03325FEACC
:1004E000DC0C18BF033202EBDC02C2F1200300FA7D
:1004F00003FC20FA02F001FA03FE40EA0E0021FAA2
:1005000002F11444BDE600BF70B54FF0FF0C4CF48F
:10051000E06C1CEA11541DBF1CEA135594EA0C0F41
:1005200095EA0C0F00F0DEF82C4481EA030621EA7C
:100530004C5123EA4C5350EA013518BF52EA0335B7
:1005400041F4801143F4801338D0A0FB02CE4FF069
:100550000005E1FB02E506F00042E0FB03E54FF099
:100560000006E1FB03569CF0000F18BF4EF0010E91
:10057000A4F1FF04B6F5007F64F5407404D25FEA8D
:100580004E0E6D4146EB060642EAC62141EA555140
:100590004FEAC52040EA5E504FEACE2EB4F1FD0C82
:1005A00088BFBCF5E06F1ED8BEF1004F08BF5FEA00
:1005B000500E50F1000041EB045170BD06F00046B2
:1005C00046EA010140EA020081EA0301B4EB5C045F
:1005D000C2BFD4EB0C0541EA045170BD41F4801157
:1005E0004FF0000E013C00F3AB8014F1360FDEBF7C
:1005F000002001F0004170BDC4F10004203C35DA58
:100600000C341BDC04F11404C4F1200500FA05F3DA
:1006100020FA04F001FA05F240EA020001F000427B
:1006200021F0004110EBD37021FA04F642EB0601F1
:100630005EEA430E08BF20EAD37070BDC4F10C041B
:10064000C4F1200500FA04F320FA05F001FA04F2DF
:1006500040EA020001F0004110EBD37041F10001CB
:100660005EEA430E08BF20EAD37070BDC4F12005D6
:1006700000FA05F24EEA020E20FA04F301FA05F23E
:1006800043EA020321FA04F001F0004121FA04F2E6
:1006900020EA020000EBD3705EEA430E08BF20EAB6
:1006A000D37070BD94F0000F0FD101F000464000F0
:1006B00041EB010111F4801F08BF013CF7D041EA72
:1006C000060195F0000F18BF704703F00046520076
:1006D00043EB030313F4801F08BF013DF7D043EA47
:1006E0000603704794EA0C0F0CEA135518BF95EAFD
:1006F0000C0F0CD050EA410618BF52EA4306D1D184
:1007000081EA030101F000414FF0000070BD50EAA2
:10071000410606BF1046194652EA430619D094EA2C
:100720000C0F02D150EA013613D195EA0C0F05D116
:1007300052EA03361CBF104619460AD181EA03016A
:1007400001F0004141F0FE4141F470014FF0000022
:1007500070BD41F0FE4141F4780170BD70B54FF0BD
:10076000FF0C4CF4E06C1CEA11541DBF1CEA13553D
:1007700094EA0C0F95EA0C0F00F0A7F8A4EB05041F
:1007800081EA030E52EA03354FEA013100F0888016
:100790004FEA03334FF0805545EA131343EA1263DF
:1007A0004FEA022245EA111545EA10654FEA002694
:1007B0000EF000419D4208BF964244F1FD0404F54D
:1007C000407402D25B084FEA3202B61A65EB0305A9
:1007D0005B084FEA32024FF480104FF4002CB6EB66
:1007E000020E75EB030E22BFB61A754640EA0C00E6
:1007F0005B084FEA3202B6EB020E75EB030E22BF26
:10080000B61A754640EA5C005B084FEA3202B6EB66
:10081000020E75EB030E22BFB61A754640EA9C0025
:100820005B084FEA3202B6EB020E75EB030E22BFF5
:10083000B61A754640EADC0055EA060E18D04FEAB3
:10084000051545EA16754FEA06164FEAC30343EA53
:1008500052734FEAC2025FEA1C1CC0D111F4801F20
:100860000BD141EA00014FF000004FF0004CB6E719
:1008700011F4801F04BF01430020B4F1FD0C88BFB8
:10088000BCF5E06F3FF6AFAEB5EB030C04BFB6EBC3
:10089000020C5FEA500C50F1000041EB045170BDB6
:1008A0000EF0004E4EEA113114EB5C04C2BFD4EBE3
:1008B0000C0541EA045170BD41F480114FF0000E67
:1008C000013C90E645EA060E8DE60CEA135594EAE3
:1008D0000C0F08BF95EA0C0F3FF43BAF94EA0C0FE6
:1008E0000AD150EA01347FF434AF95EA0C0F7FF45B
:1008F00025AF104619462CE795EA0C0F06D152EAAF
:1009000003353FF4FDAE1046194622E750EA410692
:1009100018BF52EA43067FF4C5AE50EA41047FF4A3
:100920000DAF52EA43057FF4EBAE12E7034613F82E
:10093000012B002AFBD1181A013870470000000073
:1009400001F0FF01102A2BDB10F0070F08D010F880
:10095000013B013A8B422DD010F0070F42B3F6D184
:10096000F0B441EA012141EA014122F007047FF09D
:1009700000070023F0E80256083C85EA010586EAF4
:10098000010685FA47F5A3FA87F586FA47F6A5FA30
:1009900087F68EB9EED1F0BC01F0FF0102F007023C
:1009A00032B110F8013B013A83EA010313B1F8D1E7
:1009B0000020704701387047002D06BF35460338C8
:1009C000073815F0010F07D1013015F4807F02BF01
:1009D000013015F4C03F0130F0BC0138704700BF52
:1009E0004FF0FF3C06E000BF4FF0010C02E000BFFB
:1009F0004FF0010C4DF804CD4FEA410C7FEA6C5CDE
:100A00004FEA430C18BF7FEA6C5C1BD001B050EA80
:100A1000410C0CBF52EA430C91EA030F02BF90EA6B
:100A2000020F0020704710F1000F91EA030F58BF2A
:100A3000994208BF90422CBFD8176FEAE37040F08C
:100A4000010070474FEA410C7FEA6C5C02D150EA2A
:100A5000013C07D14FEA430C7FEA6C5CD6D152EAE5
:100A6000033CD3D05DF8040B704700BF84461046AA
:100A700062468C461946634600E000BF01B5FFF7A9
:100A8000B7FF002848BF10F1000F01BD4DF808ED79
:100A9000FFF7F4FF0CBF012000205DF808FB00BF4A
:100AA0004DF808EDFFF7EAFF34BF012000205DF8A4
:100AB00008FB00BF4DF808EDFFF7E0FF94BF0120F1
:100AC00000205DF808FB00BF4DF808EDFFF7CEFFF2
:100AD00094BF012000205DF808FB00BF4DF808ED31
:100AE000FFF7C4FF34BF012000205DF808FB00BF02
:100AF0004FEA410C7FEA6C5C02D150EA013C0AD11A
:100B00004FEA430C7FEA6C5C02D152EA033C02D10B
:100B10004FF0000070474FF0010070474FEA41026C
:100B200012F5001215D211D56FF47873B3EB62523F
:100B300012D94FEAC12343F0004343EA505311F066
:100B4000004F23FA02F018BF404270474FF00000F8
:100B5000704750EA013005D111F0004008BF6FF036
:100B6000004070474FF00000704700BF0348044B3F
:100B7000834202D0034B03B118477047680300203B
:100B8000680300200000000005480649091A891082
:100B900001EBD171491002D0034B03B118477047E4
:100BA00068030020680300200000000010B5064C18
:100BB000237843B9FFF7DAFF044B13B10448AFF3CE
:100BC00000800123237010BD680300200000000096
:100BD0005C84000808B5054B1BB105490548AFF317
:100BE0000080BDE80840FFF7CFBF00BF0000000055
:100BF0006C0300205C840008DFF834D0002103E09F
:100C00000C4B5B58435004310B480C4B42189A4232
:100C1000F6D30B4A02E0002342F8043B094B9A4208
:100C2000F9D300F053FE05F0AFFB00F03DFCFEE70A
:100C30000000012028880008000000206803002030
:100C40006803002030180020FEE7000070B50E4653
:100C5000400000F03E04012202214FF0904002F0DB
:100C6000B6F8002204214FF0904002F0B0F80A4D8F
:100C70000A2301222146284604F009F80A2301220A
:100C80003146284604F003F8012204214FF0904039
:100C900002F09DF870BD00BFF405002070B582B071
:100CA0000446002602AD05F8016D012202214FF035
:100CB000904002F08CF8324604214FF0904002F050
:100CC00086F8610001F03E010B4C0A23012241F03D
:100CD0004001204603F0DBFF052301222946204680
:100CE00004F02AFA012204214FF0904002F06FF83C
:100CF0009DF8070002B070BDF4050020114B1B6881
:100D0000196A41F21112114208D1196A40F24442A3
:100D1000114203D11A6822F001021A60094A1368CD
:100D200000215962D862D0606FF001021A611A681E
:100D300042F001021A60034B1B681B6913F0010F9C
:100D4000F9D07047B4050020A94B1B78834200F00E
:100D50004D8110B580281DD0602800F08880402883
:100D600000F0F280202840F03681002B40F02881EE
:100D7000A04B93F9001001F01F0141F02001002069
:100D8000FFF764FF41F28830FFF7B8FF984B20224D
:100D90001A7040E0A3B1202B3ED0402B58D0602BDE
:100DA00036D1944B93F9001001F01F0141F08001FE
:100DB0000020FFF74BFF4FF4FA70FFF79FFF27E08B
:100DC0008C4C94F9001001F01F0141F0200100202B
:100DD000FFF73CFF41F28830FFF790FF94F90010D5
:100DE00001F01F0141F040010020FFF72FFF4FF4F9
:100DF0004870FFF783FF94F9001001F01F0141F0E4
:100E000080010020FFF722FF4FF4FA70FFF776FF12
:100E1000774B80221A7010BD764C94F9001001F0C7
:100E20001F0141F040010020FFF710FF4FF4487010
:100E3000FFF764FF94F9001001F01F0141F08001F9
:100E40000020FFF703FF4FF4FA70FFF757FFDFE7CB
:100E5000684B93F9001001F01F0141F08001002060
:100E6000FFF7F4FE4FF4FA70FFF748FFD0E7A3B1A5
:100E7000202B3ED0402B58D0802B36D15D4B93F9A0
:100E8000001001F01F0141F060010020FFF7DEFEBD
:100E90004FF4FA70FFF732FF27E0564C94F9001038
:100EA00001F01F0141F020010020FFF7CFFE41F2C9
:100EB0008830FFF723FF94F9001001F01F0141F083
:100EC00040010020FFF7C2FE4FF44870FFF716FF05
:100ED00094F9001001F01F0141F060010020FFF7BC
:100EE000B5FE4FF4FA70FFF709FF414B60221A700C
:100EF00091E7404C94F9001001F01F0141F04001CE
:100F00000020FFF7A3FE4FF44870FFF7F7FE94F9B7
:100F1000001001F01F0141F060010020FFF796FE74
:100F20004FF4FA70FFF7EAFEDFE7324B93F9001057
:100F300001F01F0141F060010020FFF787FE4FF430
:100F4000FA70FFF7DBFED0E77BB1202B29D0294BCD
:100F500093F9001001F01F0141F040010020FFF75C
:100F600075FE234B40221A7055E7224C94F900106D
:100F700001F01F0141F020010020FFF767FE41F260
:100F80008830FFF7BBFE94F9001001F01F0141F01B
:100F900040010020FFF75AFE4FF44870FFF7AEFE05
:100FA000DFE7144B93F9001001F01F0141F04001FD
:100FB0000020FFF74BFE4FF44870FFF79FFED0E78D
:100FC0000C4B93F9001001F01F0141F020010020AB
:100FD000FFF73CFEDAE6074B197801F01F0100200D
:100FE000FFF734FE024B00221A7014E7704700BF6F
:100FF000000000200400002030B587B0002413E07A
:10100000601C1C4B595DC0B2FFF720FE4FF47A7094
:10101000FFF774FEE0B2FFF741FE0246164901A851
:1010200005F036FE0134A4B22546631C1F2B10DCEC
:10103000104B1A5D114901A805F02AFE01A800F025
:10104000D3FC132CDCD80B4B595DE0B2FFF7FEFD4F
:10105000DCE7084B997CC1F3C1010131002301E0B9
:1010600001339BB28AB29A42FAD80020FFF76CFE95
:1010700007B030BD04000020848400087884000894
:10108000F0B58BB0444BDA6C42F00402DA64DA6CEF
:1010900002F004020192019ADA6C42F08002DA64F2
:1010A000DA6C02F080020292029ADA6C42F00102DB
:1010B000DA64DA6C02F001020392039ADA6C42F00D
:1010C0000202DA64DB6C03F002030493049B002247
:1010D00006214FF0904001F07AFE304D002241F29F
:1010E0003001284601F073FE4FF4005305930024AD
:1010F000069407942A4F05A9384601F097FD4FF44E
:101100004043059303260696079405A9384601F047
:101110008DFD0B2305930696079405A9214801F040
:1011200085FD012705970694079405A94FF0904087
:1011300001F07CFD0623059306970794089405A902
:101140004FF0904001F072FD48F218130593069697
:10115000079405A94FF0904001F068FD4AF2CD03D5
:1011600005930696079405A9284601F05FFD40F215
:10117000023305930694079405A9284601F056FD0D
:1011800041F23003059306970794089405A9284671
:1011900001F04CFD0BB0F0BD00100240000400480F
:1011A00000080048001C0048FEE7000008B515488C
:1011B000154B0360154B4360002383600122C2601E
:1011C000036143618361C361036201F016FF50B99B
:1011D00000210C4802F02EF850B90021094802F015
:1011E00057F850B908BD40F233110948FFF7DCFF4A
:1011F0004FF49D710648FFF7D7FF40F241110448B4
:10120000FFF7D2FFBC06002000540040EC9C901079
:101210009084000808B51248124B03604FF48273A3
:1012200043604FF4806383604FF4E063C360002346
:10123000036143614FF4007282612822C26103623C
:10124000436283620722C26203630823436303F09D
:10125000C6FC00B908BD40F275110348FFF7A4FFB2
:1012600058060020003800409084000808B5114856
:10127000114B03604FF482734360002383604FF48B
:10128000E062C260036143614FF400728261302208
:10129000C2610362436283620722C262036308235E
:1012A000436303F09CFC00B908BD40F25B110348A6
:1012B000FFF77AFFF4050020003001409084000819
:1012C00000B58FB027484FF0804303604F23436041
:1012D000002383604FF47A72C2600361836104F07B
:1012E00077F930BB0EA94FF4805341F8103D1D48EB
:1012F00004F082FA10BB1B4804F083F918BB0023EA
:101300000793099307A9174804F02EFB00BB60233D
:10131000009300230193029304930C226946114821
:1013200004F0C4F9C8B90F4800F0A0FA0FB05DF896
:1013300004FB4FF4C5710C48FFF736FF4FF4C8713A
:101340000948FFF731FF40F295110748FFF72CFFDE
:101350004FF4CE710448FFF727FF40F2A511024871
:10136000FFF722FF080700209084000800B585B031
:101370001148124B0360502343600023836041F205
:101380008832C260836104F023F950B900230193CD
:10139000039301A9084804F0E7FA38B905B05DF8ED
:1013A00004FB40F2B9110648FFF7FEFE4FF4E0716E
:1013B0000348FFF7F9FE00BFB4050020001000400D
:1013C0009084000800B5AFB010231D930122239232
:1013D00000232493602325930223279328922992A4
:1013E00028222A9207222B922C932D931DA802F0DB
:1013F000FBFC00283FD10F231893032319930023EC
:101400001A931B931C93042118A802F0C7FF00280D
:1014100035D14FF40153009300230C934FF08063B8
:101420001293012301930293182303930723049338
:101430000223059306934FF480130793684603F045
:1014400013F900BB4FF4007002F0CAFB00BB03F0BD
:101450004FF8124BA3FB0030800901F0BBFB0420C6
:1014600001F0CEFB002211464FF0FF3001F072FB7D
:101470002FB05DF804FBF1210948FFF795FEFF212D
:101480000748FFF791FE4FF487710548FFF78CFE80
:1014900040F215110248FFF787FE00BFD34D6210DE
:1014A000908400080000000010B592B001F012FB1B
:1014B000FFF788FFFFF7E4FD00F026FAFFF776FE5E
:1014C000FFF7A8FEFFF7D2FEFFF7FAFEFFF74EFF89
:1014D000654C01221021204601F079FC01222021D7
:1014E000204601F074FC012202214FF0904001F0EF
:1014F0006EFC012204214FF0904001F068FC0C21A9
:101500005A4804F005FA5A4804F00EF800231193E3
:10151000584800F069FAFFF76FFD25E032220021FC
:1015200004A804F060FF9DF844309DF8454024096C
:1015300004EB0314B4F5006F01D3A4F580542246E4
:101540004D4904A805F0A4FB69E04C4800F04CFAB2
:10155000452C73DC4A4800F047FA444B1B680022D4
:101560001A64012001F0D4FA4FF47A7001F0D0FA35
:10157000444B19780F230093032303AA49004248E0
:1015800001F09AFD9DF80C309DF80D0000EB032052
:1015900000B2FEF74FFF00223C4BFEF7B5FF2CA335
:1015A000D3E90023FFF7DAF82BA3D3E90023FEF7F2
:1015B000F3FD0022364BFEF7A7FF0022354BFEF766
:1015C000A3FF27A3D3E90023FFF7C8F802460B4681
:1015D000314904A805F05CFB04A800F005FA224C90
:1015E00000221021204601F0F2FB0422002111A864
:1015F00004F0F9FE0A23042211A9284803F09CFDF7
:1016000001221021204601F0E2FB9DF8473013F043
:10161000010F83D0224800F0E7F94FF4FA74022159
:10162000114801F0CDFB00288FD11E4800F0DCF9F5
:101630000E4B1B684FF47A721A6495E71A4800F053
:10164000D3F90A4B1B684FF47A721A648CE700BF17
:1016500000000000C0FFDF40295C8FC2F528DC3F9E
:10166000AC8C463EAF78A23F00040048080700203B
:10167000B4050020A0840008D4840008E884000891
:10168000F884000823000020BC060020000014405D
:101690000000D03F00002E40B08400085806002013
:1016A000BC840008DC8400080485000800B583B011
:1016B000214B1A6E42F001021A661A6E02F0010204
:1016C0000092009A9A6D42F080529A659B6D03F0E9
:1016D00080530193019B032001F02AFA0022114656
:1016E0006FF00B0001F036FA002211466FF00A008D
:1016F00001F030FA002211466FF0090001F02AFAD9
:10170000002211466FF0040001F024FA0022114675
:101710006FF0030001F01EFA002211466FF0010085
:1017200001F018FA002211464FF0FF3001F012FAD2
:1017300003B05DF804FB00BF001002400268124BCA
:101740009A4200D0704700B587B04FF4C063019350
:101750001223029301230393032304930423059389
:101760000DEB03014FF0904001F060FA074B9A6DCA
:1017700042F400129A659B6D03F400130093009BE2
:1017800007B05DF804FB00BF0054004000100240A9
:1017900000B589B003681E4A934205D01D4A9342A2
:1017A0001CD009B05DF804FB1B4B1A6E42F480524A
:1017B0001A661B6E03F480530193019BE02303938D
:1017C0000223049300230593032306930523079321
:1017D00003A94FF0904001F029FAE2E70E4B9A6D11
:1017E00042F480429A659B6D03F480430293029B0E
:1017F0004FF48843039302230493002305930323A8
:1018000006930523079303A9044801F00FFAC8E7DC
:101810000030014000380040001002400004004841
:1018200082B00368B3F1804F04D00E4A93420DD0CA
:1018300002B0704703F504339A6D42F001029A65D5
:101840009B6D03F001030093009BF1E7064B9A6D3B
:1018500042F010029A659B6D03F010030193019B07
:10186000E6E700BF00100040001002400368B3F13B
:10187000804F00D0704700B587B04FF400630193EC
:10188000022302930023039304930123059301A9E8
:10189000024801F0CBF907B05DF804FB00040048F2
:1018A0007047FEE7FEE7FEE7FEE7704770477047C8
:1018B00008B501F01FF901F0B4F908BD08B50248F8
:1018C00001F0F1FF08BD00BFB41100200C4B1A68F5
:1018D00042F001021A60002199601A6822F0A852B1
:1018E00022F410221A604FF48052DA601A6822F44F
:1018F00080221A609961034B4FF000629A60704732
:101900000010024000ED00E010B50B4C00220B4926
:10191000204600F063FA0A49204600F076FA0949A9
:10192000204601F075F8204600F0E7F900B910BD37
:10193000204600F071FAFAE7480700204000002036
:1019400084000020300000200020704720280ED1A5
:10195000084B1A780A705A784A709A788A70DA783E
:10196000CA701A790A715A794A719B798B71002071
:10197000704700BF2800002010B5054C01462046E6
:1019800001F055F8204601F072F8002010BD00BFAC
:101990004807002010B5064C00220649204601F0F9
:1019A0003EF80549204601F042F8002010BD00BF76
:1019B00048070020CC0D0020E4090020094BD3F893
:1019C0009032D3F814320BB10120704710B50A469B
:1019D0000146044C204601F022F8204601F02DF883
:1019E00010BD00BF4807002038B505464FF4FA7413
:1019F000002C0ADD2846FEF799FF81B22846FFF742
:101A0000DDFF012801D1013CF2E738BD08B5FFF741
:101A1000D9FC08BD02680E4B9A4200D0704700B551
:101A200083B003F5D4339A6D42F080629A659B6D62
:101A300003F080630193019B00221146432001F0D3
:101A400089F8432001F0BAF803B05DF804FB00BF49
:101A50000068004008B500F58661D0F8700400F019
:101A6000F4F908BD08B500EB4113D3F83C22D0F8D7
:101A7000700400F017FA08BD08B500EB4113DA6BEB
:101A8000D0F8700400F054FA08BD08B5D0F870041E
:101A900000F0F1FA08BD10B504460121D0F8700439
:101AA00000F0D7FAD4F8700400F0ABFA10BD0000D3
:101AB00010B50446D0F8700400F0CEFAA36923B143
:101AC000024A136943F00603136110BD00ED00E004
:101AD00010B50446836923B9D4F8700400F0C5FA40
:101AE00010BD044A136923F006031361FFF78EFF4C
:101AF000F2E700BF00ED00E010B5044602F0B8F8D0
:101B00002048C0F87044C4F898021F4B03600823B3
:101B10004360022282600023C360026143618361EB
:101B2000C361036201F0E0FB30BB182300221146C1
:101B3000D4F8980202F00DF8582300228021D4F83E
:101B4000980202F006F8C02300228121D4F89802FE
:101B500001F0FFFF4FF4887300220121D4F89802AE
:101B600001F0F7FF4FF4807300228221D4F898022D
:101B700001F0EFFF002010BD40F23D110348FFF7D8
:101B800013FBD2E7B4110020006800405085000824
:101B900008B5D0F8980201F021FC18B1022803D052
:101BA000022008BD0020FCE70120FAE710B51C4622
:101BB00013462246D0F8980201F039FC18B10228E9
:101BC00003D0022010BD0020FCE70120FAE708B591
:101BD000D0F8980201F063FC18B1022803D002206B
:101BE00008BD0020FCE70120FAE708B5D0F898020C
:101BF00001F048FF18B1022803D0022008BD0020E0
:101C0000FCE70120FAE708B5D0F8980201F071FF6F
:101C100018B1022803D0022008BD0020FCE70120F3
:101C2000FAE7D0F8983211F0800F06D101F07F0169
:101C300003EB411191F82A02704701F07F0103EB99
:101C4000411191F82A00704708B5D0F8980201F0C8
:101C5000DAFB18B1022803D0022008BD0020FCE7FF
:101C60000120FAE708B5D0F8980201F06CFC18B131
:101C7000022803D0022008BD0020FCE70120FAE77B
:101C800008B5D0F8980201F038FC18B1022803D04A
:101C9000022008BD0020FCE70120FAE708B5D0F8D3
:101CA000980201F049FC08BD10B5044611B10129A4
:101CB0000FD010BD836923B9D4F8700400F0D5F9B2
:101CC000F7E7FFF77FFB094A136923F00603136167
:101CD000F2E7D0F8700400F0BFF9A369002BE8D058
:101CE000024A136943F006031361E2E700ED00E0E6
:101CF00000487047840300207047D0F898321B6A70
:101D0000012B01D1002070470220704712230B8065
:101D1000004870476C00002004230B800048704787
:101D2000800000200C230B800048704760000020DA
:101D300008B50A4628B10549054800F0BFFC03482C
:101D400008BD0249024800F0B9FCF8E72816002057
:101D50009485000810B5044C0A462146034800F05B
:101D6000ADFC204610BD00BF28160020808500086D
:101D700008B50A4628B10549054800F09FFC03480C
:101D800008BD0249024800F099FCF8E72816002037
:101D9000AC85000808B50A4628B10549054800F099
:101DA0008DFC034808BD0249024800F087FCF8E7B3
:101DB000281600206485000808B50A4628B10549A0
:101DC000054800F07BFC034808BD0249024800F0CA
:101DD00075FCF8E7281600207085000898B108B552
:101DE0000346D0F88C0210B10020C3F88C0209B170
:101DF000C3F888121846012380F874320270FFF786
:101E00007BFE002008BD0220704719B1C0F88C127B
:101E1000002070470220704708B5FFF7B9FE002088
:101E200008BD08B5D0F88C3233B11B68984708B9A3
:101E3000002008BD0220FCE70220FAE708B5D0F830
:101E40008C325B689847002008BD38B5044600F521
:101E50002075284600F031F90123C4F86C32B4F83B
:101E60008632C4F8703294F8801201F01F03012BFF
:101E70000ED03BB1022B10D001F080012046FFF7BD
:101E8000B4FE03E02946204600F0AFFA002038BD3A
:101E90002946204600F0DDFAF8E72946204600F002
:101EA00008FBF3E710B5044689BB1046D4F86C3242
:101EB000032B03D0052B24D0002034E0D4F84C3180
:101EC000D4F8502193420DD99B1AC4F84C319A4250
:101ED00006D99AB20146204600F030FC002022E0EC
:101EE00092B2F7E7D4F88C321B692BB194F87422C4
:101EF000032A01D120469847204600F027FC002005
:101F000011E000212046FFF770FE00200BE00A469A
:101F1000D0F88C329B693BB190F87412032905D13B
:101F200011469847002010BD0220FCE70220FAE786
:101F300010B50446002953D11046D4F86C32022B58
:101F40000CD0042B00D01BB980212046FFF74DFE9A
:101F500094F87832012B3FD000204DE0236A626A6A
:101F600093421DD8E169B1FBF2F302FB13132BB9C5
:101F70008A4203D8D4F8703299421FD3D4F88C32F5
:101F8000DB682BB194F87422032A01D120469847CC
:101F900080212046FFF729FE204600F0E2FBD7E72C
:101FA0009A1A226292B20146204600F0B0FB00234A
:101FB0001A4619462046FFF763FEC9E7002211467C
:101FC000204600F0A4FB0021C4F870120B460A461C
:101FD0002046FFF755FEBBE7002084F878020BE0AF
:101FE0000A46D0F88C325B693BB190F87412032931
:101FF00005D111469847002010BD0220FCE70220C1
:10200000FAE770B50446402300221146FFF7CEFDE3
:102010000125C4F844514026C4F8506133460022DB
:1020200080212046FFF7C2FDA561666284F87452E4
:102030000023C4F86C326360C4F87C32D4F8903268
:102040002BB1D4F88C325B680021204698470020E1
:1020500070BD01740020704790F8743280F87532BA
:10206000042380F874320020704790F8753280F8AD
:1020700074320020704708B590F87432032B01D0F9
:10208000002008BDD0F88C32DB69002BF8D09847CF
:10209000F6E7002302E00133DBB201300278002AC8
:1020A000F9D11846704708B54B88012B00D008BD00
:1020B000C0F87C3200F04AFBF9E70B7803704B78EC
:1020C00043708B78CA7803EB022343800B794A79FB
:1020D00003EB022383808B79CA7903EB0223C3804D
:1020E000704710B504468021FFF77FFD0021204690
:1020F000FFF77BFD10BD30B583B005460C464A881E
:10210000130A013B0E2B00F29180DFE803F01B2342
:10211000378F8F73808F8F8F8F8F8F8F0800D0F8BE
:102120008832DB690DF10601007C9847BDF8062076
:1021300012B1E388002B7DD1E388002B00F084806E
:1021400003B030BDD0F888321B680DF10601007C69
:102150009847EBE7037C43B9D0F88C329B6A0DF1CA
:102160000600984702234370E0E7D0F88C32DB6A20
:102170000DF10600984702234370D7E7D2B2052A33
:1021800034D8DFE802F0030B131B232BD0F888327E
:102190005B680DF10601007C9847C7E7D0F88832EC
:1021A0009B680DF10601007C9847BFE7D0F88832A4
:1021B000DB680DF10601007C9847B7E7D0F888325C
:1021C0001B690DF10601007C9847AFE7D0F8883213
:1021D0005B690DF10601007C9847A7E7D0F88832CB
:1021E0009B690DF10601007C98479FE72146FFF7A8
:1021F00078FFA5E7037C33B9D0F88C325B6B0DF127
:102200000600984792E72146FFF76BFF98E7037CAB
:1022100043B9D0F88C321B6B0DF1060098470723A9
:10222000437083E72146FFF75CFF89E72146FFF70C
:1022300058FF85E79A4228BF1A46ADF806200146A6
:10224000284600F057FA77E7284600F07FFA77E74C
:1022500038B504468B88F3B9CB88E3B94B887F2B1C
:1022600019D803F07F0590F87432032B0CD080F856
:1022700076522946FFF7E8FC204600F067FA35B1B0
:10228000022384F8743209E0FFF72BFF06E00123F4
:1022900084F8743202E02046FFF723FF38BD0000C7
:1022A00038B504460D468978284B197001290ED897
:1022B00090F87432022B0ED0032B21D02946FFF761
:1022C00010FF224B19782046FFF7B8FD02E029469F
:1022D000FFF707FF38BD81B14160032380F87432F6
:1022E000FFF79FFD022803D0204600F02FFAF1E708
:1022F00029462046FFF7F5FEECE700F027FAE9E76C
:1023000089B1436899421DD0D9B2FFF797FD0F4BB1
:10231000197861602046FFF784FD02280DD0204621
:1023200000F014FAD6E7022380F874324160FFF718
:1023300085FD204600F00AFACCE729462046FFF743
:10234000D0FEC7E700F002FAC4E700BFA4050020F2
:1023500008B5CB88012B0BD190F874329BB1022BBE
:1023600009D9032B0FD10122011D00F0C3F901E0AF
:10237000FFF7B7FE08BD0146002341F8083F0122E0
:1023800000F0B8F9F6E7FFF7ACFEF3E708B590F810
:102390007432013B022B12D8CB88022B0CD10123C3
:1023A000C360D0F87C320BB10323C360022200F17A
:1023B0000C0100F09FF908BDFFF793FEFBE7FFF764
:1023C00090FEF8E708B590F87432013B022B09D86B
:1023D0004B88012B00D008BD0023C0F87C3200F0F0
:1023E000B5F9F8E7FFF77DFEF5E708B50B7803F0E0
:1023F0006003202B05D0402B03D043B1FFF771FEC3
:1024000003E0D0F88C329B689847002008BD4B78D9
:10241000092B1BD8DFE803F011171A141A08051A44
:102420000E0BFFF768FEF0E7FFF712FFEDE7FFF78F
:1024300037FFEAE7FFF78CFFE7E7FFF7A7FFE4E7DF
:10244000FFF731FEE1E7FFF7BDFFDEE7FFF749FEEB
:10245000DBE738B505460C460B7803F06003202B0C
:1024600006D0402B04D01BB1FFF73BFE002038BD47
:1024700095F87432013B022B16D82379012B0ED824
:10248000D5F88C329B68214628469847E388002B74
:10249000ECD10028EAD1284600F058F9E6E72146B9
:1024A0002846FFF71EFEE1E721462846FFF719FE02
:1024B000DCE738B504468A880B7803F06003202BEC
:1024C00008D0D0B2402B05D05BB12046FFF709FE03
:1024D000002005E0D4F88C329B6820469847002005
:1024E00038BD202B05D1D4F88C329B682046984704
:1024F000F6E74B78012B32D0002B5ED0032B40F057
:10250000D68094F87432022B06D0032B16D02046C6
:10251000FFF7E7FD0020E3E708B1802804D120465B
:10252000FFF7DFFD0020DBE701462046FFF75DFBFC
:1025300080212046FFF759FB0020D1E74B8823B9C3
:1025400018B1802801D0CB8823B1204600F0FEF8D6
:102550000020C5E701462046FFF747FBF5E794F862
:102560007432022B06D0032B16D02046FFF7B9FD9C
:102570000020B5E708B1802804D12046FFF7B1FD5F
:102580000020ADE701462046FFF72FFB80212046C3
:10259000FFF72BFB0020A3E74B88002B40F08C803B
:1025A00010F07F0F04D1204600F0D0F8002097E70C
:1025B00001462046FFF727FBF5E794F87432022B1B
:1025C00006D0032B29D02046FFF78BFD002087E79C
:1025D00008B1802812D112F0800F14D100F07F00D2
:1025E00000EB8000830003F5A073E11800250D6067
:1025F0000222204600F07EF8284671E72046FFF7C9
:1026000070FD00206CE700F07F0000EB800083008D
:1026100003F1100121440431E8E752B2002A1EDB25
:1026200000F00F0303EB83039D002544D5F84431EC
:102630001BB3002A26DB00F07F0202EB820293002C
:1026400003F5A073E51808B1802825D100232B607D
:1026500002222946204600F04DF8002040E700F015
:102660000F0303EB83039D002544AB69002BE0D1EE
:102670002046FFF736FD002032E72046FFF731FD08
:1026800000202DE700F07F0202EB8202930003F1AD
:10269000100525440435D6E701462046FFF7C1FA68
:1026A00010B101232B60D3E700232B60D0E7204635
:1026B000FFF717FD002013E7002011E7C8B170B540
:1026C0000D4616460446FFF7E4FC0130400030801A
:1026D000287003236B70022307E001345A1CD2B226
:1026E000E9540233DBB20021A95421780029F4D146
:1026F00070BD704710B513460222C0F86C22C3614A
:1027000003620A460021FFF7ADFA002010BD08B5AC
:1027100013460A460021FFF7A5FA002008BD10B5B0
:1027200013460322C0F86C22C0F84831C0F84C317F
:102730000A460021FFF7A4FA002010BD08B5134691
:102740000A460021FFF79CFA002008BD08B50423C3
:10275000C0F86C3200231A461946FFF783FA0020AE
:1027600008BD08B50523C0F86C3200231A46194687
:10277000FFF786FA002008BD10B5D0F89042D0F8D7
:1027800094325BB194F80002FF2807D09B6894F85C
:10279000012221469847FF2384F80032002010BD13
:1027A0004323038000487047BC000020432303807C
:1027B0000048704700010020432303800048704711
:1027C000500100200A230380004870474401002084
:1027D00038B50446D0F89052FFF760FAC5F80C02FD
:1027E000D4F890324BB1D4F89432DB6805F503711C
:1027F000D5F804029847002038BD0220FCE738B520
:10280000D0F89022D0F89852EAB101EB8104A300ED
:102810000344DB693BB105EB4115AD6BB3FBF5F44C
:1028200005FB14331BB10020C2F8140238BD01EBC4
:102830008102930003440024DC6123462246FFF713
:1028400011FA2046F2E70220F0E770B582B00546A3
:102850000C46D0F8906200238DF80730ADF80430B4
:102860000B7813F0600227D0202A56D1CA883AB9D3
:10287000D0F894329B6800224878984700204FE0B7
:1028800013F0800F0CD0D0F894329B6831466078FA
:102890009847E28831462846FFF72CFF00203FE0AA
:1028A0004B7886F800328B7986F80132CA88314637
:1028B000FFF735FF002033E04B780A2B14D00B2BA9
:1028C00021D01BB1FFF70DFC022029E090F87432F3
:1028D000032B05D1022201A9FFF70CFF00201FE006
:1028E000FFF7FFFB02201BE090F87432032B06D1A8
:1028F00001220DF10701FFF7FDFE002010E0FFF7B8
:10290000F0FB02200CE090F87432032B01D1002080
:1029100006E0FFF7E6FB022002E0FFF7E2FB022001
:1029200002B070BD38B504468121FFF750F900258B
:10293000E56201212046FFF74AF9C4F85851822187
:102940002046FFF744F92564D4F890324BB1D4F80F
:1029500094325B689847D4F89002FFF7CDF9C4F839
:102960009052002038BD38B50446037CA3BB4FF419
:10297000007302228121FFF719F90125E5624FF466
:102980000073022229462046FFF710F9C4F8585177
:102990000823032282212046FFF708F9012323643C
:1029A0004FF40770FFF7A4F90546C4F8900268B326
:1029B000D4F894321B6898470023C5F81432C5F840
:1029C0001832237CC3B14023D5F8042201212046CC
:1029D000FFF756F9002038BD402302228121FFF77E
:1029E000E5F80125E5624023022229462046FFF74B
:1029F000DDF8C4F85851CBE74FF40073D5F8042242
:102A000001212046FFF73CF90020E4E70120E2E73E
:102A100019B1C0F894120020704702207047D0F816
:102A20009032C3F80812C3F8102200207047D0F883
:102A30009032C3F8041200207047D0F89022A2B15F
:102A400008B5D2F814320BB1012008BD0123C2F839
:102A50001432D2F810320363B2F81032D2F80822DE
:102A60008121FFF7FFF80020EFE702207047D0F840
:102A700090229AB108B5037C3BB14023D2F80422DE
:102A80000121FFF7FDF8002008BD4FF40073D2F8D4
:102A900004220121FFF7F4F80020F5E70220704737
:102AA00010B50446094B1868094BA3FB0030800998
:102AB00000F090F808B1012010BD002221464FF02F
:102AC000FF3000F047F80020F6E700BF24000020A8
:102AD000D34D621010B5032000F02AF80020FFF754
:102AE000DFFF10B10124204610BD0446FEF7DEFDD5
:102AF000F9E70000024A136801331360704700BF12
:102B000028180020014B1868704700BF28180020C3
:102B100038B50446FFF7F6FF0546B4F1FF3F00D095
:102B20000134FFF7EFFF401BA042FAD338BD00008D
:102B3000074AD36823F4E0631B041B0C000200F473
:102B4000E060184340F0BF6040F40030D060704750
:102B500000ED00E030B4174BDB68C3F30223C3F190
:102B60000704042C28BF04241D1D062D18D9033B7F
:102B70004FF0FF3505FA04F421EA0401994005FA03
:102B800003F322EA0303194300280BDB0901C9B24E
:102B900000F1604000F5614080F8001330BC7047E0
:102BA0000023E5E700F00F000901C9B2024B1954F8
:102BB000F4E700BF00ED00E014ED00E000F01F02BC
:102BC000400901239340024A42F82030704700BF79
:102BD00000E100E00138B0F1807F0AD2064B586076
:102BE000064AF02182F823100020986007221A601C
:102BF00070470120704700BF10E000E000ED00E0EA
:102C0000042805D0054A136823F0040313607047B5
:102C1000024A136843F004031360704710E000E0B9
:102C2000704708B5FFF7FCFF08BD0000F0B482B0A4
:102C3000002336E0042400E00024B4403C43023585
:102C40005B4E46F825405B4C2568D44304EA0506F4
:102C50004F6817F4803F01D042EA0506554D2E60BB
:102C60006D6804EA05064F6817F4003F01D042EA98
:102C70000506504D6E60AD6804EA05064F6817F40E
:102C8000801F01D042EA05064A4DAE60ED682C4037
:102C90004E6816F4001F01D042EA0504454AD4608C
:102CA00001330A6832FA03F47ED001249C402240AA
:102CB000F6D04D68022D01D0122D10D1DE08083655
:102CC00050F826C003F00705AF000F25BD402CEAE1
:102CD000050C0D69BD4045EA0C0540F82650066814
:102CE0005F000325BD40ED4305EA060C4E6806F083
:102CF0000306BE4046EA0C0606604E6806F1FF3C3D
:102D0000BCF1010F03D9112E01D0122E10D186680B
:102D100005EA060CCE68BE4046EA0C0686604668A8
:102D200026EA04044E68C6F300169E402643466019
:102D3000C46825408C68BC402C43C4604C6814F0C7
:102D4000805FADD01C4C256E45F001052566246ED4
:102D500004F001040194019C9D08AE1C144C54F82D
:102D6000267003F00304A6000F24B44027EA0407EA
:102D7000B0F1904F3FF460AF104CA0420ED004F57C
:102D80008064A0420CD004F58064A0420AD004F50F
:102D90008064A0423FF44EAF07244EE701244CE785
:102DA00002244AE7032448E702B0F0BC704700BFA2
:102DB00000000140000401400010024000040048EF
:102DC0000369194201D100207047012070470AB9F8
:102DD000816270478161704703689A6912F0020F3F
:102DE00001D000229A6203689A6912F0010F03D1A0
:102DF0009A6942F001029A61704770B4039E0568B7
:102E00006868740D04F4806444F07F7444F45834AA
:102E100044F47F7444F0030420EA0400C1F3090180
:102E200041EA0241194331430143696070BC704774
:102E300070B504460D46164603689B6913F0100FE3
:102E40001CD023689A6912F0200F19D1B5F1FF3F09
:102E5000F7D0FFF757FE801BA84201D8002DF0D114
:102E6000636C43F020036364202384F84130002323
:102E700084F8423084F84030012020E000201EE039
:102E80001022DA6123682025DD612046FFF7A4FFC8
:102E90002268536823F0FF7323F48B3323F4FF730A
:102EA00023F001035360636C43F00403636484F80C
:102EB0004150002384F8423084F84030012070BD36
:102EC000F8B505460F4616461C462B689B6937EA3F
:102ED00003030CBF01230023B34218D1B4F1FF3F19
:102EE000F3D0FFF70FFE069BC01AA04201D8002CBA
:102EF000EBD16B6C43F020036B64202385F84130E9
:102F0000002385F8423085F84030012000E00020A1
:102F1000F8BD70B505460C4616462B689B6913F044
:102F2000200F1AD1324621462846FFF781FFB0B95B
:102F3000FFF7E8FD801BA04201D8002CEDD16B6C9F
:102F400043F020036B64202385F84130002385F88B
:102F5000423085F84030012070BD0020FCE70120A0
:102F6000FAE770B504460D46164623689B6913F0D0
:102F7000040F3ED1324629462046FFF759FF01464D
:102F8000002838D123689A6912F0200F13D1FFF777
:102F9000B9FD801BA84201D8002DE6D1636C43F037
:102FA00020036364202384F84130002384F84030F8
:102FB0000121084670BD9A6912F0040F02D0228DDB
:102FC000002AF6D12022DA6121684B6823F0FF73D2
:102FD00023F48B3323F4FF7323F001034B600023AE
:102FE000636484F8412084F8423084F84030012141
:102FF000DFE70021DDE70121DBE7002859D010B52C
:10300000044690F84130002B43D0242384F841300B
:103010002268136823F0010313606368226823F0B9
:10302000706313612268936823F400439360E3683C
:10303000012B33D0A368226843F404439360E36810
:10304000022B31D02268536843F0007343F40043ED
:1030500053602268D36823F40043D3602369626914
:103060001343A169226843EA0123D360E369216A1B
:1030700022680B4313602268136843F00103136056
:1030800000206064202384F84130206384F84200EB
:1030900010BD80F84030FEF751FBB6E7A368226808
:1030A00043F400439360CAE723684FF400625A6018
:1030B000C8E70120704700002DE9F04383B090F885
:1030C0004150EDB2202D40F0A48090F84040012CFA
:1030D00000F0A480984617460E4604464FF00109BA
:1030E00080F84090FFF70EFD0546009019234A46F0
:1030F0004FF400412046FFF7E3FE002840F09080A7
:10310000222384F84130102384F842300023636482
:103110006762A4F82A806363638D9BB2FF2B0AD990
:10312000FF222285424B00934FF0807331462046A8
:10313000FFF763FE18E0628D92B222853C4B00934C
:103140004FF00073D2B231462046FFF756FE0BE037
:10315000628D92B22285002300934FF00073D2B2A9
:1031600031462046FFF749FE638D9BB2002B33D0DA
:103170002A460A992046FFF7F4FE002852D1236818
:103180005A6A636A1A70636A01336362238D013B72
:103190009BB22385628D013A92B26285628D92B2B2
:1031A000002AE1D0002BDFD100950A9B002280216C
:1031B0002046FFF785FE002836D1638D9BB2FF2B9A
:1031C000C6D9FF222285002300934FF08073314639
:1031D0002046FFF712FEC7E72A460A992046FFF766
:1031E00098FE034610BB22682021D1612068426806
:1031F00022F0FF7222F48B3222F4FF7222F00102DD
:10320000426084F84110002284F8422084F8402073
:1032100000E00223184603B0BDE8F0830223F9E77B
:103220000123F7E70123F5E70123F3E70123F1E7A2
:103230000024008090F84130DBB2202B24D190F89C
:103240004030012B22D0012380F84030242380F825
:1032500041300268136823F00103136002681368A9
:1032600023F48053136002681368194311600268E5
:10327000136843F001031360202380F841300023DA
:1032800080F840301846704702207047022070478F
:1032900090F84130DBB2202B22D190F84030012B46
:1032A00020D0012380F84030242380F84130026888
:1032B000136823F0010313600268136823F470633A
:1032C00043EA012111600268136843F001031360AF
:1032D000202380F84130002380F8403018467047A2
:1032E0000220704702207047002875D0F0B587B0E3
:1032F000044690F82934C3B1032384F829342068A4
:1033000002F071FB254655F8107B6E460FCD0FC6B7
:103310002B683360231D0ECB384602F053FB00218F
:10332000206802F06AFB002316E080F82834FEF7DC
:1033300071FBE1E704EB4312012182F8291082F8C6
:103340002830D386002182F82B109163D1639A1C18
:103350005201A1500133DBB20E2BEBD9002312E056
:1033600004EB4311002281F8292281F8283281F8E8
:103370002B22C1F83822C1F83C2203F11201490185
:1033800062500133DBB20E2BEAD9254655F8107B8B
:103390006E460FCD0FC62B683360231D0ECB38460B
:1033A00002F02DFB002384F82430012384F8293413
:1033B000E369012B08D0236A012B09D0206802F0B1
:1033C00049FE002007B0F0BD204600F0ECFBF2E71C
:1033D000204600F0D6FBF1E70120704790F8283432
:1033E000012B0ED010B50446012380F82834006864
:1033F00002F028FE206802F0ECFA002084F828048D
:1034000010BD0220704790F82834012B0DD010B564
:103410000446012380F8283480F82410006802F064
:103420000BFE002084F8280410BD0220704770B500
:1034300011F0800F23D101F00F056D0105F50A741D
:1034400004440544002685F8296201F00F0121702B
:103450002261E370627802B1E181022B1AD090F808
:103460002834012B19D00546012380F82834214641
:10347000006802F0DAFA002085F8280470BD01F037
:103480000F056D0105F1280404440544012685F863
:103490002960DAE700232371E1E70220EEE710B5A7
:1034A00011F0800F1CD101F00F035B0103F50A72CC
:1034B00002440344002483F8294201F00F031370EF
:1034C00090F82834012B16D00446012380F82834C4
:1034D0001146006802F056FC002084F8280410BD54
:1034E00001F00F035B0103F12802024403440124AD
:1034F00083F82940E1E70220F1E770B501F00F05FC
:103500006C0104F50A7101440444C4F83C2205F13D
:1035100012025201861883500023736084F8293206
:1035200084F8285225B1006802F0B5FD002070BD76
:10353000006802F0B0FDF9E701F00F01123100EB75
:1035400041118888704770B501F00F056C0104F1D6
:10355000280101440444E263AA1C520186188350E6
:1035600000237360012384F8293084F8285025B1A2
:10357000006802F090FD002070BD006802F08BFD35
:10358000F9E7F8B504462068B0F8443013F4004F6A
:1035900000F08781B0F844309BB213F00F0540F083
:1035A000B58013F0100F44D003889BB213F4006F62
:1035B0006DD113F4004FE6D0038823F070031B0590
:1035C0001B0D03802068B0F8503094F8282203EBDC
:1035D000C2030344B3F80634C3F30903C4F8443206
:1035E000002B72D100212046FEF73CFA2368B3F885
:1035F00050201344D4F83822002A74D1B3F806249A
:1036000022F440629204920C6FEA42426FEA524204
:10361000A3F80624226813889BB223F4804323F086
:10362000700383F4405343F4004343F0800313805A
:10363000A9E703889BB223F4E14323F070039BB214
:1036400003802268B2F8503094F8281003EBC103CD
:103650001344B3F80234C3F309036364E26B134405
:10366000E36300212046FEF707FA94F82430002B8C
:1036700089D0236C002B86D194F82430226843F043
:103680008003A2F84C30002384F824307BE7B0F8A4
:10369000503094F8282203EBC2030344B3F80634F5
:1036A000C3F30903C4F84432B4F82E2204F586614A
:1036B00002F053FE2268138823F070031B051B0DD4
:1036C00013802046FEF7C6F95DE7B4F82E22D4F841
:1036D0003C1202F042FED4F84422D4F83C321344A7
:1036E000C4F83C327EE73D2A08D8510812F0010F99
:1036F00000D001318902A3F806148BE752096FEA62
:10370000C2626FEA5242A3F8062483E730F82560CC
:10371000B6B216F4004F2DD116F0800F3FF433AF40
:10372000226832F825309BB223F4E14323F0700382
:103730009BB222F825302268B2F8503004EB4510D5
:1037400090F8281003EBC1031344B3F80224C2F32A
:103750000902AB1C5B01E1184A60C16B0A44C263F9
:10376000E358002B40F0958090F828102046FEF793
:1037700083F908E730F8253023F070031B051B0D93
:1037800020F8253004EB451393F83432C3B9206890
:10379000B0F8503004EB451292F8282203EBC20334
:1037A0000344B3F80674C7F309077FB304EB45116C
:1037B0003B46B1F82E22D1F83C1202F0CEFD25E0B6
:1037C000206804EB451393F8282230F8223013F4D4
:1037D000804F41D0B0F8503003EBC2030344B3F83C
:1037E0000274C7F309076FBB226804EB451393F813
:1037F000281232F821309BB223F4E04323F0700307
:1038000043F4004343F0C00322F8213005F11203D2
:103810005B01E1184A683A444A6004EB4511D1F86B
:103820003C223A44C1F83C22E3581BB1D1F838128B
:103830008F4226D204EB451393F828122046FEF758
:1038400011F969E704EB45113B46B1F83022D1F894
:103850003C1202F082FDC7E7B0F8503003EBC20320
:103860000344B3F80674C7F30907002FBCD004EB78
:1038700045113B46B1F83222D1F83C1202F06DFD01
:10388000B2E704EB451191F828122046FFF735FE08
:1038900042E704EB451595F828102046FFF753FE44
:1038A00071E60020F8BD10B50446006802F0DAFBAE
:1038B00010F4004F40F09880206802F0D3FB10F421
:1038C000806F40F09580206802F0CCFB10F4804FB0
:1038D00008D02268B2F844309BB223F480439BB2F4
:1038E000A2F84430206802F0BDFB10F4005F08D05D
:1038F0002268B2F844309BB223F400539BB2A2F882
:103900004430206802F0AEFB10F4805F21D02268C2
:10391000B2F840309BB223F004039BB2A2F84030CF
:103920002268B2F840309BB223F008039BB2A2F8A1
:10393000403094F86034012B6BD02046FEF7C8F875
:103940002268B2F844309BB223F480539BB2A2F8B1
:103950004430206802F086FB10F4006F60D12068CC
:1039600002F080FB10F0800F28D02268B2F84430BB
:103970009BB223F080039BB2A2F8443094F86034E9
:10398000002B6ED12268B2F8403043F00403A2F855
:1039900040302268B2F8403043F00803A2F84030CB
:1039A000012184F860142368B3F854309B0803F0B5
:1039B0003C03C4F864342046FEF776F9206802F030
:1039C00051FB10F4007F50D1206802F04BFB10F443
:1039D000807F08D02268B2F844309BB223F4807311
:1039E0009BB2A2F8443010BD2046FFF7CAFD63E742
:1039F0002268B2F844309BB223F480639BB2A2F8F1
:103A000044302046FEF747F800212046FFF7FBFC34
:103A100059E7002184F860142046FEF745F98CE749
:103A20002268B2F8403043F00803A2F84030226820
:103A3000B2F844309BB223F400639BB2A2F8443046
:103A40002268B2F8403043F00403A2F84030206806
:103A500002F008FB10F4805F81D12046FEF728F8C1
:103A60007DE72046FEF724F8A8E72268B2F8443044
:103A70009BB223F400739BB2A2F844302046FEF7B9
:103A800004F8A1E738B501F00F0543689D422CD832
:103A900011F0800F1AD14B0103F50A710144034460
:103AA000002283F8292201238B700D7090F82834AE
:103AB000012B1CD00446012380F82834006802F052
:103AC0004BFA65B1002084F828040FE06B0103F184
:103AD000280101440344012283F82920E3E704F587
:103AE0008661206802F0C1FAECE7012038BD0220AF
:103AF000FCE701F00F034268934226D810B511F09D
:103B0000800F19D15A0102F50A71014402440024C0
:103B100082F8294200228A700B7090F82834012B19
:103B200015D00446012380F82834006802F039FAE1
:103B3000002084F8280410BD5A0102F12801014434
:103B40000244012482F82940E4E701207047022062
:103B5000F1E711F0800F0CD001F00F01490128317D
:103B600001445AB101220A730B811B0C4B810020C6
:103B70007047490101F50A710144F2E70A73CB80ED
:103B8000F5E703680122C0F86C24B3F8582042F02E
:103B90000102A3F85820B3F8582042F00202A3F81B
:103BA000582000207047024603680121C0F86814BD
:103BB000002082F86004B3F854200A43A3F854208C
:103BC000B3F8542042F00202A3F8542070470000DA
:103BD000024B186800F4C060704700BF00700040DE
:103BE000B0F5007F0FD01F4B1B6803F4C063B3F523
:103BF000806F34D01B4A136823F4C06343F480639E
:103C0000136000207047174B1B6803F4C063B3F5C3
:103C1000007F22D0134A136823F4C06343F4007377
:103C20001360114B1A68322303FB02F30F4AA2FB05
:103C300003239B0C013300E0013B0A4A526912F452
:103C4000806F01D0002BF7D1064B5B6913F4806FB6
:103C500001D10020704703207047002070470020EA
:103C6000704700BF007000402400002083DE1B432B
:103C7000024A536843F48063536070470070004009
:103C800030B583B00546204B9B6D13F0805F0BD0A1
:103C9000FFF79EFFB0F5007F17D0802D1FD82DD0E5
:103CA000702D2DD000211BE0174CA36D43F08053E5
:103CB000A365A36D03F080530193019BFFF788FF79
:103CC000A36D23F08053A365E4E7802D03D9A02DD5
:103CD00003D9022104E0002102E0012100E00321D8
:103CE0000A4A136823F007030B431360136803F0B9
:103CF00007038B4206D0012003B030BD0221EFE75D
:103D00000121EDE70020F7E700100240002002400B
:103D1000314A9368D26802F0030213F00C030AD010
:103D20000C2B06D0042B1FD0082B20D000200146DE
:103D300010E0012AF6D1284A126812F0080F0CD1BF
:103D4000254AD2F89420C2F30322244951F82210C4
:103D500043B100200C2B0DD070471F4A1268C2F3EC
:103D60000312F2E70846F5E71D480021F2E71D4877
:103D70000021EFE7184BDA6802F00302DB68C3F3B7
:103D800002130133022A0AD0032A1AD0B1FBF3F33B
:103D9000114AD068C0F3062000FB03F008E0104889
:103DA000B0FBF3F30C4AD068C0F3062000FB03F02D
:103DB000094BDB68C3F3416301335B00B0FBF3F0F5
:103DC000CAE70848B0FBF3F3034AD068C0F3062003
:103DD00000FB03F0ECE700BF001002402085000864
:103DE0000024F40000127A00002800F0C182F0B52F
:103DF00083B00446AC4B9D6805F00C05DE6806F008
:103E00000306036813F0100F5DD0E5B10C2D18D038
:103E1000A369002B00F0B780A34A136843F00103A5
:103E20001360FEF76FFE07469F4B1B6813F0020FEF
:103E300040F09680FEF766FEC01B0228F4D90323EB
:103E4000A2E2012EE4D1984B1B6813F0020F03D0BD
:103E5000A369002B00F08F82206A934B1B6813F03C
:103E6000080F5DD0904B1B6803F0F00398425ED9B9
:103E7000FFF706FF002840F080828B4B1A6842F063
:103E800008021A601A6822F0F002216A0A431A60D6
:103E90005A6822F47F42E16942EA01225A60FFF740
:103EA00037FF814B9B68C3F30313804AD35C03F055
:103EB0001F03D8407E4B18600020FEF7F1FD03463B
:103EC000002840F06182236813F0010F7AD0082D9A
:103ED0006FD00C2D6BD06368B3F5803F00F09180FC
:103EE000B3F5A02F00F093806F4B1A6822F4803254
:103EF0001A601A6822F480221A606368002B00F0AE
:103F00009380FEF7FFFD0746674B1B6813F4003FE5
:103F100058D1FEF7F7FDC01B6428F5D9032333E21F
:103F2000614BD3F894301B0903F0F0039EE75E4B1E
:103F30001A6842F008021A601A6822F0F002216A38
:103F40000A431A605A6822F47F42E16942EA012278
:103F50005A60206AFFF794FE0028A0D0012313E2E4
:103F6000514B1A6842F008021A601A6822F0F002F7
:103F7000216A0A431A605A6822F47F42E16942EAE0
:103F800001225A609FE7484A136823F00103136037
:103F9000FEF7B8FD0746444B1B6813F0020F92D0A2
:103FA000FEF7B0FDC01B0228F5D90323ECE1032E78
:103FB00091D13D4B1B6813F4003F03D06368002B85
:103FC00000F0DD81236813F0020F4FD0042D3CD0A8
:103FD0000C2D38D0E368002B75D0334A136843F4B6
:103FE00080731360FEF78EFD06462F4B1B6813F49B
:103FF000806F5FD1FEF786FD801B0228F5D9032371
:10400000C2E1294A136843F48033136075E703F172
:104010008043A3F53C331A6842F480221A601A6880
:1040200042F480321A6068E7FEF76CFD07461E4BCB
:104030001B6813F4003FC5D0FEF764FDC01B642865
:10404000F5D90323A0E1022EC4D1174B1B6813F44A
:10405000806F03D0E368002B00F09381124A53680D
:1040600023F0F853216943EA01635360236813F096
:10407000080F53D06369002B39D00B4AD2F8943023
:1040800043F00103C2F89430FEF73CFD0646064BB0
:10409000D3F8943013F0020F40D1FEF733FD801BAC
:1040A0000228F4D903236FE10010024010850008B4
:1040B00024000020B74A536823F0F853216943EAEB
:1040C00001635360D2E7B34A136823F4807313602B
:1040D000FEF718FD0646AF4B1B6813F4806FC5D082
:1040E000FEF710FD801B0228F5D903234CE1A94AF5
:1040F000D2F8943023F00103C2F89430FEF702FDA9
:104100000646A44BD3F8943013F0020F06D0FEF706
:10411000F9FC801B0228F4D9032335E1236813F04E
:10412000040F7AD09B4B9B6D13F0805F0BD1994BA2
:104130009A6D42F080529A659B6D03F08053019313
:10414000019B012600E00026934B1B6813F4807F3F
:1041500026D0A368012B37D0052B3DD08D4BD3F84B
:10416000902022F00102C3F89020D3F8902022F092
:104170000402C3F89020A368002B3BD0FEF7C2FCDA
:104180000746844BD3F8903013F0020F44D1FEF76A
:10419000B9FCC01B41F288339842F2D90323F3E003
:1041A0007D4A136843F480731360FEF7ABFC074647
:1041B000794B1B6813F4807FCBD1FEF7A3FCC01BA7
:1041C0000228F5D90323DFE0724AD2F8903043F099
:1041D0000103C2F89030CEE76E4BD3F8902042F046
:1041E0000402C3F89020D3F8902042F00102C3F8F3
:1041F0009020C0E7FEF786FC0746664BD3F8903068
:1042000013F0020F08D0FEF77DFCC01B41F288338B
:104210009842F2D90323B7E0E6B9236813F0200FE0
:1042200035D0636AE3B15B4AD2F8983043F00103BA
:10423000C2F89830FEF766FC0646564BD3F8983025
:1042400013F0020F23D1FEF75DFC801B0228F4D986
:10425000032399E04F4A936D23F080539365DCE785
:104260004C4AD2F8983023F00103C2F89830FEF798
:1042700049FC0646474BD3F8983013F0020F06D09E
:10428000FEF740FC801B0228F4D903237CE0A36ADC
:10429000002B78D00C2D7AD0022B23D03D4B1A68FE
:1042A00022F080721A601B6813F0006F04D1394A43
:1042B000D36823F00303D360364AD36823F08873AE
:1042C00023F48033D360FEF71DFC0446314B1B689A
:1042D00013F0007F4AD0FEF715FC001B0228F5D929
:1042E000032351E02B4A136823F080731360FEF719
:1042F00009FC0546274B1B6813F0007F06D0FEF72C
:1043000001FC401B0228F5D903233DE0236B5A1E14
:10431000636B1B0243EA0213E26A1343E26B520827
:10432000013A43EA4253226C5208013A43EA42639B
:10433000A26B43EAC263174AD360136843F08073E9
:104340001360D36843F08073D360FEF7DBFB044651
:10435000104B1B6813F0007F06D1FEF7D3FB001B48
:104360000228F5D903230FE000230DE000230BE022
:10437000012318467047012306E0012304E00123CE
:1043800002E0012300E00023184603B0F0BD012342
:10439000FAE700BF0010024000700040002800F063
:1043A0009A8070B504464E4B1B6803F007038B429E
:1043B0000CD24B4A136823F007030B4313601368B6
:1043C00003F007038B4201D0012070BD0D46236826
:1043D00013F0010F39D06368032B09D0022B26D0CC
:1043E00063BB404A126812F0020F06D10120ECE7CD
:1043F0003C4A126812F0007F6FD03A498A6822F076
:10440000030213438B60FEF77DFB0646354B9B682A
:1044100003F00C036268B3EB820F16D0FEF772FB59
:10442000801B41F288339842F0D90320CDE72D4A12
:10443000126812F4003FE0D10120C6E7294A126851
:1044400012F4806FD9D10120BFE7236813F0020F67
:1044500006D0244A936823F0F003A1680B439360CD
:104460001F4B1B6803F00703AB420CD91C4A1368AF
:1044700023F007032B431360136803F00703AB42D9
:1044800001D00120A1E7236813F0040F06D0154ADC
:10449000936823F4E063E1680B439360236813F0AF
:1044A000080F07D00F4A936823F46053216943EA49
:1044B000C1039360FFF72CFC0A4B9B68C3F3031303
:1044C000094AD35C03F01F03D840084B1860002052
:1044D000FEF7E6FA79E701207047012075E700BF93
:1044E0000020024000100240108500082400002037
:1044F000014B1868704700BF24000020F8B5594BE5
:10450000DB6813F0030F18D0564BDB6803F003038E
:104510000268934202D001252846F8BD002A00F027
:104520009F80504BDB68C3F3021301334268934210
:1045300001D00125F0E700251AE00368022B58D0CE
:10454000032B5DD0012B01D001250FE0454A1268F5
:1045500012F0020F60D0434DEA6822F07302446803
:10456000013C43EA04131343EB600025002DD3D133
:104570000F4604463B4A136823F080631360FEF73E
:10458000C1FA0646374B1B6813F0006F05D0FEF7E3
:10459000B9FA801B0228F5D90325002DBCD1002FC4
:1045A0003CD130490B6923F0784323F4FE43A068E3
:1045B000E268D20642EA002213430B61294A1368DB
:1045C00043F080631360FEF79DFA0646254B1B6897
:1045D00013F0006F05D1FEF795FA801B0228F5D97C
:1045E0000325002D98D11F4A1369A1690B4313615C
:1045F00092E71C4A126812F4806FACD10125B5E72E
:10460000184A126812F4003FA5D1164A126812F433
:10461000802FA0D10125A9E70125A7E7012F0FD001
:104620001048026922F0C06222F4FE42A168636968
:104630005B08013B5B0643EA012313430361BDE7CB
:104640000848026922F4C00222F4FE42A1682369EC
:104650005B08013B5B0543EA012313430361ADE7BC
:10466000012559E7001002402DE9F04182B00446CF
:10467000036813F4006F26D0436CB3F5000F06D027
:10468000B3F5400F1DD09BB1012637461DE0BD4A52
:10469000D36843F48033D3600027BA4AD2F8883015
:1046A00023F44003616C0B43C2F8883000260CE011
:1046B00000210430FFF722FF07460028EDD0064610
:1046C00003E00027E9E700263746236813F4003F9C
:1046D0006BD0AC4B9B6D13F0805F4CD1A94B9A6DA6
:1046E00042F080529A659B6D03F080530193019BC9
:1046F0004FF00108A44A136843F480731360FEF777
:1047000001FA0546A04B1B6813F4807F05D1FEF724
:10471000F9F9401B0228F5D90327002F40D1994B06
:10472000D3F8903013F4407315D0E26D9A4212D052
:10473000944AD2F8903023F44073D2F8901041F4A8
:104740008031C2F89010D2F8901021F48031C2F874
:104750009010C2F8903013F0010F0FD1002F40F0ED
:10476000F780884AD2F8903023F44073E16D0B4310
:10477000C2F8903015E04FF00008BBE7FEF7C2F931
:104780000546804BD3F8903013F0020FE6D1FEF7C8
:10479000B9F9401B41F288339842F2D90327DDE78B
:1047A0003E46B8F1000F40F0D580236813F0010FAA
:1047B00008D0744AD2F8883023F00303216A0B43EF
:1047C000C2F88830236813F0020F08D06D4AD2F87F
:1047D000883023F00C03616A0B43C2F888302368E9
:1047E00013F0040F08D0674AD2F8883023F0300362
:1047F000A16A0B43C2F88830236813F0200F08D059
:10480000604AD2F8883023F44063E16A0B43C2F86F
:104810008830236813F4007F08D05A4AD2F88830D1
:1048200023F44023E16B0B43C2F88830236813F470
:10483000806F08D0534AD2F8883023F44013216C9B
:104840000B43C2F88830236813F0400F08D04D4A5C
:10485000D2F8883023F44053216B0B43C2F88830E0
:10486000236813F0800F08D0464AD2F8883023F42A
:104870004043616B0B43C2F88830236813F4807F98
:1048800008D0404AD2F8883023F44033A16B0B4360
:10489000C2F88830236813F4005F0FD0394AD2F889
:1048A000883023F04063A16C0B43C2F88830A36CBE
:1048B000B3F1006F54D0B3F1806F56D0236813F476
:1048C000002F0FD02F4AD2F8883023F04063E16CDC
:1048D0000B43C2F88830E36CB3F1006F4DD0B3F1F5
:1048E000806F53D0236813F4802F0FD0254AD2F85D
:1048F000883023F04063216D0B43C2F88830236D6C
:10490000B3F1006F4AD0B3F1806F4CD0236813F439
:10491000804F0CD01B4AD2F8883023F04053616D91
:104920000B43C2F88830636DB3F1805F43D02368D6
:1049300013F4004F08D0134AD2F8883023F0804394
:10494000A16D0B43C2F88830304602B0BDE8F0815B
:104950003E4626E70B4A936D23F08053936524E788
:10496000D36843F48013D360A8E70121201DFFF72B
:10497000C5FD0028A2D00646A0E7D36843F4801303
:10498000D360AFE700100240007000400121201DFD
:10499000FFF7B4FD0028A5D00646A3E7D36843F48B
:1049A0008013D360B2E70121201DFFF7A7FD002887
:1049B000ACD00646AAE70221201DFFF79FFD002884
:1049C000B5D00646B3E700BFF8B505460F46164614
:1049D0001C462B689B6837EA03030CBF01230023A6
:1049E000B34237D0B4F1FF3FF3D0FEF78BF8069B0C
:1049F000C01AA04201D2002CEBD12A68536823F0E0
:104A0000E00353606B68B3F5827F0BD0AB6AB3F5FC
:104A1000005F14D0012385F85D30002385F85C30F9
:104A2000032018E0AB68B3F5004F02D0B3F5806FF8
:104A3000ECD12A68136823F040031360E6E72A6884
:104A4000136823F4005313602A68136843F4005377
:104A50001360DFE70020F8BDF8B507460C461546A1
:104A60001E4602E0B6F1FF3F0BD13A68936823403F
:104A7000AB423BD0B4F5C06FF4D1002DF2D1137B23
:104A8000F0E7FEF73FF8069BC01AB04201D2002EB5
:104A9000EBD13A68536823F0E00353607B68B3F5C9
:104AA000827F0BD0BB6AB3F5005F14D0012387F877
:104AB0005D30002387F85C30032018E0BB68B3F555
:104AC000004F02D0B3F5806FECD13A68136823F041
:104AD00040031360E6E73A68136823F40053136059
:104AE0003A68136843F400531360DFE70020F8BD11
:104AF00070B582B004460D46164600920B46002261
:104B00004FF4C051FFF7A8FFB8B900962B4600221A
:104B100080212046FFF758FFB8B900962B460022A7
:104B20004FF4C0612046FFF797FF034650B1236E54
:104B300043F020032366032304E0236E43F02003A5
:104B400023660323184602B070BD236E43F0200392
:104B500023660323F6E770B582B004460D46164679
:104B60004368B3F5827F0FD000962B460022802148
:104B70002046FFF729FF034698B96268B2F5827FA5
:104B800015D0184602B070BD8368B3F5004F02D04F
:104B9000B3F5806FE8D12268136823F040031360F7
:104BA000E2E7236E43F0200323660323E9E7A268CC
:104BB000B2F5004F02D0B2F5806FE2D100962B46DD
:104BC00000224FF4C0612046FFF746FF034600284D
:104BD000D7D0236E43F0200323660323D1E70028B8
:104BE00053D010B504460023836290F85D30002B4B
:104BF00040D0022384F85D302268136823F040031C
:104C00001360E368B3F5E06F39D90022B3F5706F34
:104C100004D0B3F5E06F01D00021A162216B21B96E
:104C2000B3F5E06F2ED9022323636368A1680B43B9
:104C300021690B4361690B43A16901F400710B43C6
:104C4000E1690B43216A0B43A06A216803430B60AF
:104C5000638B03F00403616A0B43616B0B43E168F0
:104C60000B43216813434B6000202066012384F826
:104C70005D3010BD80F85C30FCF78AFDB9E74FF479
:104C80008052C3E701232363CFE7012070472DE95A
:104C9000F04182B090F85C40012C00F0E4801E46A8
:104CA000154688460446012380F85C30FDF72AFF4C
:104CB000074694F85D20D2B2012A09D002200123D0
:104CC00084F85D30002384F85C3002B0BDE8F081E8
:104CD000B8F1000F00F0B980002D00F0B880032378
:104CE00084F85D3000232366C4F83880A587E58703
:104CF0002364A4F84430A4F846302365E364A36831
:104D0000B3F5004F1CD023681A6812F0400F03D18E
:104D10001A6842F040021A60E368B3F5E06F33D9D5
:104D200063680BB1012D1BD1A26B23681288DA6076
:104D3000A36B0233A363E38F013B9BB2E3870FE0D6
:104D40002268136843F480431360DCE7FDF7DAFE62
:104D5000C01BB04202D3B6F1FF3F7AD1002E7AD009
:104D6000E38F9BB2002B5BD023689A6812F0020F8E
:104D7000ECD0A26B1288DA60A36B0233A363E38FDB
:104D8000013B9BB2E387EBE763680BB1012D30D1A8
:104D9000E38F9BB2012B0BD9A26B23681288DA60D8
:104DA000A36B0233A363E38F023B9BB2E38720E054
:104DB000A26B236812781A73A36B0133A363E38F8A
:104DC000013B9BB2E38714E0A36B1B781373A36BC7
:104DD0000133A363E38F013B9BB2E38709E0FDF757
:104DE00091FEC01BB04202D3B6F1FF3F35D1002E79
:104DF00035D0E38F9BB29BB12268936813F0020F0A
:104E0000EDD0E38F9BB2012BDED9A36B1B88D3605F
:104E1000A36B0233A363E38F023B9BB2E387E8E714
:104E20003A4631462046FFF763FE08B12023236649
:104E3000A36833B901932368DA6801929B680193F0
:104E4000019B236E6BB9002039E7012037E7012071
:104E500035E7032033E7032031E703202FE7032062
:104E60002DE701202BE702202FE72DE9F843DDF89D
:104E7000208090F85C40012C00F05C811D461746B4
:104E80000E460446012380F85C30FDF73BFE814668
:104E900094F85D00C0B26368012814D0B3F5827F36
:104EA00009D00223012284F85D20002284F85C20CE
:104EB0001846BDE8F883A368002B40F02D81042834
:104EC00001D00223EEE7002E00F02881002F00F031
:104ED0002781002D00F0268194F85D30DBB2042B91
:104EE00002D0052384F85D30002323662764A4F8EC
:104EF0004650A4F84450A663E587A587E36423657C
:104F0000E368B3F5E06F01D8012D22D92268536818
:104F100023F48053536023681A6812F0400F03D1C2
:104F20001A6842F040021A60E368B3F5E06F56D9A0
:104F300063680BB1012D0AD1A26B23681288DA6075
:104F4000A36B0233A363E38F013B9BB2E38701258D
:104F500025E02268536843F480535360DBE72368FD
:104F60009A6812F0010F10D0B4F8462092B262B1E4
:104F7000DA68236C1A80236C02332364B4F8463059
:104F8000013B9BB2A4F846300125FDF7BBFDA0EB29
:104F90000900404503D3B8F1FF3F40F0C580E38FDF
:104FA0009BB22BB9B4F846309BB2002B00F0A7801F
:104FB00023689A6812F0020FD1D0E28F92B2002AD1
:104FC000CDD0002DCBD0A26B1288DA60A36B023358
:104FD000A363E38F013B9BB2E3870025BFE76368D0
:104FE0000BB1012D0ED1E38F9BB2012B0CD9A26B1B
:104FF00023681288DA60A36B0233A363E38F023B5A
:105000009BB2E387012547E0A26B236812781A73ED
:10501000A36B0133A363E38F013B9BB2E387F1E70B
:10502000E28F92B2012A0BD9A26B1288DA60A36BCD
:105030000233A363E38F023B9BB2E38700253CE08E
:10504000A26B12781A73A36B0133A363E38F013B46
:105050009BB2E387002530E02268536843F4805315
:10506000536001250CE0226C1B7B1370236C013311
:105070002364B4F84630013B9BB2A4F846300125C6
:10508000FDF740FDA0EB0900404502D3B8F1FF3F1A
:105090004CD1B8F1000F4BD0E38F9BB21BB9B4F8E1
:1050A00046309BB25BB323689A6812F0020F04D0BB
:1050B000E28F92B20AB1002DB2D123689A6812F041
:1050C000010FDDD0B4F8462092B2002AD8D0B4F84F
:1050D000462092B2012AC6D9DA68236C1A80236C62
:1050E00002332364B4F84630023B9BB2A4F8463046
:1050F000B4F846309BB2012BAED90125C0E74A4631
:1051000041462046FFF7F4FC034600283FF4CAAEB0
:10511000202323660123C5E60223C3E60123C1E65B
:105120000123BFE60123BDE60323BBE60323B9E663
:105130000323B7E60223BBE62DE9F04182B0044623
:105140000F4690461D464368B3F5827F19D094F808
:105150005C30012B00F0B880012384F85C30FDF74F
:10516000D1FC064694F85D30DBB2012B15D002204D
:10517000012384F85D30002384F85C3002B0BDE880
:10518000F0818368002BE2D1042380F85D30009524
:1051900013460A46FFF769FEF0E7002F00F086800D
:1051A000B8F1000F00F08480042384F85D30002300
:1051B00023662764A4F84480A4F84680A363A387E9
:1051C000E387E3642365E368B3F5E06F16D92268EB
:1051D000536823F480535360A368B3F5004F13D092
:1051E00023681A6812F0400F03D11A6842F0400297
:1051F0001A60E368B3F5E06F16D935E022685368AA
:1052000043F480535360E7E72268136823F4804334
:105210001360E5E7FDF776FC801BA84202D3B5F1E9
:10522000FF3F47D1002D47D0B4F846309BB2002B4A
:1052300030D023689A6812F0010FEBD0226C1B7BF0
:105240001370236C01332364B4F84630013B9BB2E6
:10525000A4F84630E8E7FDF755FC801BA84202D3CE
:10526000B5F1FF3F2AD15DB3B4F846309BB28BB1A4
:1052700023689A6812F0010FEDD0DA68236C1A8067
:10528000236C02332364B4F84630013B9BB2A4F88C
:105290004630E9E7324629462046FFF75CFC08B174
:1052A00020232366236E6BB9002061E701205FE7AE
:1052B00001205DE703205BE7032059E7032057E760
:1052C000032055E7012053E7022057E730B4036A73
:1052D00023F001030362036A4468826922F4803286
:1052E00022F073020D682A4323F002038D682B43DA
:1052F000144DA84207D005F5A055A84203D005F5E6
:105300008065A84205D123F00803CD682B4323F024
:1053100004030C4DA84207D005F5A055A84203D0C0
:1053200005F58065A84205D124F440754C692C43ED
:105330008D692C43446082614A684263036230BCD9
:10534000704700BF002C014030B4036A23F480731F
:105350000362036A4268C46924F4803424F073044D
:105360000D682C4323F400738D6843EA0523124D26
:10537000A84219D0104DA84207D005F5A055A84263
:1053800003D005F58065A84207D122F440524D694B
:1053900042EA05128D6942EA05124260C4614A6818
:1053A000C263036230BC704723F40063CD6843EAF4
:1053B000052323F48063DDE7002C014030B4036A49
:1053C00023F480530362026A4468C36923F0807344
:1053D00023F4E6430D6843EA052322F400528D6866
:1053E00042EA05320B4DA84207D005F5A055A84268
:1053F00003D005F58065A84204D124F480444D69AA
:1054000044EA85144460C3614B680364026230BCA3
:10541000704700BF002C014030B4036A23F480338E
:105420000362036A4468426D22F4803222F0700203
:105430000D682A4323F400338D6843EA05430B4D7E
:10544000A84207D005F5A055A84203D005F5806510
:10545000A84204D124F480344D6944EA0524446010
:1054600042654A688265036230BC7047002C014087
:1054700030B4036A23F480130362026A4468436D04
:1054800023F0807323F4E0430D6843EA052322F4FC
:1054900000128D6842EA05520B4DA84207D005F56F
:1054A000A055A84203D005F58065A84204D124F494
:1054B00080244D6944EA8524446043654B68C36594
:1054C000026230BC704700BF002C014010B4036A78
:1054D000046A24F001040462846924F0F00444EABC
:1054E000021223F00A030B438261036210BC70476F
:1054F00010B4036A23F0100303628469036A24F47E
:10550000704444EA023223F0A00343EA01138261AB
:10551000036210BC7047836823F07003194341F0A5
:105520000701816070470000022380F83D30026867
:105530009168094B0B40062B09D09168064B0B4034
:10554000B3F5803F03D0136843F0010313600123D8
:1055500080F83D30002070470700010070470000D0
:1055600003681A4A904202D0B0F1804F03D123F071
:1055700070034A681343154A90420AD0B0F1804F35
:1055800007D002F5A052904203D002F5806290420B
:1055900003D123F44073CA68134323F080034A699C
:1055A000134303608B68C3620B688362074B9842A6
:1055B00007D003F5A053984203D003F580639842C7
:1055C00001D10B690363012343617047002C014043
:1055D000A8B110B5044690F83D305BB1022384F8C1
:1055E0003D30211D2068FFF7BBFF012384F83D30CB
:1055F000002010BD80F83C30FCF712F9EEE70120E6
:105600007047A8B110B5044690F83D305BB1022355
:1056100084F83D30211D2068FFF7A2FF012384F8A4
:105620003D30002010BD80F83C30FFF797FFEEE7DB
:105630000120704730B4036A23F010030362036A49
:105640004468826922F0807222F4E6420D6842EAE0
:10565000052223F020038D6843EA0513124DA8426A
:1056600019D0114DA84207D005F5A055A84203D086
:1056700005F58065A84207D124F440644D6944EAE9
:1056800085048D6944EA8504446082614A688263C6
:10569000036230BC704723F08003CD6843EA0513F2
:1056A00023F04003DDE700BF002C014038B590F83F
:1056B0003C30012B00F092800D460446012380F817
:1056C0003C30022380F83D30142A1ED8DFE802F077
:1056D0000B1D1D1D241D1D1D381D1D1D4B1D1D1DBC
:1056E0005F1D1D1D72000068FFF7F0FD22689369C1
:1056F00043F0080393612268936923F004039361E4
:105700002268936929690B439361012384F83D3032
:10571000002084F83C0038BD0068FFF78BFF22684A
:10572000936943F4006393612268936923F480636F
:10573000936122689369296943EA01239361E4E74D
:105740000068FFF701FE2268D36943F00803D361C4
:105750002268D36923F00403D3612268D3692969DD
:105760000B43D361D1E70068FFF728FE2268D369B5
:1057700043F40063D3612268D36923F48063D36167
:105780002268D369296943EA0123D361BDE7006830
:10579000FFF742FE2268536D43F008035365226809
:1057A000536D23F0040353652268536D29690B433D
:1057B0005365AAE70068FFF75BFE2268536D43F468
:1057C000006353652268536D23F480635365226838
:1057D000536D296943EA0123536596E702209AE74E
:1057E00010B4846824F47F4442EA03230B43234328
:1057F000836010BC7047000090F83C30012B73D0E0
:1058000010B50446012380F83C30022380F83D3077
:1058100002689068354B034093600B68402B59D069
:1058200010D9702B3CD01BD8502B49D0602B30D1D5
:10583000CA6849682068FFF75BFE60212068FFF7AF
:105840006AFE26E0102B06D004D9202B03D0302B83
:1058500001D01EE0EBB919462068FFF75CFE18E0A6
:10586000B3F5805F0ED0B3F5005F12D1CB684A6804
:1058700089682068FFF7B4FF2268936843F4804387
:10588000936006E02268936823F4803323F00703D3
:105890009360012384F83D30002084F83C0010BD63
:1058A000CB684A6889682068FFF79AFF2268936886
:1058B00023F4803323F0770343F077039360E8E722
:1058C000CA6849682068FFF701FE50212068FFF789
:1058D00022FEDEE7CA6849682068FFF7F7FD40212D
:1058E0002068FFF718FED4E7022070478800FEFF0B
:1058F00010B401F01F01012303FA01F4036A23EA43
:1059000004030362036A8A401343036210BC7047B6
:1059100010B5044601220068FFF7EAFF2368104A29
:10592000934207D002F5A052934203D002F5806261
:10593000934203D15A6C42F400425A64226891683F
:10594000084B0B40062B09D09168064B0B40B3F572
:10595000803F03D0136843F001031360002010BDA3
:10596000002C01400700010090F83C30012B25D0AD
:1059700030B4012380F83C30022380F83D300268C7
:10598000536895680E4CA24213D023F070030C6844
:10599000234325F08004896821435360036899609C
:1059A000012380F83D30002380F83C30184630BC9D
:1059B000704723F470034C682343E6E702207047E6
:1059C000002C014084B001A880E80E00002004B043
:1059D0007047B0F8403043F43F4343F08003A0F8F1
:1059E000403000207047B0F8403023F47E535B0411
:1059F0005B0CA0F84030002070470020704784B056
:105A000038B505AC84E80E000123A0F8403000242E
:105A1000A0F84040A0F84440A0F85040FFF7D9FF5C
:105A20002046BDE8384004B0704730B403460C78D7
:105A300030F8242092B222F4EC4222F0700292B2AA
:105A4000C87803285BD8DFE800F04E5602520020E9
:105A500023F824200C7833F8242012B222F4E042F8
:105A600022F07002224392B242F4004242F08002DD
:105A700023F824200A7B002A40F0A9804A78002AD3
:105A80004ED0B3F850201A440C7802EBC402CC88F4
:105A900064086400A2F800440C7833F8242012F063
:105AA000400F0CD033F8242092B222F4E04222F0CE
:105AB000700242F4004242F0C00223F82420CA7867
:105AC000012A1ED0097833F8212092B222F4E04254
:105AD00022F0400282F0200242F4004242F08002B2
