:020000040800F2
:1000000000000120CD020008090A00080B0A0008C0
:100010000D0A00080F0A0008110A0008000000007D
:10002000000000000000000000000000130A0008AB
:10003000150A000800000000170A0008190A000845
:100040001D0300081D0300081D0300081D03000810
:100050001D0300081D0300081D0300081D03000800
:100060001D0300081D0300081D0300081D030008F0
:100070001D0300081D0300081D0300081D030008E0
:100080001D0300081D0300081D0300081D030008D0
:100090001D0300081D0300081D0300081D030008C0
:1000A0001D0300081D0300081D0300081D030008B0
:1000B0001D03000800000000000000001D030008F0
:1000C0001D0300081D0300081D0300081D03000890
:1000D0001D0300081D0300081D0300081D03000880
:1000E0001D0300081D0300080000000000000000C0
:1000F0000000000000000000000000000000000000
:10010000000000001D030008000000001D0300089F
:1001100000000000000000001D0300081D0300088F
:100120001D0300081D0300081D0300081D0300082F
:100130001D03000800000000000000000000000097
:100140001D0300081D0300081D030008250A000800
:100150001D0300081D0300081D0300081D030008FF
:100160001D0300081D0300081D0300080000000017
:100170001D0300081D0300081D0300080000000007
:100180001D0300081D0300081D03000800000000F7
:10019000034613F8012B002AFBD1181A01387047C7
:1001A00001F0FF01102A2BDB10F0070F08D010F828
:1001B000013B013A8B422DD010F0070F42B3F6D12C
:1001C000F0B441EA012141EA014122F007047FF045
:1001D00000070023F0E80256083C85EA010586EA9C
:1001E000010685FA47F5A3FA87F586FA47F6A5FAD8
:1001F00087F68EB9EED1F0BC01F0FF0102F00702E4
:1002000032B110F8013B013A83EA010313B1F8D18E
:100210000020704701387047002D06BF354603386F
:10022000073815F0010F07D1013015F4807F02BFA8
:10023000013015F4C03F0130F0BC0138704700BFF9
:100240000348044B834202D0034B03B11847704765
:10025000D8010020D8010020000000000548064910
:10026000091A891001EBD171491002D0034B03B177
:1002700018477047D8010020D80100200000000076
:1002800010B5064C237843B9FFF7DAFF044B13B1DE
:100290000448AFF300800123237010BDD801002073
:1002A000000000009C57000808B5054B1BB105492C
:1002B0000548AFF30080BDE80840FFF7CFBF00BF9F
:1002C00000000000DC0100209C570008DFF834D05B
:1002D000002103E00C4B5B58435004310B480C4B9E
:1002E00042189A42F6D30B4A02E0002342F8043B3C
:1002F000094B9A42F9D300F09DFB04F00DFE00F08B
:10030000D7F9FEE700000120205900080000002076
:10031000D8010020D801002060160020FEE7000070
:1003200070B588B02D4BDA6C42F00402DA64DA6CF6
:1003300002F004020092009ADA6C42F00102DA64E0
:10034000DA6C02F001020192019ADA6C42F00202C8
:10035000DA64DB6C03F002030293029B00220621A5
:100360004FF0904001F0D5FD1D4D002241F23001CB
:10037000284601F0CEFD4FF400530393002404946B
:10038000059403A9174801F0F3FC01260396049491
:10039000059403A94FF0904001F0EAFC0623039373
:1003A00004960594069403A94FF0904001F0E0FCF8
:1003B00040F2023303930494059403A9284601F004
:1003C000D7FC41F23003039304960594069403A9E5
:1003D000284601F0CDFC08B070BD00BF00100240FF
:1003E000000400480008004838B505464FF4FA7488
:1003F000002C0ADD2846FFF7CBFE81B2284600F02C
:1004000091FB012801D1013CF2E738BDFEE7000075
:1004100008B51548154B0360154B436000238360F6
:100420000122C260036143618361C361036201F021
:1004300075FD50B900210C4801F0CEFD50B90021E6
:10044000094801F0F7FD50B908BD4FF4977109480C
:10045000FFF7DCFF40F235110648FFF7D7FF4FF4F6
:100460009E710448FFF7D2FFEC04002000540040C6
:10047000EC9C9010B857000808B51248124B036066
:100480004FF4827343604FF4806383604FF4E06302
:10049000C3600023036143614FF400728261302224
:1004A000C2610362436283620722C262036308235C
:1004B000436303F066FA00B908BD4FF4B87103480E
:1004C000FFF7A4FF8804002000380040B857000858
:1004D00008B51148114B03604FF482734360002349
:1004E00083604FF4E062C260036143614FF40072C5
:1004F00082612822C2610362436283620722C26270
:1005000003630823436303F03CFA00B908BD4FF4CA
:10051000AB710348FFF77AFF24040020003001404C
:10052000B857000800B58FB027484FF080430360EC
:100530004F234360002383604FF47A72C2600361EB
:10054000836103F00DFE30BB0EA94FF4805341F8D8
:10055000103D1D4803F018FF10BB1B4803F019FEA7
:1005600018BB00230793099307A9174803F0C4FF9A
:1005700000BB6023009300230193029304930C2299
:100580006946114803F05AFEC8B90F4800F022FA34
:100590000FB05DF804FB40F285110C48FFF736FF01
:1005A00040F28B110948FFF731FF4FF4C87107483B
:1005B000FFF72CFF40F297110448FFF727FF4FF495
:1005C000D0710248FFF722FF38050020B857000815
:1005D00000B5AFB010231D93012223920023249372
:1005E00060232593022327932892299228222A9276
:1005F00007222B922C932D931DA802F0C7FA0028F6
:100600003FD10F2318930323199300231A931B93AD
:100610001C93042118A802F093FD002835D14FF453
:100620000153009300230C934FF080631293012336
:100630000193029318230393072304930223059342
:1006400006934FF480130793684602F0DFFE00BB69
:100650004FF4007002F096F900BB02F01BFE124B43
:10066000A3FB0030800901F057FB042001F06AFB76
:10067000002211464FF0FF3001F00EFB2FB05DF865
:1006800004FBEC210948FFF7C1FEFA210748FFF7F8
:10069000BDFE40F209110548FFF7B8FE4FF488711E
:1006A0000248FFF7B3FE00BFD34D6210B8570008F1
:1006B00010B58AB001F0B0FAFFF78AFFFFF730FEFD
:1006C00000F0D6F9FFF7A4FEFFF7D6FEFFF700FF14
:1006D000FFF728FF4E4C01221021204601F019FCA3
:1006E00001222021204601F014FC012202214FF0BA
:1006F000904001F00EFC012204214FF0904001F0E7
:1007000008FC0C21434803F0CBFE0023099302F0C0
:10071000C1FD4FF06043D3F8803E13F0010F06D0C7
:100720004FF06043D3F8003E13F0010F03D13A4875
:10073000FFF75AFE30E04FF060431B680BB900BF73
:10074000F9E7C3B24FF060421370F0E71E220021B8
:1007500001A804F010FC9DF824309DF825402409E0
:1007600004EB0314B4F5006F01D3A4F580542246C2
:100770002A4901A804F008FC32E02948FFF734FEBA
:10078000452C3CDC2748FFF72FFE224B1B6800223C
:100790001A64012001F05EFA4FF47A7001F05AFAFF
:1007A0001B4C00221021204601F0B3FB0422002143
:1007B00009A804F0E0FB0A23042209A91A4803F05F
:1007C0009FFA01221021204601F0A3FB9DF827305B
:1007D00013F0010FBAD01548FFF706FE4FF4FA7474
:1007E00002210B4801F08EFB0028C6D11048FFF70C
:1007F000FBFD084B1B684FF47A721A64CCE70D4876
:10080000FFF7F2FD034B1B684FF47A721A64C3E7DB
:100810000004004838050020C8570008F0570008B9
:10082000045800081458000888040020D85700080D
:10083000F85700082058000800B583B0214B1A6E05
:1008400042F001021A661A6E02F001020092009A4A
:100850009A6D42F080529A659B6D03F0805301932C
:10086000019B032001F006FA002211466FF00B00F5
:1008700001F012FA002211466FF00A0001F00CFAA2
:10088000002211466FF0090001F006FA002211461D
:100890006FF0040001F000FA002211466FF003002F
:1008A00001F0FAF9002211466FF0010001F0F4F9AD
:1008B000002211464FF0FF3001F0EEF903B05DF871
:1008C00004FB00BF001002400268124B9A4200D0A5
:1008D000704700B587B04FF4C063019312230293B1
:1008E0000123039303230493042305930DEB0301D6
:1008F0004FF0904001F03CFA074B9A6D42F4001221
:100900009A659B6D03F400130093009B07B05DF89C
:1009100004FB00BF005400400010024000B589B045
:1009200003681E4A934205D01D4A93421CD009B069
:100930005DF804FB1B4B1A6E42F480521A661B6E64
:1009400003F480530193019BE02303930223049358
:1009500000230593032306930523079303A94FF070
:10096000904001F005FAE2E70E4B9A6D42F48042A6
:100970009A659B6D03F480430293029B4FF4884376
:100980000393022304930023059303230693052373
:10099000079303A9044801F0EBF9C8E700300140D0
:1009A0000038004000100240000400480368B3F122
:1009B000804F00D0704782B003F504339A6D42F047
:1009C00001029A659B6D03F001030193019B02B044
:1009D000704700000368B3F1804F00D0704700B546
:1009E00087B04FF400630193022302930023039323
:1009F00004930123059301A9024801F0B9F907B056
:100A00005DF804FB000400487047FEE7FEE7FEE7E0
:100A1000FEE770477047704708B501F00DF901F027
:100A2000A2F908BD08B5024801F00FFE08BD00BFDD
:100A3000E40F00200C4B1A6842F001021A600021FA
:100A400099601A6822F0A85222F410221A604FF41A
:100A50008052DA601A6822F480221A609961034B8E
:100A60004FF000629A6070470010024000ED00E015
:100A700010B50B4C00220B49204600F051FA0A49F0
:100A8000204600F064FA0949204601F063F8204648
:100A900000F0D5F900B910BD204600F05FFAFAE782
:100AA000780500201C000020600000200C000020C1
:100AB0000020704720280ED1084B1A780A705A7807
:100AC0004A709A788A70DA78CA701A790A715A79F3
:100AD0004A719B798B710020704700BF0400002091
:100AE00010B5054C0146204601F043F8204601F0C0
:100AF00060F8002010BD00BF7805002010B5064C3E
:100B000000220649204601F02CF80549204601F054
:100B100030F8002010BD00BF78050020FC0B00203D
:100B200014080020094BD3F89032D3F814320BB1DB
:100B30000120704710B50A460146044C204601F0DA
:100B400010F8204601F01BF810BD00BF780500200A
:100B500008B5FFF73DFD08BD02680E4B9A4200D074
:100B6000704700B583B003F5D4339A6D42F08062CC
:100B70009A659B6D03F080630193019B00221146EF
:100B8000432001F089F8432001F0BAF803B05DF882
:100B900004FB00BF0068004008B500F58661D0F88E
:100BA000700400F0F4F908BD08B500EB4113D3F868
:100BB0003C22D0F8700400F017FA08BD08B500EB2D
:100BC0004113DA6BD0F8700400F054FA08BD08B590
:100BD000D0F8700400F0F1FA08BD10B50446012108
:100BE000D0F8700400F0D7FAD4F8700400F0ABFA33
:100BF00010BD000010B50446D0F8700400F0CEFA25
:100C0000A36923B1024A136943F00603136110BDBF
:100C100000ED00E010B50446836923B9D4F87004F0
:100C200000F0C5FA10BD044A136923F006031361EE
:100C3000FFF78EFFF2E700BF00ED00E010B50446BD
:100C400001F0E8FE2048C0F87044C4F898021F4B39
:100C5000036008234360022282600023C3600261B4
:100C600043618361C361036201F010FA30BB182352
:100C700000221146D4F8980201F03DFE58230022CC
:100C80008021D4F8980201F036FEC0230022812191
:100C9000D4F8980201F02FFE4FF48873002201214E
:100CA000D4F8980201F027FE4FF4807300228221CD
:100CB000D4F8980201F01FFE002010BD40F23D1153
:100CC0000348FFF7A3FBD2E7E40F002000680040D1
:100CD0006C58000808B5D0F8980201F051FA18B124
:100CE000022803D0022008BD0020FCE70120FAE71B
:100CF00010B51C4613462246D0F8980201F069FA56
:100D000018B1022803D0022010BD0020FCE701200A
:100D1000FAE708B5D0F8980201F093FA18B1022862
:100D200003D0022008BD0020FCE70120FAE708B547
:100D3000D0F8980201F078FD18B1022803D0022003
:100D400008BD0020FCE70120FAE708B5D0F89802BA
:100D500001F0A1FD18B1022803D0022008BD002037
:100D6000FCE70120FAE7D0F8983211F0800F06D1A5
:100D700001F07F0103EB411191F82A02704701F065
:100D80007F0103EB411191F82A00704708B5D0F8B4
:100D9000980201F00AFA18B1022803D0022008BD17
:100DA0000020FCE70120FAE708B5D0F8980201F02E
:100DB0009CFA18B1022803D0022008BD0020FCE7ED
:100DC0000120FAE708B5D0F8980201F068FA18B1E6
:100DD000022803D0022008BD0020FCE70120FAE72A
:100DE00008B5D0F8980201F079FA08BD10B50446AC
:100DF00011B101290FD010BD836923B9D4F8700453
:100E000000F0D5F9F7E7FFF7E3FB094A136923F090
:100E100006031361F2E7D0F8700400F0BFF9A3698C
:100E2000002BE8D0024A136943F006031361E2E79E
:100E300000ED00E000487047F40100207047D0F852
:100E400098321B6A012B01D10020704702207047A5
:100E500012230B80004870474800002004230B80B9
:100E6000004870475C0000200C230B80004870474E
:100E70003C00002008B50A4628B10549054800F0A5
:100E8000BFFC034808BD0249024800F0B9FCF8E77E
:100E900058140020B058000810B5044C0A462146EA
:100EA000034800F0ADFC204610BD00BF58140020E0
:100EB0009C58000808B50A4628B10549054800F0C5
:100EC0009FFC034808BD0249024800F099FCF8E77E
:100ED00058140020C858000808B50A4628B105492A
:100EE000054800F08DFC034808BD0249024800F0A7
:100EF00087FCF8E7581400208058000808B50A4617
:100F000028B10549054800F07BFC034808BD0249AB
:100F1000024800F075FCF8E7581400208C580008CF
:100F200098B108B50346D0F88C0210B10020C3F880
:100F30008C0209B1C3F888121846012380F8743274
:100F40000270FFF77BFE002008BD0220704719B138
:100F5000C0F88C12002070470220704708B5FFF7D8
:100F6000B9FE002008BD08B5D0F88C3233B11B683B
:100F7000984708B9002008BD0220FCE70220FAE7E4
:100F800008B5D0F88C325B689847002008BD38B5AA
:100F9000044600F52075284600F031F90123C4F815
:100FA0006C32B4F88632C4F8703294F8801201F0D2
:100FB0001F03012B0ED03BB1022B10D001F080019A
:100FC0002046FFF7B4FE03E02946204600F0AFFAC2
:100FD000002038BD2946204600F0DDFAF8E7294612
:100FE000204600F008FBF3E710B5044689BB104625
:100FF000D4F86C32032B03D0052B24D0002034E02E
:10100000D4F84C31D4F8502193420DD99B1AC4F82E
:101010004C319A4206D99AB20146204600F030FC83
:10102000002022E092B2F7E7D4F88C321B692BB192
:1010300094F87422032A01D120469847204600F0F4
:1010400027FC002011E000212046FFF770FE002061
:101050000BE00A46D0F88C329B693BB190F87412D1
:10106000032905D111469847002010BD0220FCE756
:101070000220FAE710B50446002953D11046D4F8EF
:101080006C32022B0CD0042B00D01BB980212046DF
:10109000FFF74DFE94F87832012B3FD000204DE051
:1010A000236A626A93421DD8E169B1FBF2F302FB45
:1010B00013132BB98A4203D8D4F8703299421FD344
:1010C000D4F88C32DB682BB194F87422032A01D156
:1010D0002046984780212046FFF729FE204600F051
:1010E000E2FBD7E79A1A226292B20146204600F04C
:1010F000B0FB00231A4619462046FFF763FEC9E7F6
:1011000000221146204600F0A4FB0021C4F8701212
:101110000B460A462046FFF755FEBBE7002084F841
:1011200078020BE00A46D0F88C325B693BB190F84C
:101130007412032905D111469847002010BD0220E2
:10114000FCE70220FAE770B504464023002211466E
:10115000FFF7CEFD0125C4F844514026C4F8506184
:101160003346002280212046FFF7C2FDA56166625A
:1011700084F874520023C4F86C326360C4F87C3283
:10118000D4F890322BB1D4F88C325B680021204621
:101190009847002070BD01740020704790F87432A9
:1011A00080F87532042380F874320020704790F87C
:1011B000753280F874320020704708B590F87432A8
:1011C000032B01D0002008BDD0F88C32DB69002B46
:1011D000F8D09847F6E7002302E00133DBB2013094
:1011E0000278002AF9D11846704708B54B88012BC0
:1011F00000D008BDC0F87C3200F04AFBF9E70B785C
:1012000003704B7843708B78CA7803EB02234380DA
:101210000B794A7903EB022383808B79CA7903EB3C
:101220000223C380704710B504468021FFF77FFD7D
:1012300000212046FFF77BFD10BD30B583B0054689
:101240000C464A88130A013B0E2B00F29180DFE81E
:1012500003F01B23378F8F73808F8F8F8F8F8F8F2C
:101260000800D0F88832DB690DF10601007C984750
:10127000BDF8062012B1E388002B7DD1E388002B56
:1012800000F0848003B030BDD0F888321B680DF1C7
:101290000601007C9847EBE7037C43B9D0F88C3219
:1012A0009B6A0DF10600984702234370E0E7D0F8EF
:1012B0008C32DB6A0DF10600984702234370D7E7B2
:1012C000D2B2052A34D8DFE802F0030B131B232B1C
:1012D000D0F888325B680DF10601007C9847C7E7BB
:1012E000D0F888329B680DF10601007C9847BFE773
:1012F000D0F88832DB680DF10601007C9847B7E72B
:10130000D0F888321B690DF10601007C9847AFE7E1
:10131000D0F888325B690DF10601007C9847A7E799
:10132000D0F888329B690DF10601007C98479FE751
:101330002146FFF778FFA5E7037C33B9D0F88C325C
:101340005B6B0DF10600984792E72146FFF76BFFB4
:1013500098E7037C43B9D0F88C321B6B0DF1060083
:1013600098470723437083E72146FFF75CFF89E72F
:101370002146FFF758FF85E79A4228BF1A46ADF885
:1013800006200146284600F057FA77E7284600F085
:101390007FFA77E738B504468B88F3B9CB88E3B991
:1013A0004B887F2B19D803F07F0590F87432032BFC
:1013B0000CD080F876522946FFF7E8FC204600F072
:1013C00067FA35B1022384F8743209E0FFF72BFF86
:1013D00006E0012384F8743202E02046FFF723FF81
:1013E00038BD000038B504460D468978284B197081
:1013F00001290ED890F87432022B0ED0032B21D085
:101400002946FFF710FF224B19782046FFF7B8FD59
:1014100002E02946FFF707FF38BD81B14160032391
:1014200080F87432FFF79FFD022803D0204600F0B9
:101430002FFAF1E729462046FFF7F5FEECE700F02A
:1014400027FAE9E789B1436899421DD0D9B2FFF77D
:1014500097FD0F4B197861602046FFF784FD022845
:101460000DD0204600F014FAD6E7022380F874323B
:101470004160FFF785FD204600F00AFACCE72946D7
:101480002046FFF7D0FEC7E700F002FAC4E700BF2E
:101490001404002008B5CB88012B0BD190F87432CE
:1014A0009BB1022B09D9032B0FD10122011D00F0A2
:1014B000C3F901E0FFF7B7FE08BD0146002341F87C
:1014C000083F012200F0B8F9F6E7FFF7ACFEF3E7BA
:1014D00008B590F87432013B022B12D8CB88022B4E
:1014E0000CD10123C360D0F87C320BB10323C3605D
:1014F000022200F10C0100F09FF908BDFFF793FEF6
:10150000FBE7FFF790FEF8E708B590F87432013B6F
:10151000022B09D84B88012B00D008BD0023C0F84E
:101520007C3200F0B5F9F8E7FFF77DFEF5E708B586
:101530000B7803F06003202B05D0402B03D043B180
:10154000FFF771FE03E0D0F88C329B6898470020CB
:1015500008BD4B78092B1BD8DFE803F011171A14CC
:101560001A08051A0E0BFFF768FEF0E7FFF712FFE7
:10157000EDE7FFF737FFEAE7FFF78CFFE7E7FFF755
:10158000A7FFE4E7FFF731FEE1E7FFF7BDFFDEE786
:10159000FFF749FEDBE738B505460C460B7803F04C
:1015A0006003202B06D0402B04D01BB1FFF73BFE7D
:1015B000002038BD95F87432013B022B16D82379F0
:1015C000012B0ED8D5F88C329B68214628469847C7
:1015D000E388002BECD10028EAD1284600F058F926
:1015E000E6E721462846FFF71EFEE1E721462846AA
:1015F000FFF719FEDCE738B504468A880B7803F05C
:101600006003202B08D0D0B2402B05D05BB1204620
:10161000FFF709FE002005E0D4F88C329B682046D5
:101620009847002038BD202B05D1D4F88C329B6818
:1016300020469847F6E74B78012B32D0002B5ED03E
:10164000032B40F0D68094F87432022B06D0032B83
:1016500016D02046FFF7E7FD0020E3E708B1802819
:1016600004D12046FFF7DFFD0020DBE701462046DE
:10167000FFF75DFB80212046FFF759FB0020D1E7F3
:101680004B8823B918B1802801D0CB8823B12046DC
:1016900000F0FEF80020C5E701462046FFF747FBB3
:1016A000F5E794F87432022B06D0032B16D02046AF
:1016B000FFF7B9FD0020B5E708B1802804D1204626
:1016C000FFF7B1FD0020ADE701462046FFF72FFBF5
:1016D00080212046FFF72BFB0020A3E74B88002B3F
:1016E00040F08C8010F07F0F04D1204600F0D0F83D
:1016F000002097E701462046FFF727FBF5E794F81F
:101700007432022B06D0032B29D02046FFF78BFD25
:10171000002087E708B1802812D112F0800F14D181
:1017200000F07F0000EB8000830003F5A073E11858
:1017300000250D600222204600F07EF8284671E761
:101740002046FFF770FD00206CE700F07F0000EB03
:101750008000830003F1100121440431E8E752B214
:10176000002A1EDB00F00F0303EB83039D002544DA
:10177000D5F844311BB3002A26DB00F07F0202EBD0
:101780008202930003F5A073E51808B1802825D1E3
:1017900000232B6002222946204600F04DF800204D
:1017A00040E700F00F0303EB83039D002544AB6982
:1017B000002BE0D12046FFF736FD002032E720461F
:1017C000FFF731FD00202DE700F07F0202EB8202DF
:1017D000930003F1100525440435D6E70146204661
:1017E000FFF7C1FA10B101232B60D3E700232B6070
:1017F000D0E72046FFF717FD002013E7002011E790
:10180000C8B170B50D4616460446FFF7E4FC01303A
:1018100040003080287003236B70022307E00134FE
:101820005A1CD2B2E9540233DBB20021A954217808
:101830000029F4D170BD704710B513460222C0F8DC
:101840006C22C36103620A460021FFF7ADFA002053
:1018500010BD08B513460A460021FFF7A5FA00207F
:1018600008BD10B513460322C0F86C22C0F84831F9
:10187000C0F84C310A460021FFF7A4FA002010BD41
:1018800008B513460A460021FFF79CFA002008BD60
:1018900008B50423C0F86C3200231A461946FFF736
:1018A00083FA002008BD08B50523C0F86C32002378
:1018B0001A461946FFF786FA002008BD10B5D0F881
:1018C0009042D0F894325BB194F80002FF2807D020
:1018D0009B6894F8012221469847FF2384F8003240
:1018E000002010BD4323038000487047980000206B
:1018F0004323038000487047DC000020432303801B
:10190000004870472C0100200A23038000487047DC
:101910002001002038B50446D0F89052FFF760FA55
:10192000C5F80C02D4F890324BB1D4F89432DB688D
:1019300005F50371D5F804029847002038BD022050
:10194000FCE738B5D0F89022D0F89852EAB101EB14
:101950008104A3000344DB693BB105EB4115AD6B8A
:10196000B3FBF5F405FB14331BB10020C2F81402DD
:1019700038BD01EB8102930003440024DC6123465F
:101980002246FFF711FA2046F2E70220F0E770B591
:1019900082B005460C46D0F8906200238DF80730DF
:1019A000ADF804300B7813F0600227D0202A56D10E
:1019B000CA883AB9D0F894329B6800224878984790
:1019C00000204FE013F0800F0CD0D0F894329B68C9
:1019D000314660789847E28831462846FFF72CFF69
:1019E00000203FE04B7886F800328B7986F8013290
:1019F000CA883146FFF735FF002033E04B780A2BC9
:101A000014D00B2B21D01BB1FFF70DFC022029E0D5
:101A100090F87432032B05D1022201A9FFF70CFFC5
:101A200000201FE0FFF7FFFB02201BE090F874325C
:101A3000032B06D101220DF10701FFF7FDFE002067
:101A400010E0FFF7F0FB02200CE090F87432032B5B
:101A500001D1002006E0FFF7E6FB022002E0FFF7DD
:101A6000E2FB022002B070BD38B504468121FFF7C9
:101A700050F90025E56201212046FFF74AF9C4F834
:101A8000585182212046FFF744F92564D4F890325A
:101A90004BB1D4F894325B689847D4F89002FFF7C2
:101AA000CDF9C4F89052002038BD38B50446037C07
:101AB000A3BB4FF4007302228121FFF719F901251E
:101AC000E5624FF40073022229462046FFF710F921
:101AD000C4F858510823032282212046FFF708F951
:101AE000012323644FF40770FFF7A4F90546C4F8F7
:101AF000900268B3D4F894321B6898470023C5F865
:101B00001432C5F81832237CC3B14023D5F804221F
:101B100001212046FFF756F9002038BD402302225C
:101B20008121FFF7E5F80125E562402302222946DD
:101B30002046FFF7DDF8C4F85851CBE74FF40073A7
:101B4000D5F8042201212046FFF73CF90020E4E704
:101B50000120E2E719B1C0F894120020704702207A
:101B60007047D0F89032C3F80812C3F81022002052
:101B70007047D0F89032C3F8041200207047D0F8B4
:101B80009022A2B108B5D2F814320BB1012008BDE1
:101B90000123C2F81432D2F810320363B2F81032C3
:101BA000D2F808228121FFF7FFF80020EFE702209A
:101BB0007047D0F890229AB108B5037C3BB140231E
:101BC000D2F804220121FFF7FDF8002008BD4FF4F0
:101BD0000073D2F804220121FFF7F4F80020F5E7A2
:101BE0000220704710B50446094B1868094BA3FB47
:101BF0000030800900F090F808B1012010BD0022EB
:101C000021464FF0FF3000F047F80020F6E700BF14
:101C100000000020D34D621010B5032000F02AF818
:101C20000020FFF7DFFF10B10124204610BD04465D
:101C3000FEF702FEF9E70000024A13680133136061
:101C4000704700BF58160020014B1868704700BF4E
:101C50005816002038B50446FFF7F6FF0546B4F1E4
:101C6000FF3F00D00134FFF7EFFF401BA042FAD343
:101C700038BD0000074AD36823F4E0631B041B0C43
:101C8000000200F4E060184340F0BF6040F4003010
:101C9000D060704700ED00E030B4174BDB68C3F351
:101CA0000223C3F10704042C28BF04241D1D062DA4
:101CB00018D9033B4FF0FF3505FA04F421EA04017B
:101CC000994005FA03F322EA0303194300280BDBCA
:101CD0000901C9B200F1604000F5614080F80013CD
:101CE00030BC70470023E5E700F00F000901C9B2DE
:101CF000024B1954F4E700BF00ED00E014ED00E0E2
:101D000000F01F02400901239340024A42F82030AC
:101D1000704700BF00E100E00138B0F1807F0AD2D7
:101D2000064B5860064AF02182F823100020986084
:101D300007221A6070470120704700BF10E000E0E2
:101D400000ED00E0042805D0054A136823F00403E1
:101D500013607047024A136843F00403136070472E
:101D600010E000E0704708B5FFF7FCFF08BD000079
:101D7000F0B482B0002336E0042400E00024B44034
:101D80003C4302355B4E46F825405B4C2568D44306
:101D900004EA05064F6817F4803F01D042EA0506C1
:101DA000554D2E606D6804EA05064F6817F4003F34
:101DB00001D042EA0506504D6E60AD6804EA0506A2
:101DC0004F6817F4801F01D042EA05064A4DAE6005
:101DD000ED682C404E6816F4001F01D042EA05045D
:101DE000454AD46001330A6832FA03F47ED00124F4
:101DF0009C402240F6D04D68022D01D0122D10D10A
:101E0000DE08083650F826C003F00705AF000F259E
:101E1000BD402CEA050C0D69BD4045EA0C0540F8B3
:101E2000265006685F000325BD40ED4305EA060C19
:101E30004E6806F00306BE4046EA0C0606604E6891
:101E400006F1FF3CBCF1010F03D9112E01D0122E77
:101E500010D1866805EA060CCE68BE4046EA0C063C
:101E60008660466826EA04044E68C6F300169E4063
:101E700026434660C46825408C68BC402C43C4603F
:101E80004C6814F0805FADD01C4C256E45F0010508
:101E90002566246E04F001040194019C9D08AE1C8B
:101EA000144C54F8267003F00304A6000F24B44029
:101EB00027EA0407B0F1904F3FF460AF104CA04206
:101EC0000ED004F58064A0420CD004F58064A042DA
:101ED0000AD004F58064A0423FF44EAF07244EE7D9
:101EE00001244CE702244AE7032448E702B0F0BC8F
:101EF000704700BF00000140000401400010024094
:101F0000000400480369194201D1002070470120F4
:101F100070470AB98162704781617047002859D0C3
:101F200010B5044690F84130002B43D0242384F8A8
:101F300041302268136823F001031360636822684C
:101F400023F0706313612268936823F40043936065
:101F5000E368012B33D0A368226843F40443936001
:101F6000E368022B31D02268536843F0007343F4D6
:101F7000004353602268D36823F40043D36023698D
:101F800062691343A169226843EA0123D360E369CC
:101F9000216A22680B4313602268136843F001032F
:101FA000136000206064202384F84130206384F8AB
:101FB000420010BD80F84030FEF786FCB6E7A3680B
:101FC000226843F400439360CAE723684FF4006239
:101FD0005A60C8E70120704790F84130DBB2202BEF
:101FE00024D190F84030012B22D0012380F84030DA
:101FF000242380F841300268136823F00103136042
:102000000268136823F4805313600268136819434D
:1020100011600268136843F001031360202380F805
:102020004130002380F84030184670470220704746
:102030000220704790F84130DBB2202B22D190F87B
:102040004030012B20D0012380F84030242380F839
:1020500041300268136823F00103136002681368BB
:1020600023F4706343EA012111600268136843F0AE
:1020700001031360202380F84130002380F84030B2
:10208000184670470220704702207047002875D01C
:10209000F0B587B0044690F82934C3B1032384F81F
:1020A0002934206802F067FA254655F8107B6E4601
:1020B0000FCD0FC62B683360231D0ECB384602F0C0
:1020C00049FA0021206802F060FA002316E080F847
:1020D0002834FEF741FDE1E704EB4312012182F8C9
:1020E000291082F82830D386002182F82B109163C2
:1020F000D1639A1C5201A1500133DBB20E2BEBD9F4
:10210000002312E004EB4311002281F8292281F818
:10211000283281F82B22C1F83822C1F83C2203F181
:102120001201490162500133DBB20E2BEAD9254678
:1021300055F8107B6E460FCD0FC62B683360231DFC
:102140000ECB384602F023FA002384F82430012312
:1021500084F82934E369012B08D0236A012B09D0C4
:10216000206802F03FFD002007B0F0BD204600F0DF
:10217000ECFBF2E7204600F0D6FBF1E701207047C8
:1021800090F82834012B0ED010B50446012380F8B6
:102190002834006802F01EFD206802F0E2F90020F9
:1021A00084F8280410BD0220704790F82834012BD1
:1021B0000DD010B50446012380F8283480F824108F
:1021C000006802F001FD002084F8280410BD022000
:1021D000704770B511F0800F23D101F00F056D012C
:1021E00005F50A7404440544002685F8296201F0C7
:1021F0000F0121702261E370627802B1E181022B4C
:102200001AD090F82834012B19D00546012380F804
:1022100028342146006802F0D0F9002085F828040F
:1022200070BD01F00F056D0105F12804044405445B
:10223000012685F82960DAE700232371E1E702200F
:10224000EEE710B511F0800F1CD101F00F035B0118
:1022500003F50A7202440344002483F8294201F082
:102260000F03137090F82834012B16D00446012375
:1022700080F828341146006802F04CFB002084F8F6
:10228000280410BD01F00F035B0103F12802024492
:102290000344012483F82940E1E70220F1E770B507
:1022A00001F00F056C0104F50A7101440444C4F8FF
:1022B0003C2205F1120252018618835000237360FC
:1022C00084F8293284F8285225B1006802F0ABFC6A
:1022D000002070BD006802F0A6FCF9E701F00F01D4
:1022E000123100EB41118888704770B501F00F057D
:1022F0006C0104F1280101440444E263AA1C520168
:102300008618835000237360012384F8293084F8F1
:10231000285025B1006802F086FC002070BD0068DE
:1023200002F081FCF9E7F8B504462068B0F84430C3
:1023300013F4004F00F08781B0F844309BB213F0E3
:102340000F0540F0B58013F0100F44D003889BB206
:1023500013F4006F6DD113F4004FE6D0038823F01F
:1023600070031B051B0D03802068B0F8503094F8F3
:10237000282203EBC2030344B3F80634C3F3090372
:10238000C4F84432002B72D100212046FEF70CFC29
:102390002368B3F850201344D4F83822002A74D1AB
:1023A000B3F8062422F440629204920C6FEA42428F
:1023B0006FEA5242A3F80624226813889BB223F4E2
:1023C000804323F0700383F4405343F4004343F00D
:1023D00080031380A9E703889BB223F4E14323F031
:1023E00070039BB203802268B2F8503094F8281032
:1023F00003EBC1031344B3F80234C3F3090363646A
:10240000E26B1344E36300212046FEF7D7FB94F808
:102410002430002B89D0236C002B86D194F82430F3
:10242000226843F08003A2F84C30002384F8243063
:102430007BE7B0F8503094F8282203EBC203034442
:10244000B3F80634C3F30903C4F84432B4F82E22B7
:1024500004F5866102F049FD2268138823F07003B9
:102460001B051B0D13802046FEF796FB5DE7B4F8B5
:102470002E22D4F83C1202F038FDD4F84422D4F8CD
:102480003C321344C4F83C327EE73D2A08D8510858
:1024900012F0010F00D001318902A3F806148BE776
:1024A00052096FEAC2626FEA5242A3F8062483E738
:1024B00030F82560B6B216F4004F2DD116F0800F1B
:1024C0003FF433AF226832F825309BB223F4E14366
:1024D00023F070039BB222F825302268B2F8503006
:1024E00004EB451090F8281003EBC1031344B3F834
:1024F0000224C2F30902AB1C5B01E1184A60C16B04
:102500000A44C263E358002B40F0958090F82810ED
:102510002046FEF753FB08E730F8253023F0700320
:102520001B051B0D20F8253004EB451393F83432BE
:10253000C3B92068B0F8503004EB451292F8282255
:1025400003EBC2030344B3F80674C7F309077FB370
:1025500004EB45113B46B1F82E22D1F83C1202F0B3
:10256000C4FC25E0206804EB451393F8282230F8DA
:10257000223013F4804F41D0B0F8503003EBC20347
:102580000344B3F80274C7F309076FBB226804EB76
:10259000451393F8281232F821309BB223F4E0431C
:1025A00023F0700343F4004343F0C00322F82130CA
:1025B00005F112035B01E1184A683A444A6004EBF2
:1025C0004511D1F83C223A44C1F83C22E3581BB1F2
:1025D000D1F838128F4226D204EB451393F8281213
:1025E0002046FEF7E1FA69E704EB45113B46B1F8F6
:1025F0003022D1F83C1202F078FCC7E7B0F8503036
:1026000003EBC2030344B3F80674C7F30907002FB2
:10261000BCD004EB45113B46B1F83222D1F83C1254
:1026200002F063FCB2E704EB451191F82812204652
:10263000FFF735FE42E704EB451595F828102046D4
:10264000FFF753FE71E60020F8BD10B504460068A0
:1026500002F0D0FA10F4004F40F09880206802F0A9
:10266000C9FA10F4806F40F09580206802F0C2FA39
:1026700010F4804F08D02268B2F844309BB223F4A3
:1026800080439BB2A2F84430206802F0B3FA10F401
:10269000005F08D02268B2F844309BB223F40053A4
:1026A0009BB2A2F84430206802F0A4FA10F4805FD4
:1026B00021D02268B2F840309BB223F004039BB2D1
:1026C000A2F840302268B2F840309BB223F00803F1
:1026D0009BB2A2F8403094F86034012B6BD02046B6
:1026E000FEF798FA2268B2F844309BB223F4805384
:1026F0009BB2A2F84430206802F07CFA10F4006F1C
:1027000060D1206802F076FA10F0800F28D022689D
:10271000B2F844309BB223F080039BB2A2F844305D
:1027200094F86034002B6ED12268B2F8403043F048
:102730000403A2F840302268B2F8403043F00803A6
:10274000A2F84030012184F860142368B3F85430B3
:102750009B0803F03C03C4F864342046FEF746FBB4
:10276000206802F047FA10F4007F50D1206802F090
:1027700041FA10F4807F08D02268B2F844309BB24E
:1027800023F480739BB2A2F8443010BD2046FFF7BB
:10279000CAFD63E72268B2F844309BB223F4806339
:1027A0009BB2A2F844302046FEF717FA00212046DB
:1027B000FFF7FBFC59E7002184F860142046FEF780
:1027C00015FB8CE72268B2F8403043F00803A2F80A
:1027D00040302268B2F844309BB223F400639BB2CD
:1027E000A2F844302268B2F8403043F00403A2F863
:1027F0004030206802F0FEF910F4805F81D120465D
:10280000FEF7F8F97DE72046FEF7F4F9A8E722681D
:10281000B2F844309BB223F400739BB2A2F8443068
:102820002046FEF7D4F9A1E738B501F00F0543685B
:102830009D422CD811F0800F1AD14B0103F50A717B
:1028400001440344002283F8292201238B700D7078
:1028500090F82834012B1CD00446012380F828343A
:10286000006802F041F965B1002084F828040FE007
:102870006B0103F1280101440344012283F829205C
:10288000E3E704F58661206802F0B7F9ECE7012080
:1028900038BD0220FCE701F00F034268934226D8BE
:1028A00010B511F0800F19D15A0102F50A710144D7
:1028B0000244002482F8294200228A700B7090F8AA
:1028C0002834012B15D00446012380F828340068F1
:1028D00002F02FF9002084F8280410BD5A0102F1FB
:1028E000280101440244012482F82940E4E7012040
:1028F00070470220F1E711F0800F0CD001F00F01BA
:102900004901283101445AB101220A730B811B0C81
:102910004B8100207047490101F50A710144F2E73B
:102920000A73CB80F5E703680122C0F86C24B3F882
:10293000582042F00102A3F85820B3F8582042F082
:102940000202A3F8582000207047024603680121C4
:10295000C0F86814002082F86004B3F854200A43D9
:10296000A3F85420B3F8542042F00202A3F85420F4
:1029700070470000024B186800F4C060704700BF49
:1029800000700040B0F5007F0FD01F4B1B6803F4B0
:10299000C063B3F5806F34D01B4A136823F4C0635F
:1029A00043F48063136000207047174B1B6803F4E7
:1029B000C063B3F5007F22D0134A136823F4C063C9
:1029C00043F400731360114B1A68322303FB02F3C4
:1029D0000F4AA2FB03239B0C013300E0013B0A4A90
:1029E000526912F4806F01D0002BF7D1064B5B695E
:1029F00013F4806F01D1002070470320704700203E
:102A000070470020704700BF0070004000000020A9
:102A100083DE1B43024A536843F48063536070476C
:102A20000070004030B583B00546204B9B6D13F01D
:102A3000805F0BD0FFF79EFFB0F5007F17D0802D91
:102A40001FD82DD0702D2DD000211BE0174CA36D69
:102A500043F08053A365A36D03F080530193019B62
:102A6000FFF788FFA36D23F08053A365E4E7802D73
:102A700003D9A02D03D9022104E0002102E00121A5
:102A800000E003210A4A136823F007030B43136095
:102A9000136803F007038B4206D0012003B030BD5A
:102AA0000221EFE70121EDE70020F7E700100240E7
:102AB00000200240314A9368D26802F0030213F00A
:102AC0000C030AD00C2B06D0042B1FD0082B20D0CF
:102AD0000020014610E0012AF6D1284A126812F0BF
:102AE000080F0CD1254AD2F89420C2F303222449BE
:102AF00051F8221043B100200C2B0DD070471F4A13
:102B00001268C2F30312F2E70846F5E71D480021F8
:102B1000F2E71D480021EFE7184BDA6802F00302E4
:102B2000DB68C3F302130133022A0AD0032A1AD046
:102B3000B1FBF3F3114AD068C0F3062000FB03F0A9
:102B400008E01048B0FBF3F30C4AD068C0F306204D
:102B500000FB03F0094BDB68C3F3416301335B0007
:102B6000B0FBF3F0CAE70848B0FBF3F3034AD068C0
:102B7000C0F3062000FB03F0ECE700BF00100240AA
:102B80003C5800080024F40000127A00002800F0ED
:102B9000C182F0B583B00446AC4B9D6805F00C05CE
:102BA000DE6806F00306036813F0100F5DD0E5B190
:102BB0000C2D18D0A369002B00F0B780A34A13682E
:102BC00043F001031360FFF73FF807469F4B1B6874
:102BD00013F0020F40F09680FFF736F8C01B022872
:102BE000F4D90323A2E2012EE4D1984B1B6813F021
:102BF000020F03D0A369002B00F08F82206A934B51
:102C00001B6813F0080F5DD0904B1B6803F0F003B6
:102C100098425ED9FFF706FF002840F080828B4B78
:102C20001A6842F008021A601A6822F0F002216A5B
:102C30000A431A605A6822F47F42E16942EA01229B
:102C40005A60FFF737FF814B9B68C3F30313804A39
:102C5000D35C03F01F03D8407E4B18600020FEF7C2
:102C6000C1FF0346002840F06182236813F0010F82
:102C70007AD0082D6FD00C2D6BD06368B3F5803FF0
:102C800000F09180B3F5A02F00F093806F4B1A688D
:102C900022F480321A601A6822F480221A60636873
:102CA000002B00F09380FEF7CFFF0746674B1B68B1
:102CB00013F4003F58D1FEF7C7FFC01B6428F5D9B5
:102CC000032333E2614BD3F894301B0903F0F00384
:102CD0009EE75E4B1A6842F008021A601A6822F0FA
:102CE000F002216A0A431A605A6822F47F42E169BD
:102CF00042EA01225A60206AFFF794FE0028A0D021
:102D0000012313E2514B1A6842F008021A601A6854
:102D100022F0F002216A0A431A605A6822F47F42C4
:102D2000E16942EA01225A609FE7484A136823F0AA
:102D300001031360FEF788FF0746444B1B6813F03E
:102D4000020F92D0FEF780FFC01B0228F5D90323A3
:102D5000ECE1032E91D13D4B1B6813F4003F03D0EF
:102D60006368002B00F0DD81236813F0020F4FD061
:102D7000042D3CD00C2D38D0E368002B75D0334A9D
:102D8000136843F480731360FEF75EFF06462F4B13
:102D90001B6813F4806F5FD1FEF756FF801B02287B
:102DA000F5D90323C2E1294A136843F48033136041
:102DB00075E703F18043A3F53C331A6842F480229F
:102DC0001A601A6842F480321A6068E7FEF73CFF26
:102DD00007461E4B1B6813F4003FC5D0FEF734FFB7
:102DE000C01B6428F5D90323A0E1022EC4D1174BE0
:102DF0001B6813F4806F03D0E368002B00F093810D
:102E0000124A536823F0F853216943EA016353607F
:102E1000236813F0080F53D06369002B39D00B4A95
:102E2000D2F8943043F00103C2F89430FEF70CFF5F
:102E30000646064BD3F8943013F0020F40D1FEF74C
:102E400003FF801B0228F4D903236FE10010024026
:102E50002C58000800000020B74A536823F0F853AC
:102E6000216943EA01635360D2E7B34A136823F44C
:102E700080731360FEF7E8FE0646AF4B1B6813F441
:102E8000806FC5D0FEF7E0FE801B0228F5D9032332
:102E90004CE1A94AD2F8943023F00103C2F89430EF
:102EA000FEF7D2FE0646A44BD3F8943013F0020F7F
:102EB00006D0FEF7C9FE801B0228F4D9032335E1B2
:102EC000236813F0040F7AD09B4B9B6D13F0805F47
:102ED0000BD1994B9A6D42F080529A659B6D03F02D
:102EE00080530193019B012600E00026934B1B6851
:102EF00013F4807F26D0A368012B37D0052B3DD05B
:102F00008D4BD3F8902022F00102C3F89020D3F823
:102F1000902022F00402C3F89020A368002B3BD03D
:102F2000FEF792FE0746844BD3F8903013F0020F61
:102F300044D1FEF789FEC01B41F288339842F2D992
:102F40000323F3E07D4A136843F480731360FEF7B4
:102F50007BFE0746794B1B6813F4807FCBD1FEF7CD
:102F600073FEC01B0228F5D90323DFE0724AD2F8B2
:102F7000903043F00103C2F89030CEE76E4BD3F8A7
:102F8000902042F00402C3F89020D3F8902042F041
:102F90000102C3F89020C0E7FEF756FE0746664BD5
:102FA000D3F8903013F0020F08D0FEF74DFEC01B8F
:102FB00041F288339842F2D90323B7E0E6B9236897
:102FC00013F0200F35D0636AE3B15B4AD2F8983032
:102FD00043F00103C2F89830FEF736FE0646564B22
:102FE000D3F8983013F0020F23D1FEF72DFE801B8B
:102FF0000228F4D9032399E04F4A936D23F08053BC
:103000009365DCE74C4AD2F8983023F00103C2F80C
:103010009830FEF719FE0646474BD3F8983013F068
:10302000020F06D0FEF710FE801B0228F4D90323FE
:103030007CE0A36A002B78D00C2D7AD0022B23D011
:103040003D4B1A6822F080721A601B6813F0006F03
:1030500004D1394AD36823F00303D360364AD368D6
:1030600023F0887323F48033D360FEF7EDFD04462C
:10307000314B1B6813F0007F4AD0FEF7E5FD001BC3
:103080000228F5D9032351E02B4A136823F08073FB
:103090001360FEF7D9FD0546274B1B6813F0007F30
:1030A00006D0FEF7D1FD401B0228F5D903233DE0F1
:1030B000236B5A1E636B1B0243EA0213E26A13433B
:1030C000E26B5208013A43EA4253226C5208013A39
:1030D00043EA4263A26B43EAC263174AD3601368B0
:1030E00043F080731360D36843F08073D360FEF7BE
:1030F000ABFD0446104B1B6813F0007F06D1FEF7B2
:10310000A3FD001B0228F5D903230FE000230DE0E7
:1031100000230BE0012318467047012306E001233A
:1031200004E0012302E0012300E00023184603B07D
:10313000F0BD0123FAE700BF00100240007000401C
:10314000002800F09A8070B504464E4B1B6803F0CF
:1031500007038B420CD24B4A136823F007030B433F
:103160001360136803F007038B4201D0012070BD88
:103170000D46236813F0010F39D06368032B09D083
:10318000022B26D063BB404A126812F0020F06D110
:103190000120ECE73C4A126812F0007F6FD03A49F8
:1031A0008A6822F0030213438B60FEF74DFD06464A
:1031B000354B9B6803F00C036268B3EB820F16D0AB
:1031C000FEF742FD801B41F288339842F0D903207C
:1031D000CDE72D4A126812F4003FE0D10120C6E786
:1031E000294A126812F4806FD9D10120BFE7236801
:1031F00013F0020F06D0244A936823F0F003A1686D
:103200000B4393601F4B1B6803F00703AB420CD9C1
:103210001C4A136823F007032B431360136803F061
:103220000703AB4201D00120A1E7236813F0040F8C
:1032300006D0154A936823F4E063E1680B4393607A
:10324000236813F0080F07D00F4A936823F46053E4
:10325000216943EAC1039360FFF72CFC0A4B9B688A
:10326000C3F30313094AD35C03F01F03D840084B90
:1032700018600020FEF7B6FC79E7012070470120B6
:1032800075E700BF00200240001002402C580008E3
:1032900000000020014B1868704700BF00000020AC
:1032A000F8B5594BDB6813F0030F18D0564BDB68A9
:1032B00003F003030268934202D001252846F8BDBB
:1032C000002A00F09F80504BDB68C3F302130133E8
:1032D0004268934201D00125F0E700251AE0036817
:1032E000022B58D0032B5DD0012B01D001250FE01C
:1032F000454A126812F0020F60D0434DEA6822F08E
:1033000073024468013C43EA04131343EB60002555
:10331000002DD3D10F4604463B4A136823F0806347
:103320001360FEF791FC0646374B1B6813F0006FE5
:1033300005D0FEF789FC801B0228F5D90325002D56
:10334000BCD1002F3CD130490B6923F0784323F4E2
:10335000FE43A068E268D20642EA002213430B61F2
:10336000294A136843F080631360FEF76DFC06463C
:10337000254B1B6813F0006F05D1FEF765FC801B21
:103380000228F5D90325002D98D11F4A1369A16998
:103390000B43136192E71C4A126812F4806FACD1A0
:1033A0000125B5E7184A126812F4003FA5D1164A64
:1033B000126812F4802FA0D10125A9E70125A7E703
:1033C000012F0FD01048026922F0C06222F4FE42A1
:1033D000A16863695B08013B5B0643EA0123134371
:1033E0000361BDE70848026922F4C00222F4FE42EC
:1033F000A16823695B08013B5B0543EA0123134392
:103400000361ADE7012559E7001002402DE9F041C5
:1034100082B00446036813F4006F26D0436CB3F502
:10342000000F06D0B3F5400F1DD09BB101263746E3
:103430001DE0BD4AD36843F48033D3600027BA4A05
:10344000D2F8883023F44003616C0B43C2F8883013
:1034500000260CE000210430FFF722FF0746002879
:10346000EDD0064603E00027E9E70026374623684B
:1034700013F4003F6BD0AC4B9B6D13F0805F4CD1CD
:10348000A94B9A6D42F080529A659B6D03F0805370
:103490000193019B4FF00108A44A136843F4807321
:1034A0001360FEF7D1FB0546A04B1B6813F4807F29
:1034B00005D1FEF7C9FB401B0228F5D90327002FD1
:1034C00040D1994BD3F8903013F4407315D0E26D8E
:1034D0009A4212D0944AD2F8903023F44073D2F832
:1034E000901041F48031C2F89010D2F8901021F47D
:1034F0008031C2F89010C2F8903013F0010F0FD154
:10350000002F40F0F780884AD2F8903023F44073BF
:10351000E16D0B43C2F8903015E04FF00008BBE7B7
:10352000FEF792FB0546804BD3F8903013F0020F64
:10353000E6D1FEF789FB401B41F288339842F2D96D
:103540000327DDE73E46B8F1000F40F0D580236841
:1035500013F0010F08D0744AD2F8883023F0030327
:10356000216A0B43C2F88830236813F0020F08D099
:103570006D4AD2F8883023F00C03616A0B43C2F81D
:103580008830236813F0040F08D0674AD2F88830D7
:1035900023F03003A16A0B43C2F88830236813F08C
:1035A000200F08D0604AD2F8883023F44063E16AE3
:1035B0000B43C2F88830236813F4007F08D05A4ABE
:1035C000D2F8883023F44023E16B0B43C2F88830F3
:1035D000236813F4806F08D0534AD2F8883023F45C
:1035E0004013216C0B43C2F88830236813F0400F5E
:1035F00008D04D4AD2F8883023F44053216B0B4356
:10360000C2F88830236813F0800F08D0464AD2F8F9
:10361000883023F44043616B0B43C2F88830236841
:1036200013F4807F08D0404AD2F8883023F4403326
:10363000A16B0B43C2F88830236813F4005F0FD0EE
:10364000394AD2F8883023F04063A16C0B43C2F8AA
:103650008830A36CB3F1006F54D0B3F1806F56D0B3
:10366000236813F4002F0FD02F4AD2F8883023F0AC
:103670004063E16C0B43C2F88830E36CB3F1006F38
:103680004DD0B3F1806F53D0236813F4802F0FD047
:10369000254AD2F8883023F04063216D0B43C2F8ED
:1036A0008830236DB3F1006F4AD0B3F1806F4CD0F6
:1036B000236813F4804F0CD01B4AD2F8883023F0D3
:1036C0004053616D0B43C2F88830636DB3F1805F86
:1036D00043D0236813F4004F08D0134AD2F888303F
:1036E00023F08043A16D0B43C2F88830304602B00E
:1036F000BDE8F0813E4626E70B4A936D23F08053E8
:10370000936524E7D36843F48013D360A8E70121CD
:10371000201DFFF7C5FD0028A2D00646A0E7D3680C
:1037200043F48013D360AFE7001002400070004004
:103730000121201DFFF7B4FD0028A5D00646A3E710
:10374000D36843F48013D360B2E70121201DFFF753
:10375000A7FD0028ACD00646AAE70221201DFFF7EE
:103760009FFD0028B5D00646B3E700BFF8B5054673
:103770000F4616461C462B689B6837EA03030CBFAE
:1037800001230023B34237D0B4F1FF3FF3D0FEF75B
:103790005BFA069BC01AA04201D2002CEBD12A682A
:1037A000536823F0E00353606B68B3F5827F0BD05E
:1037B000AB6AB3F5005F14D0012385F85D300023B8
:1037C00085F85C30032018E0AB68B3F5004F02D0F9
:1037D000B3F5806FECD12A68136823F040031360BF
:1037E000E6E72A68136823F4005313602A68136815
:1037F00043F400531360DFE70020F8BDF8B5074637
:103800000C4615461E4602E0B6F1FF3F0BD13A6862
:1038100093682340AB423BD0B4F5C06FF4D1002D88
:10382000F2D1137BF0E7FEF70FFA069BC01AB04205
:1038300001D2002EEBD13A68536823F0E0035360C5
:103840007B68B3F5827F0BD0BB6AB3F5005F14D001
:10385000012387F85D30002387F85C30032018E0EF
:10386000BB68B3F5004F02D0B3F5806FECD13A6876
:10387000136823F040031360E6E73A68136823F403
:10388000005313603A68136843F400531360DFE792
:103890000020F8BD70B582B004460D461646009271
:1038A0000B4600224FF4C051FFF7A8FFB8B90096AD
:1038B0002B46002280212046FFF758FFB8B900961A
:1038C0002B4600224FF4C0612046FFF797FF0346C6
:1038D00050B1236E43F020032366032304E0236EDC
:1038E00043F0200323660323184602B070BD236E05
:1038F00043F0200323660323F6E770B582B0044645
:103900000D4616464368B3F5827F0FD000962B46CE
:10391000002280212046FFF729FF034698B96268FC
:10392000B2F5827F15D0184602B070BD8368B3F53A
:10393000004F02D0B3F5806FE8D12268136823F0FE
:1039400040031360E2E7236E43F020032366032362
:10395000E9E7A268B2F5004F02D0B2F5806FE2D17C
:1039600000962B4600224FF4C0612046FFF746FF29
:1039700003460028D7D0236E43F020032366032399
:10398000D1E7002853D010B504460023836290F895
:103990005D30002B40D0022384F85D30226813682C
:1039A00023F040031360E368B3F5E06F39D90022D8
:1039B000B3F5706F04D0B3F5E06F01D00021A162C0
:1039C000216B21B9B3F5E06F2ED90223236363681D
:1039D000A1680B4321690B4361690B43A16901F4A1
:1039E00000710B43E1690B43216A0B43A06A216814
:1039F00003430B60638B03F00403616A0B43616B49
:103A00000B43E1680B43216813434B6000202066A1
:103A1000012384F85D3010BD80F85C30FCF77EFF38
:103A2000B9E74FF48052C3E701232363CFE70120B6
:103A300070472DE9F843DDF8208090F85C40012CB8
:103A400000F05C811D4617460E460446012380F8AF
:103A50005C30FEF7F9F8814694F85D00C0B2636807
:103A6000012814D0B3F5827F09D00223012284F803
:103A70005D20002284F85C201846BDE8F883A36826
:103A8000002B40F02D81042801D00223EEE7002E08
:103A900000F02881002F00F02781002D00F0268102
:103AA00094F85D30DBB2042B02D0052384F85D303E
:103AB000002323662764A4F84650A4F84450A66364
:103AC000E587A587E3642365E368B3F5E06F01D874
:103AD000012D22D92268536823F480535360236850
:103AE0001A6812F0400F03D11A6842F040021A60BF
:103AF000E368B3F5E06F56D963680BB1012D0AD1C5
:103B0000A26B23681288DA60A36B0233A363E38F8E
:103B1000013B9BB2E387012525E02268536843F40B
:103B200080535360DBE723689A6812F0010F10D0CE
:103B3000B4F8462092B262B1DA68236C1A80236C22
:103B400002332364B4F84630013B9BB2A4F84630FC
:103B50000125FEF779F8A0EB0900404503D3B8F141
:103B6000FF3F40F0C580E38F9BB22BB9B4F84630DD
:103B70009BB2002B00F0A78023689A6812F0020F16
:103B8000D1D0E28F92B2002ACDD0002DCBD0A26B43
:103B90001288DA60A36B0233A363E38F013B9BB20D
:103BA000E3870025BFE763680BB1012D0ED1E38FDA
:103BB0009BB2012B0CD9A26B23681288DA60A36B2D
:103BC0000233A363E38F023B9BB2E387012547E007
:103BD000A26B236812781A73A36B0133A363E38F7C
:103BE000013B9BB2E387F1E7E28F92B2012A0BD946
:103BF000A26B1288DA60A36B0233A363E38F023BEC
:103C00009BB2E38700253CE0A26B12781A73A36B8A
:103C10000133A363E38F013B9BB2E387002530E0D0
:103C20002268536843F48053536001250CE0226CF2
:103C30001B7B1370236C01332364B4F84630013BC3
:103C40009BB2A4F846300125FDF7FEFFA0EB09006A
:103C5000404502D3B8F1FF3F4CD1B8F1000F4BD033
:103C6000E38F9BB21BB9B4F846309BB25BB32368B9
:103C70009A6812F0020F04D0E28F92B20AB1002DBE
:103C8000B2D123689A6812F0010FDDD0B4F8462053
:103C900092B2002AD8D0B4F8462092B2012AC6D9EE
:103CA000DA68236C1A80236C02332364B4F846303C
:103CB000023B9BB2A4F84630B4F846309BB2012BCD
:103CC000AED90125C0E74A4641462046FFF7E2FD4E
:103CD000034600283FF4CAAE202323660123C5E62D
:103CE0000223C3E60123C1E60123BFE60123BDE6AB
:103CF0000323BBE60323B9E60323B7E60223BBE6AF
:103D00002DE9F04182B004460F4690461D464368B7
:103D1000B3F5827F19D094F85C30012B00F0B880A5
:103D2000012384F85C30FDF78FFF064694F85D3080
:103D3000DBB2012B15D00220012384F85D30002373
:103D400084F85C3002B0BDE8F0818368002BE2D1DA
:103D5000042380F85D30009513460A46FFF769FE9C
:103D6000F0E7002F00F08680B8F1000F00F08480AB
:103D7000042384F85D30002323662764A4F844807C
:103D8000A4F84680A363A387E387E3642365E3681D
:103D9000B3F5E06F16D92268536823F4805353605B
:103DA000A368B3F5004F13D023681A6812F0400FD0
:103DB00003D11A6842F040021A60E368B3F5E06F7D
:103DC00016D935E02268536843F480535360E7E71F
:103DD0002268136823F480431360E5E7FDF734FF9E
:103DE000801BA84202D3B5F1FF3F47D1002D47D039
:103DF000B4F846309BB2002B30D023689A6812F09A
:103E0000010FEBD0226C1B7B1370236C01332364F6
:103E1000B4F84630013B9BB2A4F84630E8E7FDF722
:103E200013FF801BA84202D3B5F1FF3F2AD15DB337
:103E3000B4F846309BB28BB123689A6812F0010F38
:103E4000EDD0DA68236C1A80236C02332364B4F853
:103E50004630013B9BB2A4F84630E9E7324629469A
:103E60002046FFF74AFD08B120232366236E6BB975
:103E7000002061E701205FE701205DE703205BE7A9
:103E8000032059E7032057E7032055E7012053E7B4
:103E9000022057E730B4036A23F001030362036A88
:103EA0004468826922F4803222F073020D682A434A
:103EB00023F002038D682B43144DA84207D005F56B
:103EC000A055A84203D005F58065A84205D123F08E
:103ED0000803CD682B4323F004030C4DA84207D000
:103EE00005F5A055A84203D005F58065A84205D187
:103EF00024F440754C692C438D692C4344608261E5
:103F00004A684263036230BC704700BF002C014026
:103F100030B4036A23F480730362036A4268C4699D
:103F200024F4803424F073040D682C4323F40073CC
:103F30008D6843EA0523124DA84219D0104DA842BE
:103F400007D005F5A055A84203D005F58065A84225
:103F500007D122F440524D6942EA05128D6942EAC6
:103F600005124260C4614A68C263036230BC704794
:103F700023F40063CD6843EA052323F48063DDE77F
:103F8000002C014030B4036A23F480530362026AB8
:103F90004468C36923F0807323F4E6430D6843EA61
:103FA000052322F400528D6842EA05320B4DA842E7
:103FB00007D005F5A055A84203D005F58065A842B5
:103FC00004D124F480444D6944EA85144460C361FB
:103FD0004B680364026230BC704700BF002C014094
:103FE00030B4036A23F480330362036A4468426D89
:103FF00022F4803222F070020D682A4323F4003349
:104000008D6843EA05430B4DA84207D005F5A0553E
:10401000A84203D005F58065A84204D124F4803479
:104020004D6944EA0524446042654A68826503623A
:1040300030BC7047002C014030B4036A23F4801375
:104040000362026A4468436D23F0807323F4E04303
:104050000D6843EA052322F400128D6842EA0552F6
:104060000B4DA84207D005F5A055A84203D005F591
:104070008065A84204D124F480244D6944EA852453
:10408000446043654B68C365026230BC704700BF43
:10409000002C014010B4036A046A24F00104046295
:1040A000846924F0F00444EA021223F00A030B436B
:1040B0008261036210BC704710B4036A23F01003DE
:1040C00003628469036A24F4704444EA023223F0F0
:1040D000A00343EA01138261036210BC7047836846
:1040E00023F07003194341F0070181607047704766
:1040F00003681A4A904202D0B0F1804F03D123F0F6
:1041000070034A681343154A90420AD0B0F1804FB9
:1041100007D002F5A052904203D002F5806290428F
:1041200003D123F44073CA68134323F080034A6920
:10413000134303608B68C3620B688362074B98422A
:1041400007D003F5A053984203D003F5806398424B
:1041500001D10B690363012343617047002C0140C7
:10416000A8B110B5044690F83D305BB1022384F845
:104170003D30211D2068FFF7BBFF012384F83D304F
:10418000002010BD80F83C30FCF710FCEEE7012069
:104190007047A8B110B5044690F83D305BB10223DA
:1041A00084F83D30211D2068FFF7A2FF012384F829
:1041B0003D30002010BD80F83C30FFF798FFEEE75F
:1041C0000120704730B4036A23F010030362036ACE
:1041D0004468826922F0807222F4E6420D6842EA65
:1041E000052223F020038D6843EA0513124DA842EF
:1041F00019D0114DA84207D005F5A055A84203D00B
:1042000005F58065A84207D124F440644D6944EA6D
:1042100085048D6944EA8504446082614A6882634A
:10422000036230BC704723F08003CD6843EA051376
:1042300023F04003DDE700BF002C014038B590F8C3
:104240003C30012B00F092800D460446012380F89B
:104250003C30022380F83D30142A1ED8DFE802F0FB
:104260000B1D1D1D241D1D1D381D1D1D4B1D1D1D40
:104270005F1D1D1D72000068FFF70CFE2268936928
:1042800043F0080393612268936923F00403936168
:104290002268936929690B439361012384F83D30B7
:1042A000002084F83C0038BD0068FFF78BFF2268CF
:1042B000936943F4006393612268936923F48063F4
:1042C000936122689369296943EA01239361E4E7D2
:1042D0000068FFF71DFE2268D36943F00803D3612D
:1042E0002268D36923F00403D3612268D369296962
:1042F0000B43D361D1E70068FFF744FE2268D3691E
:1043000043F40063D3612268D36923F48063D361EB
:104310002268D369296943EA0123D361BDE70068B4
:10432000FFF75EFE2268536D43F008035365226871
:10433000536D23F0040353652268536D29690B43C1
:104340005365AAE70068FFF777FE2268536D43F4D0
:10435000006353652268536D23F4806353652268BC
:10436000536D296943EA0123536596E702209AE7D2
:1043700010B4846824F47F4442EA03230B432343AC
:10438000836010BC7047000090F83C30012B73D064
:1043900010B50446012380F83C30022380F83D30FC
:1043A00002689068354B034093600B68402B59D0EE
:1043B00010D9702B3CD01BD8502B49D0602B30D15A
:1043C000CA6849682068FFF777FE60212068FFF718
:1043D00086FE26E0102B06D004D9202B03D0302BEC
:1043E00001D01EE0EBB919462068FFF778FE18E00F
:1043F000B3F5805F0ED0B3F5005F12D1CB684A6889
:1044000089682068FFF7B4FF2268936843F480430B
:10441000936006E02268936823F4803323F0070357
:104420009360012384F83D30002084F83C0010BDE7
:10443000CB684A6889682068FFF79AFF226893680A
:1044400023F4803323F0770343F077039360E8E7A6
:10445000CA6849682068FFF71DFE50212068FFF7F1
:104460003EFEDEE7CA6849682068FFF713FE402178
:104470002068FFF734FED4E7022070478800FEFF73
:1044800010B401F01F01012303FA01F4036A23EAC7
:1044900004030362036A8A401343036210BC70473B
:1044A00010B5044601220068FFF7EAFF2368104AAE
:1044B000934207D002F5A052934203D002F58062E6
:1044C000934203D15A6C42F400425A6422689168C4
:1044D000084B0B40062B09D09168064B0B40B3F5F7
:1044E000803F03D0136843F001031360002010BD28
:1044F000002C01400700010090F83C30012B25D032
:1045000030B4012380F83C30022380F83D3002684B
:10451000536895680E4CA24213D023F070030C68C8
:10452000234325F080048968214353600368996020
:10453000012380F83D30002380F83C30184630BC21
:10454000704723F470034C682343E6E7022070476A
:10455000002C014084B001A880E80E00002004B0C7
:104560007047B0F8403043F43F4343F08003A0F875
:10457000403000207047B0F8403023F47E535B0495
:104580005B0CA0F84030002070470020704784B0DA
:1045900038B505AC84E80E000123A0F840300024B3
:1045A000A0F84040A0F84440A0F85040FFF7D9FFE1
:1045B0002046BDE8384004B0704730B403460C785C
:1045C00030F8242092B222F4EC4222F0700292B22F
:1045D000C87803285BD8DFE800F04E56025200206E
:1045E00023F824200C7833F8242012B222F4E0427D
:1045F00022F07002224392B242F4004242F0800262
:1046000023F824200A7B002A40F0A9804A78002A57
:104610004ED0B3F850201A440C7802EBC402CC8878
:1046200064086400A2F800440C7833F8242012F0E7
:10463000400F0CD033F8242092B222F4E04222F052
:10464000700242F4004242F0C00223F82420CA78EB
:10465000012A1ED0097833F8212092B222F4E042D8
:1046600022F0400282F0200242F4004242F0800236
:1046700023F821205EE042F400720020B0E742F40B
:10468000C0620020ACE742F480620020A8E701206D
:10469000A6E7097833F8212092B222F4E04222F012
:1046A000400242F4004242F0800223F8212041E01F
:1046B000B3F850201A440C7802EBC402CC8864088A
:1046C0006400A2F80444B3F850201A440C7802EBBA
:1046D000C4020C6984BBB2F8064424F44064A40408
:1046E000A40C6FEA44446FEA5444A2F806440C78E0
:1046F00033F8242012F4804F0CD033F8242092B2E7
:1047000022F4E04222F0700242F4404242F0800281
:1047100023F82420097833F8212092B222F4804231
:1047200022F0700282F4405242F4004242F08002D1
:1047300023F8212030BC70473D2C08D8650814F0C0
:10474000010F00D00135AD02A2F80654CFE764098D
:104750006FEAC4646FEA5444A2F80644C7E70C78D1
:1047600033F8242092B222F4E04222F0700242F4A4
:10477000014242F0800223F82420B3F850201A446A
:104780000C7802EBC4020C8964086400A2F80044AF
:10479000B3F850201A440C7802EBC4024C89640828
:1047A0006400A2F804444A78002A4ED10C7833F809
:1047B000242012F4804F0CD033F8242092B222F43B
:1047C000E04222F0700242F4404242F0800223F8BC
:1047D00024200C7833F8242012F0400F0CD033F84A
:1047E000242092B222F4E04222F0700242F400420D
:1047F00042F0C00223F824200C7833F8242092B22F
:1048000022F4E04222F0700242F4004242F0C00280
:1048100023F824200D7833F8252092B222F4804228
:1048200022F0700282F4405248F28004224323F8BE
:104830002520097833F8212092B222F4E04222F0B8
:104840004002224323F8212074E70C7833F8242017
:1048500012F4804F0CD033F8242092B222F4E042BC
:1048600022F0700242F4404242F0800223F82420F9
:104870000C7833F8242012F0400F0CD033F82420A9
:1048800092B222F4E04222F0700242F4004242F07E
:10489000C00223F824200C7833F8242092B222F4AA
:1048A000E04222F0700242F4404242F0800223F8DB
:1048B0002420CA78012A1ED00C7833F8242092B222
:1048C00022F4E04222F0400282F0200242F4004250
:1048D00042F0800223F82420097833F8212092B294
:1048E00022F4804222F0700242F4004242F0800240
:1048F00023F821201EE70C7833F8242092B222F40A
:10490000E04222F0400242F4004242F0800223F8EA
:104910002420E1E70B7B002B46D14B7813B30A78B8
:1049200030F8223013F0400F0CD030F822309BB218
:1049300023F4E04323F0700343F4004343F0C00347
:1049400020F822300A7830F822309BB223F4E0437A
:1049500023F0400343F4004343F0800320F8223067
:10496000002070470A7830F8223013F4804F0CD0C2
:1049700030F822309BB223F4E04323F0700343F479
:10498000404343F0800320F822300A7830F8223088
:104990009BB223F4804323F0700343F4004343F0BD
:1049A000800320F82230DBE710B44B78002B4ED187
:1049B0000A7830F8223013F4804F0CD030F82230CF
:1049C0009BB223F4E04323F0700343F4404343F0ED
:1049D000800320F822300A7830F8223013F0400F9C
:1049E0000CD030F822309BB223F4E04323F0700364
:1049F00043F4004343F0C00320F822300A7830F833
:104A000022309BB223F4E04323F0700343F40043CD
:104A100043F0C00320F822300B7830F8232092B204
:104A200022F4804222F0700248F28004224320F8EF
:104A300023200A7830F822309BB223F4E04323F09D
:104A40004003234320F82230002010BC70470A782E
:104A500030F8223013F4804F0CD030F822309BB263
:104A600023F4E04323F0700343F4404343F0800316
:104A700020F822300A7830F8223013F0400F0CD0A2
:104A800030F822309BB223F4E04323F0700343F468
:104A9000004343F0C00320F822300A7830F8223077
:104AA0009BB223F4E04323F0700343F4404343F00C
:104AB000800320F822300B7830F8232092B222F4C1
:104AC000E04222F0400248F28004224320F82320F2
:104AD0000A7830F822309BB223F4804323F070032D
:104AE000234320F82230AFE74B788BB90A7830F8AF
:104AF00022309BB223F4804323F0700383F480536D
:104B000043F4004343F0800320F822300020704734
:104B10000A7830F822309BB223F4E04323F04003BC
:104B200083F0100343F4004343F0800320F8223065
:104B3000ECE74B7823B30A7830F8223013F0400FBB
:104B40000CD030F822309BB223F4E04323F0700302
:104B500043F4004343F0C00320F822300A7830F8D1
:104B600022309BB223F4E04323F0400383F0300370
:104B700043F4004343F0800320F8223000207047C4
:104B80000A7830F8223013F4804F0CD030F82230FD
:104B90009BB223F4E04323F0700343F4404343F01B
:104BA000800320F822300A7830F822309BB223F4B8
:104BB000804323F0700383F4405343F4004343F0F5
:104BC000800320F82230D9E711B98023A0F84C30B7
:104BD00000207047B0F8583043F40043A0F8583034
:104BE00000207047B0F85830C3F30E03A0F85830D7
:104BF00000207047B0F84400704700207047013330
:104C00005B08024402F5806263B110B40C78487806
:104C100044EA002422F8024B0231013B002BF5D17B
:104C200010BC7047704770B58A694E78012E30D03D
:104C30000B69934280F0E680D21A8A610A7B002ACF
:104C400040F0F780B0F8502002440C7802EBC40228
:104C5000002B40F0DB80B2F8063423F440639B0461
:104C60009B0C6FEA43436FEA5343A2F806340A7879
:104C700030F822309BB223F4804323F0700383F496
:104C8000405343F4004343F0800320F822300020D7
:104C900070BD0B6993421FD2D21A8A610C46054639
:104CA0000A7BEAB10A7830F8221011F0400F68D080
:104CB000C6BBB0F85010014401EBC202FBB9B2F818
:104CC000061421F440618904890C6FEA41416FEABE
:104CD0005141A2F806142CE000238B611346DDE756
:104CE0009EB23346CA884969FFF789FFB5F850304C
:104CF0002B44227803EBC203A3F8026430E03D2B7F
:104D000008D8590813F0010F00D001318902A2F828
:104D100006140EE059096FEAC1616FEA5141A2F829
:104D2000061406E0B0F85010014401EBC202A2F8EC
:104D3000063462899BB261692846FFF760FF637899
:104D4000002B4ED1227835F822309BB223F4E04379
:104D500023F0700343F4004343F0C00325F82230EE
:104D6000227835F822309BB223F4E04323F040034D
:104D700083F0300343F4004343F0800325F82230EE
:104D800085E72EBBB0F85010014401EBC20263B9B5
:104D9000B2F8021421F440618904890C6FEA4141A0
:104DA0006FEA5141A2F8021419E03D2B08D85908C6
:104DB00013F0010F00D001318902A2F802140EE0B5
:104DC00059096FEAC1616FEA5141A2F8021406E085
:104DD000B0F85010014401EBC202A2F8023422895B
:104DE000A8E7012BBCD1227835F822309BB223F4FE
:104DF000E04323F0700343F4404343F0800325F87D
:104E00002230ADE700238B61134617E73D2B08D80E
:104E10005C0813F0010F00D00134A402A2F806448C
:104E200025E75B096FEAC3636FEA5343A2F80634D0
:104E30001DE796B9B0F8502002440C7802EBC4028A
:104E40000BBBB2F8024424F44064A404A40C6FEA3F
:104E500044446FEA5444A2F802444A78CABBB0F80A
:104E6000502002440C7802EBC402FBB9B2F80634BD
:104E700023F440639B049B0C6FEA43436FEA534364
:104E8000A2F80634F3E63D2B08D85C0813F0010FB6
:104E900000D00134A402A2F80244DEE75C096FEA04
:104EA000C4646FEA5444A2F80244D6E73D2B08D804
:104EB0005C0813F0010F00D00134A402A2F80644EC
:104EC000D5E65B096FEAC3636FEA5343A2F8063481
:104ED000CDE6012A7FF4CBAEB0F8502002440C7826
:104EE00002EBC402A2F80634C1E630B45D08024405
:104EF00002F5806206E032F8024B0C70240A4C7016
:104F00000231013D002DF6D113F0010F01D01378CD
:104F10000B7030BC7047000070B50D4E0D4CA41BDB
:104F2000A4100025A54209D10B4E0C4C00F036FC14
:104F3000A41BA4100025A54205D170BD56F825304C
:104F400098470135EEE756F8253098470135F2E7E6
:104F50001059000810590008105900081459000889
:104F600010B5431E0A44914200D110BD11F8014B07
:104F700003F8014FF7E702440346934200D170471C
:104F800003F8011BF9E700000EB400B59CB01DAB9F
:104F9000029006906FF00041094807910491094979
:104FA00053F8042B05910068019302A900F066F8FC
:104FB000029B00221A701CB05DF804EB03B070472E
:104FC000700100200802FFFF2DE9F0478E689E4225
:104FD00082460C469046994637D88A8912F4906FDB
:104FE00031D0256809696F1A6569022305EB45050B
:104FF00095FBF3F509F101033B449D4238BF1D4683
:10500000530530D5294600F021FB064650B90C2344
:10501000CAF80030A38943F04003A3814FF0FF306A
:10502000BDE8F0873A462169FFF79AFFA38923F488
:10503000906343F08003A381266165613E44ED1BCC
:105040002660A5604E464E4500D94E463246414642
:10505000206800F093FAA3689B1BA36023681E449A
:1050600026600020DCE72A4600F04AFB06460028BE
:10507000E2D12169504600F09BFAC8E72DE9F04FD4
:105080001D468B891F069DB080460C4616460FD5DF
:105090000B696BB9402100F0D9FA2060206128B972
:1050A0000C23C8F800304FF0FF30C8E040236361A4
:1050B0000023099320238DF8293030238DF82A30DE
:1050C00003954FF0010B37463D4615F8013B0BB1F8
:1050D000252B3ED1B7EB060A0BD05346324621466C
:1050E0004046FFF771FF013000F0A480099B534454
:1050F00009933B78002B00F09D8000234FF0FF3296
:10510000CDE90523049307938DF853301A932F4666
:10511000052217F8011B5048FBF742F8049BD0B951
:10512000D90644BF20228DF853201A0744BF2B22F2
:105130008DF853202A782A2A15D0079A2F46002066
:105140000A25394611F8013B303B092B4DD9B8B13E
:105150000FE02F46B8E7404A801A0BFA00F01843D8
:1051600004903D46D3E7039A111D12680391002A6B
:1051700001DB079204E0524243F0020307920493DA
:105180003B782E2B0CD17B782A2B33D1039B1A1D15
:105190001B680392002BB8BF4FF0FF330237059313
:1051A0002E4D397803222846FAF7FAFF38B140230A
:1051B000401B03FA00F0049B034301370493397842
:1051C00027488DF8281006227E1CFAF7E9FF0028F0
:1051D00038D0244B13BB039B073323F0070308335A
:1051E0000393099B4B4409936DE705FB02320120B1
:1051F0000F46A6E700230137059319460A253846CE
:1052000010F8012B303A092A03D9002BC8D0059198
:10521000C6E705FB012101230746F0E703AB009336
:105220002246114B04A94046AFF30080B0F1FF3F86
:105230008146D6D1A3895B063FF535AF09981DB0ED
:10524000BDE8F08F03AB00932246074B04A940460C
:1052500000F082F8EAE700BFD8580008DE580008DE
:10526000E258000800000000C94F00082DE9F0478F
:1052700091461F468A680B69DDF820809342B8BFCB
:105280001346C9F8003091F8432006460C4612B187
:105290000133C9F800302368990642BFD9F80030BD
:1052A0000233C9F80030256815F0060507D104F16E
:1052B000190AE368D9F800209B1AAB4228DC94F85D
:1052C00043302268003318BF012392062DD404F125
:1052D000430239463046C047013020D02368E56894
:1052E000D9F8002003F00603042B08BFAD1AA36809
:1052F00022690CBF25EAE57500259342C4BF9B1ABD
:10530000ED184FF000091A344D451AD1002008E07D
:105310000123524639463046C047013003D14FF091
:10532000FF30BDE8F0870135C3E7E1185A1C302093
:1053300081F84300224494F8451082F84310023368
:10534000C5E70123224639463046C0470130E6D042
:1053500009F10109D8E700002DE9F04301F1430C00
:105360000C46097E85B06E291746064698460C9A6B
:1053700000F0B38022D8632936D00AD8002900F083
:10538000B980582900F0838004F1420584F8421066
:1053900032E0642901D06929F6D120681368050636
:1053A00003F104012AD51B681160002B03DA2D22BA
:1053B0005B4284F843206F480A2239E0732900F0E9
:1053C0009D8008D86F2920D07029DDD1236843F053
:1053D0002003236003E0752917D07829D4D17823DE
:1053E00084F84530644855E01368191D1B68116046
:1053F00004F1420584F8423001238CE01B681160FF
:1054000010F0400F18BF1BB2CFE713682568181DB6
:105410001060280601D51B6802E06806FBD51B88D2
:1054200054486F2914BF0A220822002184F843102F
:105430006568A560002DC0F29580216821F0040107
:105440002160002B3DD1002D40F08E806546082A5A
:105450000BD12368DB0708D5236962689A42DEBF57
:10546000302305F8013C05F1FF35ACEB0503236162
:10547000CDF800803B4603AA21463046FFF7F6FEF2
:1054800001304DD14FF0FF3005B0BDE8F083394811
:1054900084F84510136821681D1D1B6815600A06F5
:1054A0000BD5CA0744BF41F0200121601BB9226817
:1054B00022F0200222601022B7E74D0648BF9BB2BF
:1054C000EFE76546B3FBF2F102FB1133C35C05F86D
:1054D000013D0B460029F5D1B9E7136825686169DC
:1054E000181D106028061B6801D5196002E06A06C5
:1054F000FBD51980002323616546B9E71368191DA0
:1055000011601D68626800212846FAF749FE08B15B
:10551000401B606063682361002384F84330A7E781
:1055200023692A4639463046C0470130AAD023684D
:105530009B0713D4E068039B9842B8BF1846A3E7C3
:1055400001234A4639463046C04701309AD00135DA
:10555000E368039A9B1AAB42F2DCEBE7002504F107
:105560001909F5E7002BACD1037884F8423004F137
:1055700042056CE7E9580008FA580008884210B55F
:1055800001EB020307D8421E99420AD011F8014BE1
:1055900002F8014FF8E78342F5D98118D21AD342B5
:1055A00000D110BD13F8014D01F8014DF7E70000DF
:1055B00038B50546002945D051F8043C0C1F002B96
:1055C000B8BFE41800F0D2F81F4A1368104633B988
:1055D000636014602846BDE8384000F0C8B8A342B4
:1055E0000CD921686218934204BF1A685B68636033
:1055F00004BF521822600460ECE713465A680AB1EF
:10560000A242FAD919685818A0420BD12068014467
:10561000581882421960DDD1106852685A600144FE
:105620001960D7E702D90C232B60D3E72068211833
:105630008A4204BF11685268626004BF0918216081
:105640005C60C7E738BD00BF1804002070B5CD1CF2
:1056500025F0030508350C2D38BF0C25002D064616
:1056600001DBA94203D90C233360002070BD00F098
:105670007DF8214A1468214691B9204C23681BB952
:10568000304600F063F820602946304600F05EF8AE
:10569000431C24D10C233360304600F068F8E4E763
:1056A0000B685B1B18D40B2B0FD90B60CD50CC189B
:1056B000304600F05CF804F10B00231D20F00700D9
:1056C000C31AD3D05A42E250D0E78C424B6816BF7F
:1056D000636013600C46EBE70C464968CCE7C41CDA
:1056E00024F00304A04205D0211A304600F02EF821
:1056F0000130CFD02560DBE7180400201C04002017
:10570000F8B5074614460E4621B91146BDE8F840E3
:10571000FFF79CBF22B9FFF74BFF25462846F8BD8F
:1057200000F026F8A0420FD221463846FFF78EFF40
:1057300005460028F2D031462246FFF711FC3146DB
:105740003846FFF735FFE9E73546E7E738B5064C59
:10575000002305460846236000F012F8431C02D1DE
:10576000236803B12B6038BD5C160020704770477A
:1057700051F8043C181F002BBCBF0B58C0187047D1
:10578000044A05491368002B08BF0B4618441060F3
:10579000184670472004002060160020F8B500BFAE
:1057A000F8BC08BC9E467047F8B500BFF8BC08BC02
:0857B0009E4670470000000056
:1057B8002E2E2F5372632F6D61696E2E63000000C9
:1057C800496E697420436F6D706C6574650A0D00CD
:1057D8004F70656E2054436F75706C652043697215
:1057E800637569740A0D000025640A0D0000000045
:1057F800446F6F72204F70656E0A0D00446F6F72B0
:1058080020436C6F7365640A0D00000046616E20CA
:105818004F6E0A0D0000000046616E204F66660A52
:105828000D00000000000000000000000102030459
:1058380006070809A0860100400D0300801A06002B
:1058480000350C0040420F0080841E0000093D0016
:1058580000127A000024F40000366E010048E801C6
:10586800006CDC022E2E2F5372632F757362645FF7
:10587800636F6E662E63000043444320436F6E6679
:105888006967000043444320496E7465726661632A
:105898006500000053544D6963726F656C656374ED
:1058A800726F6E696373000053544D33322056692A
:1058B800727475616C20436F6D506F7274000000D4
:1058C800303030303030303030303141000000007E
:1058D800232D302B2000686C4C00656667454647D1
:1058E8000030313233343536373839414243444554
:1058F80046003031323334353637383961626364C3
:085908006566000000000000CC
:08591000A902000800000000DC
:085918008102000800000000FC
:1059200000093D00C0C62D0000000800FD0A000867
:10593000B10A0008B50A0008E10A0008510E000883
:105940005D0E0008990E0008750E0008B50E0008DF
:10595000D90E0008FD0E0008690E0008050F0C00A6
:1059600001071002020000001201010202020040C1
:1059700083044057000201020301000004030904EC
:10598000AB1A0008691A00088F190008000000000F
:10599000BD18000843190008151900080000000090
:1059A0000000000000000000F1180008E5180008E1
:1059B000FD1800080919000809024300020100C08F
:1059C0003209040000010202010005240010010553
:1059D00024010001042402020524060001070582B7
:1059E0000308001009040100020A00000007050175
:1059F0000240000007058102400000000902430048
:105A0000020100C032090400000102020100052465
:105A100000100105240100010424020205240600EF
:105A2000010705820308001009040100020A0000B2
:105A300000070501020002000705810200020000C4
:105A40000A060002000000400100000009074300B0
:105A5000020104C032090400000102020100052411
:105A6000001001052401000104240202052406009F
:105A7000010705820308001009040100020A000062
:105A800000070501024000000705810240000000F8
:105A90007401002000000000000000000000000071
:105AA00000000000000000000000000000000000F6
:105AB00000000000000000000000000000000000E6
:105AC00000000000000000000000000000000000D6
