:020000040800F2
:1000000000000120CD0200089D0700089F0700089E
:10001000A1070008A3070008A507000800000000CA
:10002000000000000000000000000000A70700081A
:10003000A907000800000000AB070008AD07000892
:100040001D0300081D0300081D0300081D03000810
:100050001D0300081D0300081D0300081D03000800
:100060001D0300081D0300081D0300081D030008F0
:100070001D0300081D0300081D0300081D030008E0
:100080001D0300081D0300081D0300081D030008D0
:100090001D0300081D0300081D0300081D030008C0
:1000A0001D0300081D0300081D0300081D030008B0
:1000B0001D03000800000000000000001D030008F0
:1000C0001D0300081D0300081D0300081D03000890
:1000D0001D0300081D0300081D0300081D03000880
:1000E0001D0300081D0300080000000000000000C0
:1000F0000000000000000000000000000000000000
:10010000000000001D030008000000001D0300089F
:1001100000000000000000001D0300081D0300088F
:100120001D0300081D0300081D0300081D0300082F
:100130001D03000800000000000000000000000097
:100140001D0300081D0300081D030008BD0700086B
:100150001D0300081D0300081D0300081D030008FF
:100160001D0300081D0300081D0300080000000017
:100170001D0300081D0300081D0300080000000007
:100180001D0300081D0300081D03000800000000F7
:10019000034613F8012B002AFBD1181A01387047C7
:1001A00001F0FF01102A2BDB10F0070F08D010F828
:1001B000013B013A8B422DD010F0070F42B3F6D12C
:1001C000F0B441EA012141EA014122F007047FF045
:1001D00000070023F0E80256083C85EA010586EA9C
:1001E000010685FA47F5A3FA87F586FA47F6A5FAD8
:1001F00087F68EB9EED1F0BC01F0FF0102F00702E4
:1002000032B110F8013B013A83EA010313B1F8D18E
:100210000020704701387047002D06BF354603386F
:10022000073815F0010F07D1013015F4807F02BFA8
:10023000013015F4C03F0130F0BC0138704700BFF9
:100240000348044B834202D0034B03B11847704765
:10025000D8010020D8010020000000000548064910
:10026000091A891001EBD171491002D0034B03B177
:1002700018477047D8010020D80100200000000076
:1002800010B5064C237843B9FFF7DAFF044B13B1DE
:100290000448AFF300800123237010BDD801002073
:1002A000000000002444000808B5054B1BB10549B7
:1002B0000548AFF30080BDE80840FFF7CFBF00BF9F
:1002C00000000000DC01002024440008DFF834D0E6
:1002D000002103E00C4B5B58435004310B480C4B9E
:1002E00042189A42F6D30B4A02E0002342F8043B3C
:1002F000094B9A42F9D300F067FA03F051FC00F081
:1003000065F8FEE7000001204845000800000020D5
:10031000D8010020D801002020160020FEE770B58B
:10032000AEB01023012505930023CDE90B536023C4
:1003300002240D930726282305A8CDE90F45119522
:10034000CDE91236CDE9144402F0AEF800B1FEE773
:100350000F220323CDE90200049004216846CDE971
:10036000002302F0F3FA00B1FEE74FF401531693B5
:100370004FF08063289318232290CDE9193616A8F0
:100380004FF48013CDE91755CDE91B441D9302F0BE
:10039000FFFB00B1FEE74FF4007001F0B1FF04462F
:1003A00000B1FEE702F064FB4FF47A73B0FBF3F0A8
:1003B00001F0FCF9042001F00FFA224621464FF02B
:1003C000FF3001F0B3F92EB070BD00002DE9F04709
:1003D0008CB001F06DF9FFF7A2FF894B894DDA6C03
:1003E00042F00402DA64DA6C02F004020192019A2B
:1003F000DA6C42F00102DA64DA6C02F00102029275
:10040000029ADA6C42F00202DA64DB6C03F0020357
:100410000393002206214FF09040039B01F0B6FAAF
:10042000002241F63001784801F0B0FA00244FF480
:10043000005304A9754806940126CDE9043401F05F
:10044000DDF904A94FF09040CDE90464069401F071
:10045000D5F9062304A94FF09040CDE90436CDE943
:10046000064401F0CBF940F2023304A96648069431
:10047000CDE9043401F0C2F941F6300304A9624821
:10048000CDE90436CDE9064401F0B8F900F0BAF937
:100490005F4A604B2C622846C5E90023C5E9024645
:1004A000C5E90444C5E9064401F075FA014600B106
:1004B000FEE7284601F0C0FA014600B1FEE72846F3
:1004C00001F0E0FA00B1FEE7534B544A98624FF452
:1004D000827A0725C3E9002A4FF4E0694FF480626D
:1004E000C3E904004FF400782827C3E90800C3E9F2
:1004F0000B5008241846C3E90229C3E906875C6348
:1005000002F06DFD00B1FEE7454B464AC3E90C041D
:10051000C3E90209C3E90400C3E90800C3E90A0505
:100520001846C3E9002AC3E9068702F058FD0446CD
:1005300000B1FEE7324610213348334D01F026FA70
:1005400032462021304801F021FA32464FF4006152
:100550002D4801F01BFA34480094FFF719FE81B2D0
:10056000314800F0A9F9012001F0C0F80022102163
:10057000284601F00BFA04220021684603F03FFBF5
:100580000A2304226946244802F099FE1021012220
:10059000284601F0FBF99DF8031011F0010120D16C
:1005A0001E2204A803F02BFB9DF801409DF80030AB
:1005B0001E49240904EB0314B4F5006F28BFA4F509
:1005C0008054224604A803F023FB0221284601F0B0
:1005D000D7F948B901224FF40061284601F0D6F955
:1005E000C1E74FF4FA74F0E7452CF3DC284600220B
:1005F0004FF4006101F0CAF9012001F077F8E9E752
:100600000010024088040020000400480008004850
:1006100000540040EC9C901024040020003800405E
:10062000D404002000300140404400085044000839
:10063000FEE70000214B07B51A6E42F001021A6670
:100640001A6E02F001020092009A9A6D42F08052F6
:100650009A659B6D03F0805301930320019B01F089
:1006600053F8002211466FF00B0001F05FF80022F2
:1006700011466FF00A0001F059F8002211466FF0A0
:10068000090001F053F8002211466FF0040001F058
:100690004DF8002211466FF0030001F047F80022E8
:1006A00011466FF0010001F041F8002211464FF0B1
:1006B000FF3003B05DF804EB01F038B800100240E1
:1006C0007FB50268104B9A421AD14FF4C0621223D0
:1006D000CDE9012301210323CDE9031304230DEB0D
:1006E00003014FF09040059301F088F8074B9A6D95
:1006F00042F400129A659B6D03F400130093009B73
:1007000007B05DF804FB00BF005400400010024039
:1007100000B503681D4A934289B01CD11C4B1A6E68
:1007200042F480521A661B6E03F480530193E0205A
:10073000019B0223CDE903034FF0000C0323CDE915
:1007400005C30523079303A94FF0904001F056F825
:1007500009B05DF804FB0F4A9342F9D10C4B0E48E7
:100760009A6D42F480429A659B6D03F48043029334
:10077000029B4FF4884202230021CDE90323032387
:10078000CDE905130523079303A9DFE700300140F6
:100790000010024000380040000400487047FEE7A7
:1007A000FEE7FEE7FEE770477047704708B500F0C8
:1007B0008FFFBDE8084001F01CB80000014801F0BF
:1007C000B7BA00BFA40F00200C4B1A68002142F0FA
:1007D00001021A6099601A6822F0A85222F41022CD
:1007E0001A604FF48052DA601A6822F480221A608C
:1007F0009961034B4FF000629A607047001002400D
:1008000000ED00E008B500220A490B4800F032FA7A
:100810000A49094800F043FA0949074800F0EFFE89
:10082000054800F0C6F920B10348BDE8084000F0D3
:100830003DBA08BD1C0000203805002060000020E3
:100840000C0000200020704710B5054C01462046E2
:1008500000F0E4FE204600F000FF002010BD00BFC5
:100860003805002010B5064C06490022204600F04D
:10087000CDFE0549204600F0D1FE002010BD00BF8E
:1008800038050020BC0B0020D407002020280FD101
:10089000084B1A680A701A68120A4A705A888A70D5
:1008A000DA78CA701A790A715A794A719B798B7110
:1008B000002070470400002010B5094CD4F8903295
:1008C000D3F814320A4643B90146204600F09EFE92
:1008D0002046BDE8104000F0A7BE012010BD00BFBB
:1008E0003805002007B50E4B02689A4215D103F572
:1008F000D43343209A6D42F080629A659B6D00224A
:1009000003F0806301931146019B00F00FFF432029
:1009100003B05DF804EB00F03DBF03B05DF804FBED
:100920000068004000F58661D0F8700400F0D5B989
:1009300000EB4113D0F87004D3F83C2200F0FAB970
:1009400000EB4113D0F87004DA6B00F02BBAD0F84A
:10095000700400F0BCBA10B504460121D0F8700450
:1009600000F0A3FAD4F87004BDE8104000F076BAA5
:1009700010B50446D0F8700400F09AFAA36923B1C8
:10098000024A136943F00603136110BD00ED00E055
:10099000836910B5044633B1064A136923F0060390
:1009A0001361FFF7BCFCD4F87004BDE8104000F000
:1009B00088BA00BF00ED00E010B5044601F0D6FC97
:1009C0002048214AC0F870440823C0E90023C4F835
:1009D000980200230222C0E90223C0E90423C0E9EF
:1009E0000633036201F073F820B140F23D1117485D
:1009F000FFF71EFE002211461823D4F8980201F0DA
:100A000038FC582300228021D4F8980201F031FCF0
:100A1000C02300228121D4F8980201F02AFC4FF46F
:100A2000887300220121D4F8980201F022FC4FF4CF
:100A3000807300228221D4F8980201F01AFC002071
:100A400010BD00BFA40F0020006800409C440008B7
:100A500008B5D0F8980201F0AEF8032896BF024B13
:100A60000220185C08BD00BF9844000810B51C4661
:100A7000D0F898021346224601F0C6F8032896BF24
:100A8000014B0220185C10BD9844000808B5D0F84E
:100A9000980201F0ECF8032896BF024B0220185C84
:100AA00008BD00BF9844000808B5D0F8980201F0CE
:100AB00077FB032896BF024B0220185C08BD00BFDD
:100AC0009844000808B5D0F8980201F0A2FB03286A
:100AD00096BF024B0220185C08BD00BF9844000876
:100AE0000A06D0F8983245BF01F07F0103EB4113AD
:100AF00003EB411393F82A0058BF93F82A0270477A
:100B000008B5D0F8980201F06BF8032896BF024BA5
:100B10000220185C08BD00BF9844000808B5D0F852
:100B2000980201F0EDF8032896BF024B0220185CF2
:100B300008BD00BF9844000808B5D0F8980201F03D
:100B4000BFF8032896BF024B0220185C08BD00BF07
:100B50009844000808B5D0F8980201F0CAF808BD1A
:100B600010B5044611B101290FD010BD836933B10E
:100B7000FFF7D5FB0B4A136923F006031361D4F882
:100B80007004BDE8104000F09CB9D0F8700400F08B
:100B90008FF9A369002BE8D0024A136943F00603DA
:100BA0001361E2E700ED00E000487047F401002027
:100BB0007047D0F898321B6A012B14BF0220002026
:100BC0007047000012230B80004870474800002047
:100BD00004230B80004870475C0000200C230B802E
:100BE000004870473C00002010B5044C04480A46F9
:100BF000214600F070FB204610BD00BF18140020F5
:100C0000C844000810B5044C04480A46214600F0C8
:100C100062FB204610BD00BF18140020DB44000812
:100C200010B5044C04480A46214600F054FB204607
:100C300010BD00BF18140020F144000810B5044C8A
:100C400004480A46214600F046FB204610BD00BF7E
:100C500018140020AF44000810B5044C04480A469C
:100C6000214600F038FB204610BD00BF18140020BC
:100C7000BA44000808B580B1D0F88C3213B1002313
:100C8000C0F88C3209B1C0F88812012380F87432A0
:100C90000270FFF791FE002008BD0220FCE719B1A9
:100CA000C0F88C12002070470220704708B5FFF78B
:100CB000CFFE002008BD08B5D0F88C320BB9022059
:100CC00008BD1B6898470028FAD0F8E708B5D0F8A7
:100CD0008C325B689847002008BD38B5044600F5A3
:100CE0002075284600F0D8FA012394F88012C4F841
:100CF0006C32B4F88632C4F8703201F01F03012B55
:100D00000ED007D3022B10D001F080012046FFF750
:100D1000CBFE03E02946204600F0F0F8002038BD65
:100D20002946204600F00CFAF8E72946204600F054
:100D30002CFAF3E770B50546164639BBD0F86C328D
:100D4000032B1ED1D0F84C31D0F8502193420BD94F
:100D50009B1A9A42C0F84C318CBF9AB292B231467B
:100D600000F0F9FA002070BDD0F88C321B6923B175
:100D700090F87422032A00D19847284600F0F3FA2D
:100D8000F0E7052BEED1FFF78FFEEBE7D0F88C32C2
:100D90009B692BB190F87422032A01D19847E1E7AF
:100DA0000220E0E770B5134604460E46002948D1FC
:100DB000D0F86C22022A3DD1D0E90852954214D9CC
:100DC000AA1A0262194692B200F0AEFA33461A46E7
:100DD00019462046FFF7B0FE94F87832012B4FF009
:100DE000000001D184F8780270BDC369B3FBF2F54D
:100DF00002FB153565B99A420AD8D0F870229342A1
:100E000006D22A4600F090FAC4F870522B46DEE76C
:100E1000D4F88C32DB682BB194F87422032A01D108
:100E20002046984780212046FFF73EFE204600F0EE
:100E3000A5FAD1E732F00403CED18021FFF734FECA
:100E4000CAE7D0F88C325B6933B190F87422032A78
:100E500002D198470020C7E70220C5E770B50022FD
:100E600004461146012540264023FFF7FFFD334687
:100E70008021C4F84451C4F8506100222046FFF795
:100E8000F5FDD4F89032A5610021666284F87452B1
:100E9000C4F86C126160C4F87C1223B1D4F88C32AF
:100EA00020465B689847002070BD017400207047A1
:100EB00090F8743280F87532042380F87432002080
:100EC000704790F8753280F874320020704708B58A
:100ED00090F87422032A04D1D0F88C32DB6903B174
:100EE0009847002008BD10B580210446FFF7DCFDBF
:100EF00020460021BDE81040FFF7D6BD37B50B787E
:100F000003F06003202B04460D4614D0402B12D072
:100F1000002B40F093804B78092B00F28F80DFE8A4
:100F200013F0E70001018D00FA008D00820013002C
:100F30008D00D200A000D4F88C3229469B68204650
:100F40009847002003B030BD4B881A0A013A0E2A98
:100F500074D8DFE802F02428357373555E73737319
:100F6000737373730800D0F88832DB69207C0DF14D
:100F700006019847BDF8062052B1EB8843B19A426A
:100F800028BF1A4601462046ADF8062000F0BFF9FA
:100F9000EB88002BD5D1204600F0E5F9D1E7D0F859
:100FA00088321B68E2E7027CD0F88C3232B99B6A47
:100FB0000DF10600984702234370DBE7DB6AF7E791
:100FC000DBB2052B3AD8DFE803F003070B0F13174A
:100FD000D0F888325B68C9E7D0F888329B68C5E7EB
:100FE000D0F88832DB68C1E7D0F888321B69BDE7EA
:100FF000D0F888325B69B9E7D0F888329B69B5E7E9
:10100000037CDBB9D0F88C320DF106005B6B98479E
:10101000B0E7037C93B9D0F88C320DF106001B6B5E
:1010200098470723C8E78B8843B9CB8833B94D88E5
:101030007F2D03D890F87432032B03D12046FFF79D
:1010400052FF7EE7E9B280F87612FFF759FD20469D
:1010500000F089F91DB1022384F8743271E701238D
:10106000FAE78978354D01292970E7D890F874326C
:10107000022B08D0032B14D0FFF735FF2978204628
:10108000FFF724FE5DE7002985D00121032341609D
:1010900080F874322046FFF70EFE02287FF47BAF03
:1010A000CCE731B9022380F874324160FFF70EFEBD
:1010B00071E7416801293FF46EAFC9B2FFF706FE40
:1010C00029786160E6E7CA88012AB7D190F87432BE
:1010D000002BB3D0022B03D9032BAFD1011D03E0AA
:1010E0000146002341F8083F204600F010F928E7A8
:1010F00090F87432013B022BA0D8CB88022B9DD1F3
:101100000123C360D0F87C320BB10323C3600222F9
:1011100004F10C01E8E74B88012B7FF412AFC4F80F
:101120007C3238E790F87432013B022B86D84B882A
:10113000012B7FF406AF0023F1E700BF1404002069
:1011400038B50B7803F06003202B04460D4602D01F
:10115000402B00D0ABB994F87432013B022B10D86D
:101160002B79012B0DD8D4F88C3229469B68204668
:101170009847EB881BB910B9204600F0F4F800201E
:1011800038BD2046FFF7AFFEF9E738B50A7802F020
:101190006002202A04460B4614D0402A12D06AB9B5
:1011A0005A788D88012AE9B220D036D3032A05D196
:1011B00090F87422022A27D0032A0BD02046FFF78A
:1011C00092FE05E0D4F88C2219469268204690479A
:1011D000002038BD5A882AB94A0603D0DB880BB9EB
:1011E000FFF762FC204600F0BEF8F1E790F87422A9
:1011F000022A09D0032AE1D15B88002BE8D14D06F1
:10120000F0D0FFF75FFCEDE74B06D7D0FFF74CFCC3
:1012100080212046FFF748FCDAE790F87432022B71
:1012200018D0032BCAD101F00F02142315F0800F40
:1012300003FB02021DD09269002ABFD001F07F0596
:1012400005FB0335054411F07F031DD12B600222FD
:1012500029460AE04A06B1D12B064CBF00F1140121
:1012600000F5A07100230B600222204600F04FF829
:10127000AEE7D2F84421002AA0D001F07F0503FB9D
:10128000050505F5A075DEE72046FFF729FC08B146
:101290000123DBE72860DAE70B7803704B784370B3
:1012A000CA788B7803EB022343804A790B7903EBEE
:1012B00002238380CA798B7903EB0223C3807047B2
:1012C00010B580210446FFF7EFFB20460021BDE862
:1012D0001040FFF7E9BB30B588B105462B1A15F869
:1012E000014BDBB2002CF9D101335B0013800B7092
:1012F00003234B700138022310F8015F05B930BD9C
:101300005A1CD2B2CD540233DBB28C54F4E710B580
:1013100013460222C0F86C22C0E907330A460021B6
:10132000FFF7FCFB002010BD08B513460A4600215C
:10133000FFF7F4FB002008BD10B513460322C0F8E8
:101340006C22C0F848310A46C0F84C310021FFF742
:10135000F3FB002010BD08B513460A460021FFF735
:10136000EBFB002008BD08B50423C0F86C32002355
:101370001A461946FFF7D2FB002008BD08B5052321
:10138000C0F86C3200231A461946FFF7D5FB00203F
:1013900008BDD0F8943210B56BB1D0F8904294F8F3
:1013A0000002FF2807D09B6894F801222146984745
:1013B000FF2384F80032002010BD00004323038087
:1013C000004870479800002043230380004870477E
:1013D000DC00002043230380004870472C010020DC
:1013E0000A230380004870472001002038B50546D5
:1013F000D0F89042FFF7AEFBD5F89032C4F80C025B
:101400004BB1D5F89432D4F80402DB6804F50371CB
:101410009847002038BD0220FCE7F8B5D0F890626C
:10142000CEB1142303FB0103DA6982B1D0F89842EC
:1014300004EB4114A56BB2FBF5F405FB142434B99D
:10144000DC6122462346FFF769FB2046F8BD0020F9
:10145000C6F81402FAE70220F8E72DE9F7430A7804
:10146000D0F890724FF0000812F0600405460E4666
:101470008DF80580ADF8068028D0202C45D1CC8889
:101480004B78E4B1120611D5D0F894223946D2F83F
:10149000089018462246C847F28839462846FFF782
:1014A00036FF4446204603B0BDE8F08387F800329B
:1014B00087F8014222463946FFF73EFFF1E7D0F8B0
:1014C0009422184695682246A847EBE74F780A2FE2
:1014D0000DD00B2F15D0C7B990F87432032B14D14F
:1014E00002220DF10601FFF712FF3C46DAE790F801
:1014F0007432032B09D101220DF10501FFF707FF1B
:10150000D0E790F87432032BCCD031462846FFF751
:10151000D7FE0224C6E738B5044600258121FFF72F
:10152000B5FA0121E5622046FFF7B0FAC4F8585138
:1015300082212046FFF7AAFAD4F8903225644BB1F5
:10154000D4F894325B689847D4F89002FFF730FBE8
:10155000C4F89052002038BD037C2DE9F0410446C8
:10156000CBBB4FF40073022281210125FFF77EFAE5
:10157000E5624FF40073294602222046FFF776FA0F
:10158000C4F8585108230322822120460125FFF781
:101590006DFA25644FF40770FFF706FB0646C4F8A2
:1015A000900250B3D4F894321B68984794F8108096
:1015B0000027C6F81472C6F81872B8F1000F13D1DC
:1015C0004FF40073D6F8042229462046FFF7B4FAF8
:1015D0004046BDE8F0814023022281210125FFF72A
:1015E00045FAE5624023C6E74023D6F8042229469F
:1015F0002046FFF7A1FA3846EBE72846E9E719B19C
:10160000C0F894120020704702207047D0F8903242
:101610000020C3F80812C3F810227047D0F89032A7
:101620000020C3F804127047D0F8902210B582B1A0
:10163000D2F81442012374B9C2F81432D2F810322D
:101640000363D2F808229BB28121FFF767FA204694
:1016500010BD0220FCE71846FAE7D0F8902210B53A
:1016600062B1047CD2F8042234B94FF40073012132
:10167000FFF762FA002010BD4023F8E70220FAE7E6
:1016800038B50A4B054618684FF47A73B0FBF3F08F
:1016900000F08CF8044638B9024629464FF0FF3076
:1016A00000F044F8204638BD0120FCE7000000208F
:1016B00010B5032000F028F80020FFF7E1FF0446F2
:1016C00018B9FEF7B7FF204610BD0124FBE7000064
:1016D000024A136801331360704700BF18160020D8
:1016E000014B1868704700BF1816002038B5044633
:1016F000FFF7F6FF631C054618BF0134FFF7F0FF44
:10170000401BA042FAD338BD074AD36823F4E063F4
:101710001B041B0C43F0BF63000243F4003300F4CE
:10172000E0600343D360704700ED00E0174B70B5F5
:10173000DC68C4F30224C4F10705042D04F104039A
:1017400028BF04254FF0FF36062B06FA05F38CBFA1
:10175000033C002421EA0303A34006FA04F422EA2E
:101760000404002843EA0403A8BF00F160404FEAE4
:101770000313BCBF00F00F00054ADBB2AABF00F59F
:101780006140135480F8003370BD00BF00ED00E0ED
:1017900014ED00E04209012300F01F0003FA00F0FD
:1017A000014B43F82200704700E100E00138B0F13E
:1017B000807F0AD2064B074A5860F02182F8231036
:1017C0000020072298601A6070470120704700BF10
:1017D00010E000E000ED00E0044B1A6804280CBFA4
:1017E00042F0040222F004021A60704710E000E0A8
:1017F000704708B5FFF7FCFF08BD00002DE9F74F63
:10180000D1F80080DFF874915A4A002338FA03F4C3
:1018100002D103B0BDE8F08F012404FA03FA1AEAFA
:10182000080500F09C804C6824F0100BBBF1020FFF
:1018300014D14FEAD30C00EB8C0C03F0070EDCF84C
:1018400020604FEA8E0E0F2707FA0EF726EA0707E9
:101850000E6906FA0EF63E43CCF820604FEA430EBE
:101860000327066807FA0EF7FF4304F0030C3E4017
:101870000CFA0EFC0BF1FF3B4CEA0606BBF1010F24
:10188000066011D8866806EA070BCE6806FA0EFCD9
:101890004CEA0B068660466826EA0A0AC4F300167C
:1018A0009E4046EA0A064660C66837408E6806FAD9
:1018B0000EF63743E600C76051D5D9F8606046F0B0
:1018C0000106C9F86060D9F8606023F0030707F1EA
:1018D000804706F0010607F58037019603F0030EF6
:1018E000019EBE684FEA8E0E4FF00F0C0CFA0EFCF4
:1018F000B0F1904F26EA0C0C33D01F4EB04232D0DC
:1019000006F58066B04230D006F58066B0422ED033
:1019100006F58066B04214BF0726042606FA0EF6C6
:1019200046EA0C06BE601668EF4314F4803F0CBF15
:101930003E402E431660566814F4003F0CBF3E40F4
:101940002E435660966814F4801F0CBF3E402E4311
:101950009660D668A40254BF3E402E43D660013341
:1019600054E70026DAE70126D8E70226D6E7032661
:10197000D4E700BF0004014000040048001002400A
:101980000369194214BF0120002070470AB1816128
:1019900070478162704710B5044600284AD090F81D
:1019A000413003F0FF021BB980F84020FEF788FEAB
:1019B000242384F8413023681A6822F001021A6057
:1019C000626822F070621A619A6822F400429A609A
:1019D000D4E90221012924D142F400429A605A68D4
:1019E00042F0007242F400425A60DA6822F4004287
:1019F000DA60D4E904210A43A16942EA0122DA60EB
:101A0000D4E907210A431A601A6842F001021A60F9
:101A100000202023606484F84130206384F8420071
:101A200010BD42F4044202299A6004BF4FF40062E0
:101A30005A60D4E70120F3E790F84120D2B2202A7F
:101A400010B51DD190F84030012B19D0242380F817
:101A5000413003681C6824F001041C601C6824F4F5
:101A600080541C601C6821431960196841F0010111
:101A70001960002380F8412080F84030184610BDDE
:101A80000220FCE710B590F84140E4B2202C1CD1B4
:101A900090F84030012B18D0242380F8413003689F
:101AA0001A6822F001021A601A6822F4706242EA8F
:101AB000012119601A6842F001021A60002380F8BF
:101AC000414080F84030184610BD0220FCE72DE967
:101AD000F041044686B000286BD090F8293403F01A
:101AE000FF021BB980F82824FEF7FCFE25460323DD
:101AF00055F8100B84F8293401F09DFC0FCD6E468B
:101B00000FC62B68336004F1040898E80E002068C3
:101B100001F080FC0021206801F097FC00212246A2
:101B2000234604F110050126084683F82810D986BB
:101B300001310F2983F8296083F82B00C3E90E00D7
:101B4000186403F12003F0D100231F4682F82832E5
:101B500001330F2B82F8297282F82B72C2F8387287
:101B6000C2F83C72C2F8407202F12002EED10FCDF1
:101B70006E460FC62B68336098E80E00206801F0AF
:101B800066FC012384F8247084F82934E369012B6E
:101B900002D1204600F098FB236A012B02D1204697
:101BA00000F080FB206801F0F5FE002006B0BDE8E3
:101BB000F0810120FAE790F82834012B10B5044693
:101BC0000CD0012380F82834006801F0DBFE206887
:101BD00001F027FC002084F8280410BD0220FCE757
:101BE00090F82824012A10B504460BD0012280F871
:101BF000282484F82410006801F0BEFE002084F838
:101C0000280410BD0220FCE770B501F00F06044661
:101C100011F0800F4FEA461005461ED0254400F112
:101C200028010120214485F829000A614A780E70B4
:101C3000CB7002B1CE81022B04BF00230B7194F84C
:101C40002834012B11D0012384F82834206801F0B6
:101C50001BFC002084F8280470BD254400F50A719F
:101C60000020214485F82902DFE70220F4E710B5BF
:101C7000044601F00F00430111F0800F1A4615D001
:101C8000224403F128010123214482F829300870FD
:101C900094F82834012B11D0012384F828342068CB
:101CA00001F04AFD002084F8280410BD224403F509
:101CB0000A710023214482F82932E8E70220F4E780
:101CC00070B501F00F0100EB41164C01002586F8BC
:101CD000281204F50A710144C6F83C22C6F84032C5
:101CE000C6F8445286F82952006801F06FFE284673
:101CF00070BD01F00F0100EB4111B1F844027047D3
:101D000070B501F00F0100EB41154C012B6400266A
:101D1000012385F8281004F128010144EA636E6468
:101D200085F82930006801F051FE304670BD000092
:101D30002DE9F84F0446006801F034FE000409D58F
:101D4000DFF854A4DFF854B42068B0F844301A0423
:101D500000F1CB80206801F025FE41050FD52268F7
:101D6000B2F8443023F480631B041B0C2046A2F815
:101D70004430FEF7F0FD00212046FFF731FF2068D8
:101D800001F010FE430408D52268B2F8443023F471
:101D900080431B041B0CA2F84430206801F002FEB3
:101DA000870408D52268B2F8443023F400531B049A
:101DB0001B0CA2F84430206801F0F4FDC60426D5BF
:101DC0002268B2F8403023F004031B041B0CA2F875
:101DD0004030B2F8403023F008031B041B0CA2F87B
:101DE000403094F86034012B05D1002184F8601450
:101DF0002046FEF7B5FE2046FEF7CAFD2268B2F87F
:101E0000443023F480531B041B0CA2F84430206898
:101E100001F0C8FD05051BD52068B0F8403043F03F
:101E20000803A0F84030B0F8443023F400631B04EA
:101E30001B0CA0F84430B0F8403043F00403A0F885
:101E4000403001F0AFFDC00402D42046FEF790FD03
:101E5000206801F0A7FD010626D52368B3F84420C9
:101E600022F080021204120CA3F8442094F860249B
:101E7000002A40F08A81B3F8402042F00402A3F81F
:101E80004020B3F8402042F00802A3F84020B3F805
:101E900054309B08012103F03C0384F86014C4F81B
:101EA00064342046FEF75CFE206801F07BFD82056D
:101EB0000BD52268B2F8443023F400731B041B0CCA
:101EC000A2F844302046FEF742FD206801F06AFD8A
:101ED000C30508D52268B2F8443023F480731B048C
:101EE0001B0CA2F84430BDE8F88FB0F8441089B25A
:101EF00011F00F0740F0A18011F01001038827D1E5
:101F00000AEA03030380B0F8502094F8283000F266
:101F100002401044E26B30F83330C3F309036364CA
:101F20001344E3632046FEF70BFD94F82430002BA6
:101F30003FF40AAF226C002A7FF406AF94F82430F5
:101F4000216843F08003A1F84C3084F82420FBE69C
:101F50009BB21A051DD5B0F8501094F8282200F253
:101F600006430B4404F5866133F83230B4F82E2270
:101F7000C3F30903C4F8443201F0F8FD2268138862
:101F800023F070031B051B0D13802046FEF7CAFCCF
:101F9000DAE61F047FF5D8AE038823F070031B0533
:101FA0001B0D0380B0F8501094F8282200F206436D
:101FB0000B4433F83230C3F30903C4F8443263B13D
:101FC000B4F82E22D4F83C1201F0D0FDD4F83C3203
:101FD000D4F844221344C4F83C3200212046FEF7D2
:101FE000A7FC2268D4F83832B2F8501002F2064545
:101FF00089B253B96B5A23F440639B049B0C6FEA7C
:1020000043436FEA53436B5207E03D2B10D8580807
:10201000DE0748BF01308002685213880BEA0303D1
:1020200083F4405343F4004343F0800313808BE672
:1020300058485B0940EA8323E5E73EB230F8269032
:102040001FFA89F919F4004F3DD030F8263023F0FB
:1020500070031B051B0D4FEA471820F8263004EBD0
:10206000080191F83432002B53D1B0F8505091F858
:10207000282200F206432B4433F83250C5F30905F9
:1020800035B1B1F82E22D1F83C122B4601F06EFD8D
:1020900004EB461304EB0801D3F844222A44C3F8A6
:1020A0004422D1F83C222A44C1F83C22D3F84032E1
:1020B0001BB1D1F8380285425ED2A044204698F880
:1020C0002812FEF735FC19F0800F3FF43DAE23686F
:1020D00033F826200AEA020223F8262004EB4717E9
:1020E000B3F8501097F8282003F202430B4404EB96
:1020F000461633F83220C2F309027264FB6B97F87C
:1021000028101A44FA63336C2046DBBBFEF718FC38
:102110001AE691F8283230F82350DA00B0F850303F
:102120006D04034413441DD5B3F80254C5F30905E7
:1021300035B1B1F830222B46D1F83C1201F016FD32
:1021400004EB0803226893F8281232F8213023F4B4
:10215000E04323F0700343F4004343F0C00322F84C
:10216000213095E7B3F80654C5F30905002DE7D0F3
:102170002B46B1F83222DFE791F828122046FFF70C
:102180009FFDA0E7FFF7BCFDDEE52046FEF7F0FB74
:102190008AE600BF0080FFFF0F8FFFFF8FBFFFFFAA
:1021A00038B5436801F00F059D4204462DD811F063
:1021B000800F4FF020031ED000EB451203FB0503F8
:1021C0000121283382F8291001229A701D7094F899
:1021D000281491421BD084F828241946206801F065
:1021E00071FB25B904F58661206801F0DEFB002053
:1021F00084F8280438BD03FB010300EB41110022E1
:1022000003F50A7381F82922DEE70120F2E70220B4
:10221000F0E738B5044601F00F006368984224D80F
:10222000430111F0800F1A4617D0224403F1280110
:102230000123214482F8293000258D70087094F81C
:102240002834012B13D0012384F82834206801F0AE
:1022500055FB84F82854284638BD224403F50A71FA
:102260000023214482F82932E6E70120F4E7022026
:10227000F2E711F0800F1BBF01F00F0100EB4110DE
:1022800000EB4110283008BF00F50A7099B21AB966
:102290000273C1800020704701221B0C0273018170
:1022A0004381F7E703680122C0F86C24B3F8582093
:1022B00042F00102A3F85820B3F8582042F002027D
:1022C000A3F8582000207047036802460121C0F897
:1022D0006814002082F86004B3F854200A43A3F87D
:1022E0005420B3F8542042F00202A3F8542070475F
:1022F000024B186800F4C060704700BF00700040D7
:10230000174B1A68B0F5007F02F4C0621CD1B2F519
:10231000007F15D01A6822F4C06242F400721A607D
:10232000104A116832224A430F49B2FBF1F21946B2
:1023300001325869400500D522B94B695B050DD4BF
:1023400000207047013AF4E7B2F5806F1FBF1A68AA
:1023500022F4C06242F480621A60F1E70320704701
:10236000007000400000002040420F00024A536805
:1023700043F48063536070470070004037B51E4DD2
:10238000AB6DDA00044618D5FFF7B2FFB0F5007F59
:1023900023D1802C29D9A02C8CBF02200120174AE0
:1023A000136823F0070303431360136803F0070364
:1023B000181A18BF012003B030BDAB6D43F0805335
:1023C000AB65AB6D03F080530193019BFFF790FF6A
:1023D000AB6D23F08053AB65D8E7802C07D808D0CD
:1023E000A4F1700358425841D9E70020D7E70320F1
:1023F000D5E70220D3E700BF0010024000200240D2
:10240000254B9A68D96812F00C0205D00C2A15D118
:1024100001F00301012918D119682048090755BFA7
:10242000D3F894101968C1F30321C1F3031150F8D4
:10243000210082B30C2A09D000207047042A29D039
:10244000082A174818BF002070470020D968DA68AA
:1024500001F00301C2F30212022902F1010205D0C8
:10246000032912D0D968C1F3062103E0D9680D48C9
:10247000C1F30621DB68B0FBF2F0C3F34163013323
:1024800048435B00B0FBF3F07047D9680448C1F3E0
:102490000621EFE703487047001002406844000837
:1024A00000127A000024F4002DE9F743054608B92C
:1024B000012046E0A84C0368A668E768DB0606F042
:1024C0000C0607F0030772D51EB10C2E51D1012F57
:1024D0004FD12368980702D5AB69002BE8D0236859
:1024E000286A190756BFD4F8943023681B0903F0F3
:1024F000F003984228D9FFF741FF0028D8D123687C
:1025000043F00803236023682A6A23F0F00313438F
:1025100023606368EA6923F47F4343EA022363602C
:10252000FFF76EFFA3688D4AC3F30313D35C03F078
:102530001F03D8408A4B18600020FFF7A1F800283D
:1025400035D003B0BDE8F083236843F0080323606F
:10255000236823F0F003034323606368EA6923F4EC
:102560007F4343EA02236360FFF708FF0028D7D0C8
:102570009EE7AB69002B3AD0236843F00103236048
:10258000FFF7AEF8804623689A0728D5236843F002
:102590000803236023682A6A23F0F00313432360AF
:1025A0006368EA6923F47F4343EA022363602B688C
:1025B000D8072DD42B6899076BD42B68180700F126
:1025C000A0802B68590700F1CD802B68990600F197
:1025D0003681AB6A002B40F05C810020B1E7FFF749
:1025E0007FF8A0EB08000228CDD90320A9E72368D3
:1025F00023F001032360FFF773F8804623689B07ED
:10260000D5D5FFF76DF8A0EB08000228F6D9ECE766
:10261000082E03D00C2E08D1032F06D123689A036D
:10262000C8D56B68002BC5D142E76B68B3F5803F16
:1026300010D1236843F480332360FFF751F88046BC
:1026400023689B03B6D4FFF74BF8A0EB080064287F
:10265000F6D9CAE7B3F5A02F04D1236843F4802349
:102660002360E6E7226822F480322260226822F4A6
:1026700080222260002BE0D1FFF732F880462368E9
:10268000980397D5FFF72CF8A0EB08006428F6D93B
:10269000ABE7042E03D00C2E10D1022F0ED12368ED
:1026A000590503D5EB68002B3FF402AF63682A6934
:1026B00023F0F85343EA026363607EE7EB687BB183
:1026C000236843F480732360FFF70AF80746236802
:1026D0005A05EBD4FFF704F8C01B0228F7D984E7AA
:1026E000236823F480732360FEF7FAFF074623680C
:1026F0005B057FF562AFFEF7F3FFC01B0228F6D93A
:1027000073E76B699BB1D4F8943043F00103C4F8CC
:102710009430FEF7E5FF0746D4F894309A073FF56A
:1027200050AFFEF7DDFFC01B0228F5D95DE7D4F8F6
:10273000943023F00103C4F89430FEF7D1FF07462C
:10274000D4F894309B077FF53CAFFEF7C9FFC01B60
:102750000228F5D949E700BF00100240554400089F
:1027600000000020A36DD80029D4A36D43F080534E
:10277000A365A36D03F080530193019B4FF0010803
:10278000714F3B68D9051DD5AB68012B2BD1D4F80F
:10279000903043F00103C4F89030FEF7A1FF41F2FE
:1027A00088390746D4F890309B0742D5B8F1000F1E
:1027B0003FF40BAFA36D23F08053A36505E74FF003
:1027C0000008DDE73B6843F480733B60FEF788FF59
:1027D00081463B68DA05D7D4FEF782FFA0EB0900FB
:1027E0000228F6D901E7052B06D1D4F8903043F042
:1027F0000403C4F89030CAE7D4F8902022F0010214
:10280000C4F89020D4F8902022F00402C4F890205C
:10281000002BC2D1FEF764FF41F288390746D4F895
:1028200090309807C2D5FEF75BFFC01B4845F6D92C
:10283000DBE6FEF755FFC01B4845B3D9D5E66B6A0A
:102840009BB1D4F8983043F00103C4F89830FEF7F8
:1028500047FF0746D4F898309A073FF5BAAEFEF71F
:102860003FFFC01B0228F5D9BFE6D4F8983023F00B
:102870000103C4F89830FEF733FF0746D4F89830C8
:102880009B077FF5A6AEFEF72BFFC01B0228F5D9EC
:10289000ABE60C2E3FF40CAE022B236823F08073C2
:1028A000236036D1FEF71CFF0646236898012AD420
:1028B000D5E90D23DB0643EA0223EA6A13432A6BB8
:1028C000013A43EA0213EA6B5208013A43EA4253DF
:1028D0002A6C5208013A43EA4263E360236843F0FA
:1028E00080732360E36843F08073E360FEF7F8FED3
:1028F0000546236899013FF570AEFEF7F1FE401BD7
:102900000228F6D971E6FEF7EBFE801B0228CCD92F
:102910006BE623681A015EBFE36823F00303E360FC
:10292000E36823F0887323F48033E360FEF7D8FE76
:10293000054623689B017FF550AEFEF7D1FE401B94
:102940000228F6D951E600BF007000402DE9F041A1
:102950000E46044610B90120BDE8F081404A1368D4
:1029600003F007038B4229D32368D90731D42168A8
:102970008A075AD43A4A136803F00703B3425CD873
:1029800011F0040F374D63D10B0706D5AB682269F0
:1029900023F4605343EAC203AB60FFF731FDAB6839
:1029A000314AC3F30313BDE8F041D35C03F01F03C6
:1029B000D8402E4B18600020FEF762BE136823F04B
:1029C00007030B431360136803F007038B42C2D164
:1029D000CAE76268234D032A2B681AD113F0007FDF
:1029E000B9D0AB6823F003031343AB60FEF778FE66
:1029F00041F288380746AB68626803F00C03B3EB1A
:102A0000820FB4D0FEF76CFEC01B4045F3D9032003
:102A1000A2E7022A02D113F4003FE1E712B913F052
:102A2000020FDDE713F4806FDAE70E4AA0689368BF
:102A300023F0F003034393609CE7136823F007033C
:102A400033431360136803F00703B34283D197E75E
:102A5000AB68E26823F4E0631343AB6094E700BF24
:102A600000200240001002405544000800000020F1
:102A7000014B1868704700BF00000020F8B5434BB9
:102A8000DA6812F0030F05460E4600681C4628D08F
:102A9000DA6802F0030282423AD1002A38D0DB68B9
:102AA0006A68C3F302130133934231D1236823F0E0
:102AB00080632360FEF714FE074623681A0130D4B2
:102AC000AB681802A6B3012E4CD12A6921695208BD
:102AD000531E21F4C00222F4FE42024342EA435252
:102AE0002FE0022810D0032814D0012810D11B6831
:102AF0009F071CD5E3686A6823F07303013A184303
:102B000040EA0210E060D1E71B6813F4806FF1D156
:102B100001200CE01A689103ECD41B6813F4802F99
:102B2000F5E7FEF7DDFDC01B0228C6D90320F8BD7E
:102B30002369EA6840EAC26223F0784020F4FE404C
:102B400002432261236843F080632360FEF7C8FDDF
:102B5000064623681B0112D52369AA691343236122
:102B60000020E4E76B6922695B08591E22F0C0630C
:102B700023F4FE43034343EA41632361E2E7FEF7A4
:102B8000AFFD801B0228E4D9D0E700BF001002404F
:102B90002DE9F743056815F4006504460ED0416C35
:102BA000B1F5000F52D0B1F5400F54D000295DD1DE
:102BB0000430FFF763FF054600284CD023689E03CE
:102BC00064D5AC4EB36DD80052D4B36D43F080538E
:102BD000B365B36D03F080530193019B0127DFF8C8
:102BE0009882D8F8003043F48073C8F80030FEF7BC
:102BF00077FD8146D8F80030D9053BD5002D40D16E
:102C0000D6F8903013F4407314D0E26D9A4211D08C
:102C1000D6F89030D6F8902042F48032C6F8902052
:102C2000D6F8902023F4407322F48032C6F8902026
:102C3000C6F89030DA0700F1EB80D6F89030E26DFC
:102C400023F440731343C6F890301AE0894AD368DE
:102C500043F48033D360874A616CD2F8883023F420
:102C600040030B43C2F888300025A7E70125A5E7FC
:102C70000027B4E7FEF734FDA0EB09000228B9D91C
:102C800003251FB1B36D23F08053B3652368D807C4
:102C900008D57849206AD1F8882022F0030202433F
:102CA000C1F88820990708D57249606AD1F8882050
:102CB00022F00C020243C1F888205A0708D56D495A
:102CC000A06AD1F8882022F030020243C1F888209F
:102CD0009F0608D56749E06AD1F8882022F440624F
:102CE0000243C1F888209E0508D56249E06BD1F8FF
:102CF000882022F440220243C1F88820580508D5D4
:102D00005C49206CD1F8882022F440120243C1F8BB
:102D10008820590608D55749206BD1F8882022F41D
:102D200040520243C1F888201A0608D55149606B09
:102D3000D1F8882022F440420243C1F88820DF0500
:102D400008D54C49A06BD1F8882022F440320243C8
:102D5000C1F888209E040FD5464AA16CD2F888306D
:102D600023F040630B43B1F1006FC2F8883060D1AB
:102D7000D36843F48013D360236818030FD53D4A0A
:102D8000E16CD2F8883023F040630B43B1F1006F5F
:102D9000C2F8883058D1D36843F48013D3602368D5
:102DA00059030FD5334A216DD2F8883023F04063A0
:102DB0000B43B1F1006FC2F8883050D1D36843F4AF
:102DC0008013D36023685A0412D52A49626DD1F862
:102DD000883023F040531343B2F1805FC1F888304C
:102DE00006D10221201DFFF749FE002818BF054625
:102DF00023681B0408D51F4AA16DD2F8883023F040
:102E000080430B43C2F88830284603B0BDE8F08306
:102E1000FEF766FC41F288398046D6F890309B0771
:102E20003FF50BAFFEF75CFCA0EB08004845F4D97A
:102E300026E7B1F1806F9FD10121201DFFF71EFE13
:102E4000002818BF054697E7B1F1806FA7D101218F
:102E5000201DFFF713FE002818BF05469FE7B1F1BC
:102E6000806FAFD10121201DFFF708FE002818BF99
:102E70000546A7E7001002400070004003685A684A
:102E800022F0E0025A604268B2F5827F0AD182687D
:102E9000B2F5004F02D0B2F5806F03D11A6822F06C
:102EA00040021A60826AB2F5005F07D11A6822F404
:102EB00000521A601A6842F400521A60012380F826
:102EC0005D30002380F85C300320704770B5044605
:102ED0000D4616462368986810F0800000D170BD3A
:102EE0006A1CF8D0FEF7FCFB801B8542F2D8204616
:102EF000BDE87040FFF7C2BFF8B505460C46164660
:102F00001F4629688868204000D1F8BDB4F5C06F1D
:102F100008BF0B7B731CF5D0FEF7E2FBC01B86429B
:102F2000EFD82846BDE8F840FFF7A8BFF8B54368DA
:102F3000B3F5827F04460E4617460BD18368B3F57E
:102F4000004F02D0B3F5806F04D123681A6822F0D5
:102F500040021A603A4631462046FFF7B7FF054661
:102F600028B1236E43F020032366032513E0636832
:102F7000B3F5827F0FD1A368B3F5004F02D0B3F54C
:102F8000806F08D13B4632464FF4C0612046FFF7C0
:102F9000B3FF0028E5D12846F8BD70B513460D46AD
:102FA00016460A464FF4C0510446FFF7A5FF28B164
:102FB000236E43F02003236603200FE032462946A8
:102FC0002046FFF783FF0028F2D133462A464FF40C
:102FD000C0612046FFF790FF0028E9D170BD70B5B1
:102FE0000446002846D00023836290F85D3003F049
:102FF000FF021BB980F85C20FDF78AFB02232268E0
:1030000084F85D301368E56823F04003B5F5E06FA0
:1030100013604FF000032FD84FF4805100D0A3620B
:10302000236B2BB9B5F5E06F8CBF0223012323631B
:10303000D4E9013633432669A069334366693343D3
:10304000E6693343266A3343A66A334300F40076C5
:1030500033431360636A2B43656B000C00F004007C
:103060002B4303430B43536000200123206684F865
:103070005D3070BD0120FCE71946B5F5706FCDE7F6
:103080002DE9F8431E4690F85C30089F012B04465A
:103090000D46914600F01181012380F85C30FEF767
:1030A0001FFB94F85D306168DBB2012B80460AD0CB
:1030B000B1F5827F40F0FF80A068002840F0FB80DF
:1030C000042B40F0F880002D49D0B9F1000F46D014
:1030D000002E44D094F85D30E2682068C4F8409037
:1030E000042B1CBF052384F85D3000232366B2F552
:1030F000E06FA4F84660E687C4E91333A4F844609F
:10310000A563A687436801D8012E2AD923F48053EA
:10311000436003685B065EBF036843F040030360DF
:10312000B2F5E06F56D909B1012E07D135F8023B4F
:10313000C360E38FA563013B9BB2E3870125E38F67
:103140009BB28BB9B4F846309BB26BB94246394654
:103150002046FFF722FF002834D0202323660120D9
:1031600030E043F48053D3E72268936899070DD584
:10317000E38F9BB253B14DB1A36B33F8021BD16007
:10318000A363E38F013B9BB2E38700259368DB07D2
:103190000FD5B4F846309BB25BB1236CD26823F8EC
:1031A000022B2364B4F84630013B9BB2A4F84630AE
:1031B0000125FEF795FAA0EB08008742BFD87E1CD8
:1031C000BDD00320012384F85D30002384F85C30F7
:1031D000BDE8F88309B1012E0AD1E38F012B4ED946
:1031E00035F8023BC360E38FA563023B9BB2E387E4
:1031F0000125E38F9BB223B9B4F846309BB2002B74
:10320000A4D022689368980710D5E38F9BB26BB166
:1032100065B1E18FA36B012939D933F8021BD16065
:10322000A363E38F023B9BB2E38700252268936888
:10323000D9071BD5B4F846309BB2BBB1B4F84610E1
:10324000236C01292BD9D16823F8021B2364B4F81D
:103250004630023B9BB2A4F84630B4F84630012B0E
:1032600003D8536843F4805353600125FEF738FABE
:10327000A0EB08008742BCD87B1CBAD0A1E72B7812
:103280000373A36B0133A363E38F013BAEE71B78AA
:103290001373A36B0133A363E38F013BC3E7127B7B
:1032A0001A70236C01332364B4F84630013B9BB29F
:1032B000A4F84630D9E7022084E7022088E72DE908
:1032C000F3411D464368B3F5827F0446884617469E
:1032D0000CD1836853B9042380F85D301346009500
:1032E0000A46FFF7CDFE02B0BDE8F08194F85C30ED
:1032F000012B00F08D80012384F85C30FEF7F0F99B
:10330000064694F85D00C0B201287FD1B8F1000FE5
:103310006AD0002F68D0042384F85D302168E26809
:10332000A4F8447000232366A4F84670E387A363DF
:10333000A387C4E913334B68C4F84080B2F5E06F4B
:103340008CBF23F4805343F480534B60A368B3F5E0
:10335000004F02BF0B6823F480430B600B685F06CD
:103360005EBF0B6843F040030B60B2F5E06F23D9FA
:10337000B4F846309BB223B323689A68D2073AD593
:10338000DA68236C23F8022B2364B4F84630013B3F
:103390009BB2A4F84630EBE723689A68D0071BD5A8
:1033A000226C1B7B1370236C01332364B4F846300A
:1033B000013B9BB2A4F84630B4F846309BB2002BD8
:1033C000EAD1324629462046FFF7B0FDD8B9206E33
:1033D000003018BF012007E0FEF782F9801BA842E9
:1033E000EAD3691CE8D00320012384F85D30002370
:1033F00084F85C3077E7FEF773F9801BA842B7D3F7
:103400006B1CB5D0EFE720232366E0E70220EBE753
:10341000022068E784B001A880E80E0004B0002014
:103420007047B0F8403043F43F4343F08003A0F8C6
:10343000403000207047B0F8403023F47E535B04E6
:103440005B0CA0F84030002070470020704784B02B
:1034500010B503AC84E80E0000220123A0F8403030
:10346000BDE81040A0F84020A0F84420A0F850206B
:10347000B0F8403043F43F4343F08003A0F84030BD
:1034800004B0104670470000F0B50C7830F82420E6
:103490000346C87822F4EC4222F07002032803D8D5
:1034A000DFE800F0434A4547012023F824200E7846
:1034B0009E4C35B233F825202240324342F400427C
:1034C00042F0800223F825200D7B0A78002D7ED162
:1034D000CE884F7876080825760015FB023277B340
:1034E000B3F850502A44A2F800640D7833F8252030
:1034F000560608D533F82520144044F4004444F01F
:10350000C00423F82540CA780C78012A33F8241027
:10351000874A02EA010218BF82F0200242F4004208
:1035200042F0800223F82420F0BD42F40072002013
:10353000BBE742F4C062FAE742F48062F7E7B3F80F
:10354000504022440C69A2F804640A78B3F8506031
:1035500015FB0232B6B202F2064254B9945B24F46F
:103560004064A404A40C6FEA44446FEA54449453A6
:1035700007E03D2C26D86508E40748BF0135AD02B9
:1035800095530C7833F8242052040BD533F82420BB
:1035900022F0F0021205120D42F4404242F0800285
:1035A00023F82420097833F8212022F4804222F0E5
:1035B000700282F4405242F4004242F0800223F84A
:1035C0002120B1E75B4D640945EA8424CFE712B2BC
:1035D00033F82250254045F4014545F0800523F895
:1035E00022500D78B3F85060082212FB053535449F
:1035F0000E8926F00106A5F800640E78B3F8505045
:1036000012FB06322A444D8925F00105A2F8045424
:103610000A784D7812B2002D43D133F822506F044E
:1036200008D533F822502C4044F4404444F0800440
:1036300023F822400C7833F8242056060BD533F8B3
:10364000242022F0F0021205120D42F4004242F052
:10365000C00223F824200C7833F8242022F0F00252
:103660001205120D42F4004242F0C00223F8242059
:103670000D7833F8252022F4804222F0700248F2BF
:10368000800482F44052224323F82520097833F83D
:10369000212022F4E04222F04002144323F821408A
:1036A00042E733F822506D0408D533F822502C40FD
:1036B00044F4404444F0800423F822400C7833F86A
:1036C000242052060BD533F8242022F0F0021205F4
:1036D000120D42F4004242F0C00223F824200C787C
:1036E00033F8242022F0F0021205120D42F4404279
:1036F00042F0800223F824200C78CA7824B2012AF0
:1037000033F824500A4A02EA050218BF82F0200268
:1037100042F4004242F0800223F82420097833F872
:10372000212022F0F0029204920C44E78F8FFFFFD9
:10373000BF8FFFFF0080FFFF10B50C7B4A780B782E
:10374000BCBBF2B130F8232052060BD530F8232051
:1037500022F0F0021205120D42F4004242F0C002C3
:1037600020F823200A7830F8223023F0C0031B050C
:103770001B0D43F4004343F0800320F82230002067
:1037800010BD30F8232054040BD530F8232022F04C
:10379000F0021205120D42F4404242F0800220F87D
:1037A00023200A7830F8223023F0F0039B049B0C8E
:1037B000DFE7002A44D130F8232052040BD530F83B
:1037C000232022F0F0021205120D42F4404242F092
:1037D000800220F823200A7830F822305C060BD5CE
:1037E00030F8223023F0F0031B051B0D43F4004397
:1037F00043F0C00320F822300A7830F8223023F05A
:10380000F0031B051B0D43F4004343F0C00320F8F5
:1038100022300C7830F8243023F4804323F07003F6
:1038200048F28002134320F82430097830F8213020
:1038300023F4E04323F040031A4320F821209EE7BD
:1038400030F8232052040BD530F8232022F0F00268
:103850001205120D42F4404242F0800220F823206B
:103860000A7830F822305B060BD530F8223023F08E
:10387000F0031B051B0D43F4004343F0C00320F885
:1038800022300A7830F8223023F0F0031B051B0D9C
:1038900043F4404343F0800320F822300C7830F8A2
:1038A000243023F4E04323F0400348F28002134322
:1038B00020F82430097830F8213023F4804323F0B5
:1038C0007003B9E74B780A787BB130F8223023F4E3
:1038D000E04323F0400383F0100343F4004343F03C
:1038E000800320F822300020704730F8223023F483
:1038F000804323F0700383F48053EEE74B780A781B
:1039000003B330F822305B060BD530F8223023F0B9
:10391000F0031B051B0D43F4004343F0C00320F8E4
:1039200022300A7830F8223023F4E04323F04003B9
:1039300083F0300343F4004343F0800320F8223047
:103940000020704730F822305B040BD530F822306D
:1039500023F0F0031B051B0D43F4404343F08003A9
:1039600020F822300A7830F8223023F4804323F004
:10397000700383F44053DDE711B98023A0F84C3085
:1039800000207047B0F8583043F40043A0F8583096
:1039900000207047B0F85830C3F30E03A0F8583039
:1039A00000207047B0F8440070470020704702F5CF
:1039B0008062013302445B0801EB4303521A9942CF
:1039C00000D17047088850520231F8E7F8B5044634
:1039D00048788A690E690F7B01280D465BD1B24297
:1039E0008DBF921B002316468A6198BF8B61B6B2C9
:1039F0004969EFB93346EA882046FFF7D8FFB4F8A3
:103A000050102A7804F202430B4423F832602A78DB
:103A100034F8223023F4E04323F0400383F03003F2
:103A200043F4004343F0800324F822300020F8BD23
:103A30002B7834F82300DA00B4F8503023441344D0
:103A400047064BBFA3F80664A3F802646A892A8973
:103A500033462046FFF7ABFF6B782A786BB912B27A
:103A600034F8223023F0F0031B051B0D43F4004310
:103A700043F0C00324F82230C9E7012BC7D112B2AA
:103A800034F8223023F0F0031B051B0D43F44043B0
:103A900043F08003EEE7B2428BBF921B00238A61A2
:103AA0008B6198BF1646097897B9B4F8500004F2B4
:103AB0000642024402EBC102AEBB138823F440630A
:103AC0009B049B0C6FEA43436FEA5343138032E03D
:103AD00088B9B4F8500004F20242024402EBC10279
:103AE000A6B9118821F440618904890C6FEA41412B
:103AF0006FEA514111806A7828785ABBB4F85010A7
:103B000004F206420A4402EBC002D5E73D2E05D876
:103B10007108F00748BF01318902EBE712487109CB
:103B200040EA8121E6E73D2E0FD87108F30748BF30
:103B30000131890211802A7834F8223023F480433D
:103B400023F0700383F440536AE7074B710943EA9B
:103B50008123BBE7012A01BFB4F8502004F20641DB
:103B6000891821F83060E6E70080FFFF02F58062E7
:103B7000F0B510445D080C462E46471A3A19023437
:103B800036B9DB0744BF30F8153001F81530F0BD09
:103B9000128804F8022C120A04F8012C013EEDE709
:103BA00070B50D4E0D4CA41BA4100025A54209D1E3
:103BB0000B4E0C4C00F036FCA41BA4100025A542B3
:103BC00005D170BD56F8253098470135EEE756F817
:103BD000253098470135F2E7384500083845000898
:103BE000384500083C45000810B5431E0A44914280
:103BF00000D110BD11F8014B03F8014FF7E7024463
:103C00000346934200D1704703F8011BF9E7000017
:103C10000EB400B59CB01DAB029006906FF0004151
:103C2000094807910491094953F8042B059100684C
:103C3000019302A900F066F8029B00221A701CB0E2
:103C40005DF804EB03B07047700100200802FFFF2D
:103C50002DE9F0478E689E4282460C469046994672
:103C600037D88A8912F4906F31D0256809696F1AA4
:103C70006569022305EB450595FBF3F509F10103A1
:103C80003B449D4238BF1D46530530D5294600F0C0
:103C900021FB064650B90C23CAF80030A38943F033
:103CA0004003A3814FF0FF30BDE8F0873A46216919
:103CB000FFF79AFFA38923F4906343F08003A38165
:103CC000266165613E44ED1B2660A5604E464E456B
:103CD00000D94E4632464146206800F093FAA36868
:103CE0009B1BA36023681E4426600020DCE72A4655
:103CF00000F04AFB06460028E2D12169504600F058
:103D00009BFAC8E72DE9F04F1D468B891F069DB031
:103D100080460C4616460FD50B696BB9402100F062
:103D2000D9FA2060206128B90C23C8F800304FF080
:103D3000FF30C8E0402363610023099320238DF8FE
:103D4000293030238DF82A3003954FF0010B374688
:103D50003D4615F8013B0BB1252B3ED1B7EB060ACA
:103D60000BD05346324621464046FFF771FF0130E3
:103D700000F0A480099B534409933B78002B00F08A
:103D80009D8000234FF0FF32CDE905230493079374
:103D90008DF853301A932F46052217F8011B50480F
:103DA000FCF7FEF9049BD0B9D90644BF20228DF858
:103DB00053201A0744BF2B228DF853202A782A2A31
:103DC00015D0079A2F4600200A25394611F8013BE5
:103DD000303B092B4DD9B8B10FE02F46B8E7404A28
:103DE000801A0BFA00F0184304903D46D3E7039A7B
:103DF000111D12680391002A01DB079204E0524270
:103E000043F00203079204933B782E2B0CD17B786E
:103E10002A2B33D1039B1A1D1B680392002BB8BFBA
:103E20004FF0FF33023705932E4D39780322284691
:103E3000FCF7B6F938B14023401B03FA00F0049BAD
:103E4000034301370493397827488DF82810062258
:103E50007E1CFCF7A5F9002838D0244B13BB039B2C
:103E6000073323F0070308330393099B4B4409935B
:103E70006DE705FB023201200F46A6E7002301375C
:103E8000059319460A25384610F8012B303A092ABD
:103E900003D9002BC8D00591C6E705FB01210123FA
:103EA0000746F0E703AB00932246114B04A94046B6
:103EB000AFF30080B0F1FF3F8146D6D1A3895B0606
:103EC0003FF535AF09981DB0BDE8F08F03AB009307
:103ED0002246074B04A9404600F082F8EAE700BFFB
:103EE000FE440008044500080845000800000000E2
:103EF000513C00082DE9F04791461F468A680B693E
:103F0000DDF820809342B8BF1346C9F8003091F81D
:103F1000432006460C4612B10133C9F8003023682D
:103F2000990642BFD9F800300233C9F8003025683D
:103F300015F0060507D104F1190AE368D9F8002045
:103F40009B1AAB4228DC94F843302268003318BF38
:103F5000012392062DD404F1430239463046C0476E
:103F6000013020D02368E568D9F8002003F006036B
:103F7000042B08BFAD1AA36822690CBF25EAE575BA
:103F800000259342C4BF9B1AED184FF000091A3464
:103F90004D451AD1002008E00123524639463046EB
:103FA000C047013003D14FF0FF30BDE8F087013545
:103FB000C3E7E1185A1C302081F84300224494F8EA
:103FC000451082F843100233C5E7012322463946E3
:103FD0003046C0470130E6D009F10109D8E70000BA
:103FE0002DE9F04301F1430C0C46097E85B06E29A2
:103FF0001746064698460C9A00F0B38022D86329EB
:1040000036D00AD8002900F0B980582900F0838002
:1040100004F1420584F8421032E0642901D0692994
:10402000F6D120681368050603F104012AD51B6840
:104030001160002B03DA2D225B4284F843206F4885
:104040000A2239E0732900F09D8008D86F2920D01A
:104050007029DDD1236843F02003236003E0752934
:1040600017D07829D4D1782384F84530644855E0B6
:104070001368191D1B68116004F1420584F8423071
:1040800001238CE01B68116010F0400F18BF1BB2B9
:10409000CFE713682568181D1060280601D51B6836
:1040A00002E06806FBD51B8854486F2914BF0A221A
:1040B0000822002184F843106568A560002DC0F235
:1040C0009580216821F004012160002B3DD1002D55
:1040D00040F08E806546082A0BD12368DB0708D59F
:1040E000236962689A42DEBF302305F8013C05F17E
:1040F000FF35ACEB05032361CDF800803B4603AAF6
:1041000021463046FFF7F6FE01304DD14FF0FF302B
:1041100005B0BDE8F083394884F84510136821687C
:104120001D1D1B6815600A060BD5CA0744BF41F068
:10413000200121601BB9226822F020022260102297
:10414000B7E74D0648BF9BB2EFE76546B3FBF2F118
:1041500002FB1133C35C05F8013D0B460029F5D184
:10416000B9E7136825686169181D106028061B6887
:1041700001D5196002E06A06FBD51980002323618E
:104180006546B9E71368191D11601D686268002152
:104190002846FCF705F808B1401B6060636823619E
:1041A000002384F84330A7E723692A46394630467E
:1041B000C0470130AAD023689B0713D4E068039B53
:1041C0009842B8BF1846A3E701234A46394630460D
:1041D000C04701309AD00135E368039A9B1AAB427D
:1041E000F2DCEBE7002504F11909F5E7002BACD16F
:1041F000037884F8423004F142056CE70F4500086B
:1042000020450008884210B501EB020307D8421E82
:1042100099420AD011F8014B02F8014FF8E78342A6
:10422000F5D98118D21AD34200D110BD13F8014D2F
:1042300001F8014DF7E7000038B50546002945D0E3
:1042400051F8043C0C1F002BB8BFE41800F0D2F862
:104250001F4A1368104633B9636014602846BDE8EE
:10426000384000F0C8B8A3420CD9216862189342C4
:1042700004BF1A685B68636004BF52182260046060
:10428000ECE713465A680AB1A242FAD919685818DD
:10429000A0420BD120680144581882421960DDD138
:1042A000106852685A6001441960D7E702D90C239C
:1042B0002B60D3E7206821188A4204BF1168526836
:1042C000626004BF091821605C60C7E738BD00BFA9
:1042D0001804002070B5CD1C25F0030508350C2D01
:1042E00038BF0C25002D064601DBA94203D90C235B
:1042F0003360002070BD00F07DF8214A146821462B
:1043000091B9204C23681BB9304600F063F8206057
:104310002946304600F05EF8431C24D10C2333605C
:10432000304600F068F8E4E70B685B1B18D40B2BF1
:104330000FD90B60CD50CC18304600F05CF804F17A
:104340000B00231D20F00700C31AD3D05A42E250BD
:10435000D0E78C424B6816BF636013600C46EBE7F6
:104360000C464968CCE7C41C24F00304A04205D0E5
:10437000211A304600F02EF80130CFD02560DBE75F
:10438000180400201C040020F8B5074614460E4609
:1043900021B91146BDE8F840FFF79CBF22B9FFF7ED
:1043A0004BFF25462846F8BD00F026F8A0420FD264
:1043B00021463846FFF78EFF05460028F2D03146E9
:1043C0002246FFF711FC31463846FFF735FFE9E793
:1043D0003546E7E738B5064C002305460846236016
:1043E00000F012F8431C02D1236803B12B6038BDE2
:1043F0001C1600207047704751F8043C181F002B12
:10440000BCBF0B58C0187047044A05491368002BFD
:1044100008BF0B461844106018467047200400205F
:1044200020160020F8B500BFF8BC08BC9E467047B7
:10443000F8B500BFF8BC08BC9E46704700000000FD
:10444000496E697420436F6D706C6574650A0D0068
:1044500025640A0D000000000000000000010203B6
:104460000406070809000000A0860100400D0300B3
:10447000801A060000350C0040420F0080841E00A8
:1044800000093D0000127A000024F40000366E019D
:104490000048E801006CDC02000201022E2E2F53BE
:1044A00072632F757362645F636F6E662E63004381
:1044B000444320436F6E6669670043444320496E5E
:1044C000746572666163650053544D6963726F650C
:1044D0006C656374726F6E6963730053544D33324D
:1044E000205669727475616C20436F6D506F7274E1
:1044F0000030303030303030303030314100232D1A
:10450000302B2000686C4C006566674546470030DC
:104510003132333435363738394142434445460029
:104520003031323334353637383961626364656629
:08453000000000000000000083
:08453800A902000800000000C8
:084540008102000800000000E8
:1045480000093D00C0C62D000000080065080008ED
:10455800450800088D08000849080008C50B000830
:10456800D10B0008E90B0008050C0008210C000815
:104578003D0C0008590C0008DD0B0008050F0C0065
:1045880001071002020000001201010202020040AD
:1045980083044057000201020301000004030904D8
:1045A80059150008171500085B14000800000000E2
:1045B800931300081B140008ED1300080000000006
:1045C8000000000000000000C9130008BD13000827
:1045D800D5130008E113000809024300020100C0D6
:1045E800320904000001020201000524001001053F
:1045F80024010001042402020524060001070582A3
:104608000308001009040100020A00000007050160
:104618000240000007058102400000000902430033
:10462800020100C032090400000102020100052451
:1046380000100105240100010424020205240600DB
:10464800010705820308001009040100020A00009E
:1046580000070501020002000705810200020000B0
:104668000A0600020000004001000000090743009C
:10467800020104C0320904000001020201000524FD
:10468800001001052401000104240202052406008B
:10469800010705820308001009040100020A00004E
:1046A80000070501024000000705810240000000E4
:1046B800740100200000000000000000000000005D
:1046C80000000000000000000000000000000000E2
:1046D80000000000000000000000000000000000D2
:1046E80000000000000000000000000000000000C2
:1046F80000000000000000000000000000000000B2
:1047080000000000000000000000000000000000A1
:08471800000000000000000099
:04000005080002CD20
:00000001FF
